{
	"a.sol": {
		"A": {
			"abi": [
				{
					"inputs": [],
					"name": "getArray",
					"outputs": [
						{
							"internalType": "uint256[]",
							"name": "",
							"type": "uint256[]"
						}
					],
					"stateMutability": "view",
					"type": "function"
				},
				{
					"inputs": [],
					"name": "getAverage",
					"outputs": [
						{
							"internalType": "uint256",
							"name": "",
							"type": "uint256"
						}
					],
					"stateMutability": "view",
					"type": "function"
				},
				{
					"inputs": [],
					"name": "getAverage2",
					"outputs": [
						{
							"internalType": "uint256",
							"name": "",
							"type": "uint256"
						}
					],
					"stateMutability": "view",
					"type": "function"
				},
				{
					"inputs": [
						{
							"internalType": "uint256",
							"name": "_n",
							"type": "uint256"
						}
					],
					"name": "getN",
					"outputs": [
						{
							"internalType": "uint256",
							"name": "",
							"type": "uint256"
						}
					],
					"stateMutability": "view",
					"type": "function"
				},
				{
					"inputs": [
						{
							"internalType": "uint256",
							"name": "_n",
							"type": "uint256"
						}
					],
					"name": "pushNumber",
					"outputs": [],
					"stateMutability": "nonpayable",
					"type": "function"
				}
			],
			"devdoc": {
				"kind": "dev",
				"methods": {},
				"version": 1
			},
			"evm": {
				"assembly": "    /* \"a.sol\":58:812  contract A {... */\n  mstore(0x40, 0x80)\n  callvalue\n  dup1\n  iszero\n  tag_1\n  jumpi\n  0x00\n  dup1\n  revert\ntag_1:\n  pop\n  dataSize(sub_0)\n  dup1\n  dataOffset(sub_0)\n  0x00\n  codecopy\n  0x00\n  return\nstop\n\nsub_0: assembly {\n        /* \"a.sol\":58:812  contract A {... */\n      mstore(0x40, 0x80)\n      callvalue\n      dup1\n      iszero\n      tag_1\n      jumpi\n      0x00\n      dup1\n      revert\n    tag_1:\n      pop\n      jumpi(tag_2, lt(calldatasize, 0x04))\n      shr(0xe0, calldataload(0x00))\n      dup1\n      0x21055acb\n      eq\n      tag_3\n      jumpi\n      dup1\n      0x2bfe1805\n      eq\n      tag_4\n      jumpi\n      dup1\n      0x39139225\n      eq\n      tag_5\n      jumpi\n      dup1\n      0xa8741db1\n      eq\n      tag_6\n      jumpi\n      dup1\n      0xd504ea1d\n      eq\n      tag_7\n      jumpi\n    tag_2:\n      0x00\n      dup1\n      revert\n        /* \"a.sol\":356:588  function getAverage() public view returns(uint) {... */\n    tag_3:\n      tag_8\n      tag_9\n      jump\t// in\n    tag_8:\n      mload(0x40)\n      tag_10\n      swap2\n      swap1\n      tag_11\n      jump\t// in\n    tag_10:\n      mload(0x40)\n      dup1\n      swap2\n      sub\n      swap1\n      return\n        /* \"a.sol\":96:165  function pushNumber(uint _n) public {... */\n    tag_4:\n      tag_12\n      0x04\n      dup1\n      calldatasize\n      sub\n      dup2\n      add\n      swap1\n      tag_13\n      swap2\n      swap1\n      tag_14\n      jump\t// in\n    tag_13:\n      tag_15\n      jump\t// in\n    tag_12:\n      stop\n        /* \"a.sol\":263:350  function getN(uint _n) public view returns(uint) {... */\n    tag_5:\n      tag_16\n      0x04\n      dup1\n      calldatasize\n      sub\n      dup2\n      add\n      swap1\n      tag_17\n      swap2\n      swap1\n      tag_14\n      jump\t// in\n    tag_17:\n      tag_18\n      jump\t// in\n    tag_16:\n      mload(0x40)\n      tag_19\n      swap2\n      swap1\n      tag_11\n      jump\t// in\n    tag_19:\n      mload(0x40)\n      dup1\n      swap2\n      sub\n      swap1\n      return\n        /* \"a.sol\":594:810  function getAverage2()  public view returns(uint) {... */\n    tag_6:\n      tag_20\n      tag_21\n      jump\t// in\n    tag_20:\n      mload(0x40)\n      tag_22\n      swap2\n      swap1\n      tag_11\n      jump\t// in\n    tag_22:\n      mload(0x40)\n      dup1\n      swap2\n      sub\n      swap1\n      return\n        /* \"a.sol\":171:257  function getArray() public view returns(uint[] memory) {... */\n    tag_7:\n      tag_23\n      tag_24\n      jump\t// in\n    tag_23:\n      mload(0x40)\n      tag_25\n      swap2\n      swap1\n      tag_26\n      jump\t// in\n    tag_25:\n      mload(0x40)\n      dup1\n      swap2\n      sub\n      swap1\n      return\n        /* \"a.sol\":356:588  function getAverage() public view returns(uint) {... */\n    tag_9:\n        /* \"a.sol\":398:402  uint */\n      0x00\n        /* \"a.sol\":415:423  uint sum */\n      dup1\n        /* \"a.sol\":426:427  0 */\n      0x00\n        /* \"a.sol\":415:427  uint sum = 0 */\n      swap1\n      pop\n        /* \"a.sol\":442:448  uint i */\n      0x00\n        /* \"a.sol\":438:546  for(uint i = 0; i < numbers.length; i++) {... */\n    tag_28:\n        /* \"a.sol\":458:465  numbers */\n      0x00\n        /* \"a.sol\":458:472  numbers.length */\n      dup1\n      sload\n      swap1\n      pop\n        /* \"a.sol\":454:455  i */\n      dup2\n        /* \"a.sol\":454:472  i < numbers.length */\n      lt\n        /* \"a.sol\":438:546  for(uint i = 0; i < numbers.length; i++) {... */\n      iszero\n      tag_29\n      jumpi\n        /* \"a.sol\":505:512  numbers */\n      0x00\n        /* \"a.sol\":513:514  i */\n      dup2\n        /* \"a.sol\":505:515  numbers[i] */\n      dup2\n      sload\n      dup2\n      lt\n      tag_31\n      jumpi\n      tag_32\n      tag_33\n      jump\t// in\n    tag_32:\n    tag_31:\n      swap1\n      0x00\n      mstore\n      keccak256(0x00, 0x20)\n      add\n      sload\n        /* \"a.sol\":499:502  sum */\n      dup3\n        /* \"a.sol\":499:515  sum + numbers[i] */\n      tag_35\n      swap2\n      swap1\n      tag_36\n      jump\t// in\n    tag_35:\n        /* \"a.sol\":493:515  sum = sum + numbers[i] */\n      swap2\n      pop\n        /* \"a.sol\":474:477  i++ */\n      dup1\n      dup1\n      0x01\n      add\n      swap2\n      pop\n      pop\n        /* \"a.sol\":438:546  for(uint i = 0; i < numbers.length; i++) {... */\n      jump(tag_28)\n    tag_29:\n      pop\n        /* \"a.sol\":567:574  numbers */\n      0x00\n        /* \"a.sol\":567:581  numbers.length */\n      dup1\n      sload\n      swap1\n      pop\n        /* \"a.sol\":563:566  sum */\n      dup2\n        /* \"a.sol\":563:581  sum/numbers.length */\n      tag_37\n      swap2\n      swap1\n      tag_38\n      jump\t// in\n    tag_37:\n        /* \"a.sol\":556:581  return sum/numbers.length */\n      swap2\n      pop\n      pop\n        /* \"a.sol\":356:588  function getAverage() public view returns(uint) {... */\n      swap1\n      jump\t// out\n        /* \"a.sol\":96:165  function pushNumber(uint _n) public {... */\n    tag_15:\n        /* \"a.sol\":142:149  numbers */\n      0x00\n        /* \"a.sol\":155:157  _n */\n      dup2\n        /* \"a.sol\":142:158  numbers.push(_n) */\n      swap1\n      dup1\n      0x01\n      dup2\n      sload\n      add\n      dup1\n      dup3\n      sstore\n      dup1\n      swap2\n      pop\n      pop\n      0x01\n      swap1\n      sub\n      swap1\n      0x00\n      mstore\n      keccak256(0x00, 0x20)\n      add\n      0x00\n      swap1\n      swap2\n      swap1\n      swap2\n      swap1\n      swap2\n      pop\n      sstore\n        /* \"a.sol\":96:165  function pushNumber(uint _n) public {... */\n      pop\n      jump\t// out\n        /* \"a.sol\":263:350  function getN(uint _n) public view returns(uint) {... */\n    tag_18:\n        /* \"a.sol\":306:310  uint */\n      0x00\n        /* \"a.sol\":329:336  numbers */\n      dup1\n        /* \"a.sol\":341:342  1 */\n      0x01\n        /* \"a.sol\":337:339  _n */\n      dup4\n        /* \"a.sol\":337:342  _n -1 */\n      tag_42\n      swap2\n      swap1\n      tag_43\n      jump\t// in\n    tag_42:\n        /* \"a.sol\":329:343  numbers[_n -1] */\n      dup2\n      sload\n      dup2\n      lt\n      tag_44\n      jumpi\n      tag_45\n      tag_33\n      jump\t// in\n    tag_45:\n    tag_44:\n      swap1\n      0x00\n      mstore\n      keccak256(0x00, 0x20)\n      add\n      sload\n        /* \"a.sol\":322:343  return numbers[_n -1] */\n      swap1\n      pop\n        /* \"a.sol\":263:350  function getN(uint _n) public view returns(uint) {... */\n      swap2\n      swap1\n      pop\n      jump\t// out\n        /* \"a.sol\":594:810  function getAverage2()  public view returns(uint) {... */\n    tag_21:\n        /* \"a.sol\":638:642  uint */\n      0x00\n        /* \"a.sol\":661:669  uint sum */\n      dup1\n        /* \"a.sol\":672:673  0 */\n      0x00\n        /* \"a.sol\":661:673  uint sum = 0 */\n      swap1\n      pop\n        /* \"a.sol\":687:693  uint i */\n      0x00\n        /* \"a.sol\":696:697  1 */\n      0x01\n        /* \"a.sol\":687:697  uint i = 1 */\n      swap1\n      pop\n        /* \"a.sol\":683:769  for(uint i = 1; i < numbers.length + 1; i++) {... */\n    tag_48:\n        /* \"a.sol\":720:721  1 */\n      0x01\n        /* \"a.sol\":703:710  numbers */\n      0x00\n        /* \"a.sol\":703:717  numbers.length */\n      dup1\n      sload\n      swap1\n      pop\n        /* \"a.sol\":703:721  numbers.length + 1 */\n      tag_51\n      swap2\n      swap1\n      tag_36\n      jump\t// in\n    tag_51:\n        /* \"a.sol\":699:700  i */\n      dup2\n        /* \"a.sol\":699:721  i < numbers.length + 1 */\n      lt\n        /* \"a.sol\":683:769  for(uint i = 1; i < numbers.length + 1; i++) {... */\n      iszero\n      tag_49\n      jumpi\n        /* \"a.sol\":749:756  numbers */\n      0x00\n        /* \"a.sol\":757:758  1 */\n      0x01\n        /* \"a.sol\":749:759  numbers[1] */\n      dup2\n      sload\n      dup2\n      lt\n      tag_52\n      jumpi\n      tag_53\n      tag_33\n      jump\t// in\n    tag_53:\n    tag_52:\n      swap1\n      0x00\n      mstore\n      keccak256(0x00, 0x20)\n      add\n      sload\n        /* \"a.sol\":742:759  sum += numbers[1] */\n      dup3\n      tag_55\n      swap2\n      swap1\n      tag_36\n      jump\t// in\n    tag_55:\n      swap2\n      pop\n        /* \"a.sol\":723:726  i++ */\n      dup1\n      dup1\n      0x01\n      add\n      swap2\n      pop\n      pop\n        /* \"a.sol\":683:769  for(uint i = 1; i < numbers.length + 1; i++) {... */\n      jump(tag_48)\n    tag_49:\n      pop\n        /* \"a.sol\":789:796  numbers */\n      0x00\n        /* \"a.sol\":789:803  numbers.length */\n      dup1\n      sload\n      swap1\n      pop\n        /* \"a.sol\":785:788  sum */\n      dup2\n        /* \"a.sol\":785:803  sum/numbers.length */\n      tag_56\n      swap2\n      swap1\n      tag_38\n      jump\t// in\n    tag_56:\n        /* \"a.sol\":778:803  return sum/numbers.length */\n      swap2\n      pop\n      pop\n        /* \"a.sol\":594:810  function getAverage2()  public view returns(uint) {... */\n      swap1\n      jump\t// out\n        /* \"a.sol\":171:257  function getArray() public view returns(uint[] memory) {... */\n    tag_24:\n        /* \"a.sol\":211:224  uint[] memory */\n      0x60\n        /* \"a.sol\":243:250  numbers */\n      0x00\n        /* \"a.sol\":236:250  return numbers */\n      dup1\n      sload\n      dup1\n      0x20\n      mul\n      0x20\n      add\n      mload(0x40)\n      swap1\n      dup2\n      add\n      0x40\n      mstore\n      dup1\n      swap3\n      swap2\n      swap1\n      dup2\n      dup2\n      mstore\n      0x20\n      add\n      dup3\n      dup1\n      sload\n      dup1\n      iszero\n      tag_58\n      jumpi\n      0x20\n      mul\n      dup3\n      add\n      swap2\n      swap1\n      0x00\n      mstore\n      keccak256(0x00, 0x20)\n      swap1\n    tag_59:\n      dup2\n      sload\n      dup2\n      mstore\n      0x20\n      add\n      swap1\n      0x01\n      add\n      swap1\n      dup1\n      dup4\n      gt\n      tag_59\n      jumpi\n    tag_58:\n      pop\n      pop\n      pop\n      pop\n      pop\n      swap1\n      pop\n        /* \"a.sol\":171:257  function getArray() public view returns(uint[] memory) {... */\n      swap1\n      jump\t// out\n        /* \"#utility.yul\":7:84   */\n    tag_60:\n        /* \"#utility.yul\":44:51   */\n      0x00\n        /* \"#utility.yul\":73:78   */\n      dup2\n        /* \"#utility.yul\":62:78   */\n      swap1\n      pop\n        /* \"#utility.yul\":7:84   */\n      swap2\n      swap1\n      pop\n      jump\t// out\n        /* \"#utility.yul\":90:208   */\n    tag_61:\n        /* \"#utility.yul\":177:201   */\n      tag_79\n        /* \"#utility.yul\":195:200   */\n      dup2\n        /* \"#utility.yul\":177:201   */\n      tag_60\n      jump\t// in\n    tag_79:\n        /* \"#utility.yul\":172:175   */\n      dup3\n        /* \"#utility.yul\":165:202   */\n      mstore\n        /* \"#utility.yul\":90:208   */\n      pop\n      pop\n      jump\t// out\n        /* \"#utility.yul\":214:436   */\n    tag_11:\n        /* \"#utility.yul\":307:311   */\n      0x00\n        /* \"#utility.yul\":345:347   */\n      0x20\n        /* \"#utility.yul\":334:343   */\n      dup3\n        /* \"#utility.yul\":330:348   */\n      add\n        /* \"#utility.yul\":322:348   */\n      swap1\n      pop\n        /* \"#utility.yul\":358:429   */\n      tag_81\n        /* \"#utility.yul\":426:427   */\n      0x00\n        /* \"#utility.yul\":415:424   */\n      dup4\n        /* \"#utility.yul\":411:428   */\n      add\n        /* \"#utility.yul\":402:408   */\n      dup5\n        /* \"#utility.yul\":358:429   */\n      tag_61\n      jump\t// in\n    tag_81:\n        /* \"#utility.yul\":214:436   */\n      swap3\n      swap2\n      pop\n      pop\n      jump\t// out\n        /* \"#utility.yul\":523:640   */\n    tag_63:\n        /* \"#utility.yul\":632:633   */\n      0x00\n        /* \"#utility.yul\":629:630   */\n      dup1\n        /* \"#utility.yul\":622:634   */\n      revert\n        /* \"#utility.yul\":769:891   */\n    tag_65:\n        /* \"#utility.yul\":842:866   */\n      tag_86\n        /* \"#utility.yul\":860:865   */\n      dup2\n        /* \"#utility.yul\":842:866   */\n      tag_60\n      jump\t// in\n    tag_86:\n        /* \"#utility.yul\":835:840   */\n      dup2\n        /* \"#utility.yul\":832:867   */\n      eq\n        /* \"#utility.yul\":822:885   */\n      tag_87\n      jumpi\n        /* \"#utility.yul\":881:882   */\n      0x00\n        /* \"#utility.yul\":878:879   */\n      dup1\n        /* \"#utility.yul\":871:883   */\n      revert\n        /* \"#utility.yul\":822:885   */\n    tag_87:\n        /* \"#utility.yul\":769:891   */\n      pop\n      jump\t// out\n        /* \"#utility.yul\":897:1036   */\n    tag_66:\n        /* \"#utility.yul\":943:948   */\n      0x00\n        /* \"#utility.yul\":981:987   */\n      dup2\n        /* \"#utility.yul\":968:988   */\n      calldataload\n        /* \"#utility.yul\":959:988   */\n      swap1\n      pop\n        /* \"#utility.yul\":997:1030   */\n      tag_89\n        /* \"#utility.yul\":1024:1029   */\n      dup2\n        /* \"#utility.yul\":997:1030   */\n      tag_65\n      jump\t// in\n    tag_89:\n        /* \"#utility.yul\":897:1036   */\n      swap3\n      swap2\n      pop\n      pop\n      jump\t// out\n        /* \"#utility.yul\":1042:1371   */\n    tag_14:\n        /* \"#utility.yul\":1101:1107   */\n      0x00\n        /* \"#utility.yul\":1150:1152   */\n      0x20\n        /* \"#utility.yul\":1138:1147   */\n      dup3\n        /* \"#utility.yul\":1129:1136   */\n      dup5\n        /* \"#utility.yul\":1125:1148   */\n      sub\n        /* \"#utility.yul\":1121:1153   */\n      slt\n        /* \"#utility.yul\":1118:1237   */\n      iszero\n      tag_91\n      jumpi\n        /* \"#utility.yul\":1156:1235   */\n      tag_92\n      tag_63\n      jump\t// in\n    tag_92:\n        /* \"#utility.yul\":1118:1237   */\n    tag_91:\n        /* \"#utility.yul\":1276:1277   */\n      0x00\n        /* \"#utility.yul\":1301:1354   */\n      tag_93\n        /* \"#utility.yul\":1346:1353   */\n      dup5\n        /* \"#utility.yul\":1337:1343   */\n      dup3\n        /* \"#utility.yul\":1326:1335   */\n      dup6\n        /* \"#utility.yul\":1322:1344   */\n      add\n        /* \"#utility.yul\":1301:1354   */\n      tag_66\n      jump\t// in\n    tag_93:\n        /* \"#utility.yul\":1291:1354   */\n      swap2\n      pop\n        /* \"#utility.yul\":1247:1364   */\n      pop\n        /* \"#utility.yul\":1042:1371   */\n      swap3\n      swap2\n      pop\n      pop\n      jump\t// out\n        /* \"#utility.yul\":1377:1491   */\n    tag_67:\n        /* \"#utility.yul\":1444:1450   */\n      0x00\n        /* \"#utility.yul\":1478:1483   */\n      dup2\n        /* \"#utility.yul\":1472:1484   */\n      mload\n        /* \"#utility.yul\":1462:1484   */\n      swap1\n      pop\n        /* \"#utility.yul\":1377:1491   */\n      swap2\n      swap1\n      pop\n      jump\t// out\n        /* \"#utility.yul\":1497:1681   */\n    tag_68:\n        /* \"#utility.yul\":1596:1607   */\n      0x00\n        /* \"#utility.yul\":1630:1636   */\n      dup3\n        /* \"#utility.yul\":1625:1628   */\n      dup3\n        /* \"#utility.yul\":1618:1637   */\n      mstore\n        /* \"#utility.yul\":1670:1674   */\n      0x20\n        /* \"#utility.yul\":1665:1668   */\n      dup3\n        /* \"#utility.yul\":1661:1675   */\n      add\n        /* \"#utility.yul\":1646:1675   */\n      swap1\n      pop\n        /* \"#utility.yul\":1497:1681   */\n      swap3\n      swap2\n      pop\n      pop\n      jump\t// out\n        /* \"#utility.yul\":1687:1819   */\n    tag_69:\n        /* \"#utility.yul\":1754:1758   */\n      0x00\n        /* \"#utility.yul\":1777:1780   */\n      dup2\n        /* \"#utility.yul\":1769:1780   */\n      swap1\n      pop\n        /* \"#utility.yul\":1807:1811   */\n      0x20\n        /* \"#utility.yul\":1802:1805   */\n      dup3\n        /* \"#utility.yul\":1798:1812   */\n      add\n        /* \"#utility.yul\":1790:1812   */\n      swap1\n      pop\n        /* \"#utility.yul\":1687:1819   */\n      swap2\n      swap1\n      pop\n      jump\t// out\n        /* \"#utility.yul\":1825:1933   */\n    tag_70:\n        /* \"#utility.yul\":1902:1926   */\n      tag_98\n        /* \"#utility.yul\":1920:1925   */\n      dup2\n        /* \"#utility.yul\":1902:1926   */\n      tag_60\n      jump\t// in\n    tag_98:\n        /* \"#utility.yul\":1897:1900   */\n      dup3\n        /* \"#utility.yul\":1890:1927   */\n      mstore\n        /* \"#utility.yul\":1825:1933   */\n      pop\n      pop\n      jump\t// out\n        /* \"#utility.yul\":1939:2118   */\n    tag_71:\n        /* \"#utility.yul\":2008:2018   */\n      0x00\n        /* \"#utility.yul\":2029:2075   */\n      tag_100\n        /* \"#utility.yul\":2071:2074   */\n      dup4\n        /* \"#utility.yul\":2063:2069   */\n      dup4\n        /* \"#utility.yul\":2029:2075   */\n      tag_70\n      jump\t// in\n    tag_100:\n        /* \"#utility.yul\":2107:2111   */\n      0x20\n        /* \"#utility.yul\":2102:2105   */\n      dup4\n        /* \"#utility.yul\":2098:2112   */\n      add\n        /* \"#utility.yul\":2084:2112   */\n      swap1\n      pop\n        /* \"#utility.yul\":1939:2118   */\n      swap3\n      swap2\n      pop\n      pop\n      jump\t// out\n        /* \"#utility.yul\":2124:2237   */\n    tag_72:\n        /* \"#utility.yul\":2194:2198   */\n      0x00\n        /* \"#utility.yul\":2226:2230   */\n      0x20\n        /* \"#utility.yul\":2221:2224   */\n      dup3\n        /* \"#utility.yul\":2217:2231   */\n      add\n        /* \"#utility.yul\":2209:2231   */\n      swap1\n      pop\n        /* \"#utility.yul\":2124:2237   */\n      swap2\n      swap1\n      pop\n      jump\t// out\n        /* \"#utility.yul\":2273:3005   */\n    tag_73:\n        /* \"#utility.yul\":2392:2395   */\n      0x00\n        /* \"#utility.yul\":2421:2475   */\n      tag_103\n        /* \"#utility.yul\":2469:2474   */\n      dup3\n        /* \"#utility.yul\":2421:2475   */\n      tag_67\n      jump\t// in\n    tag_103:\n        /* \"#utility.yul\":2491:2577   */\n      tag_104\n        /* \"#utility.yul\":2570:2576   */\n      dup2\n        /* \"#utility.yul\":2565:2568   */\n      dup6\n        /* \"#utility.yul\":2491:2577   */\n      tag_68\n      jump\t// in\n    tag_104:\n        /* \"#utility.yul\":2484:2577   */\n      swap4\n      pop\n        /* \"#utility.yul\":2601:2657   */\n      tag_105\n        /* \"#utility.yul\":2651:2656   */\n      dup4\n        /* \"#utility.yul\":2601:2657   */\n      tag_69\n      jump\t// in\n    tag_105:\n        /* \"#utility.yul\":2680:2687   */\n      dup1\n        /* \"#utility.yul\":2711:2712   */\n      0x00\n        /* \"#utility.yul\":2696:2980   */\n    tag_106:\n        /* \"#utility.yul\":2721:2727   */\n      dup4\n        /* \"#utility.yul\":2718:2719   */\n      dup2\n        /* \"#utility.yul\":2715:2728   */\n      lt\n        /* \"#utility.yul\":2696:2980   */\n      iszero\n      tag_108\n      jumpi\n        /* \"#utility.yul\":2797:2803   */\n      dup2\n        /* \"#utility.yul\":2791:2804   */\n      mload\n        /* \"#utility.yul\":2824:2887   */\n      tag_109\n        /* \"#utility.yul\":2883:2886   */\n      dup9\n        /* \"#utility.yul\":2868:2881   */\n      dup3\n        /* \"#utility.yul\":2824:2887   */\n      tag_71\n      jump\t// in\n    tag_109:\n        /* \"#utility.yul\":2817:2887   */\n      swap8\n      pop\n        /* \"#utility.yul\":2910:2970   */\n      tag_110\n        /* \"#utility.yul\":2963:2969   */\n      dup4\n        /* \"#utility.yul\":2910:2970   */\n      tag_72\n      jump\t// in\n    tag_110:\n        /* \"#utility.yul\":2900:2970   */\n      swap3\n      pop\n        /* \"#utility.yul\":2756:2980   */\n      pop\n        /* \"#utility.yul\":2743:2744   */\n      0x01\n        /* \"#utility.yul\":2740:2741   */\n      dup2\n        /* \"#utility.yul\":2736:2745   */\n      add\n        /* \"#utility.yul\":2731:2745   */\n      swap1\n      pop\n        /* \"#utility.yul\":2696:2980   */\n      jump(tag_106)\n    tag_108:\n        /* \"#utility.yul\":2700:2714   */\n      pop\n        /* \"#utility.yul\":2996:2999   */\n      dup6\n        /* \"#utility.yul\":2989:2999   */\n      swap4\n      pop\n        /* \"#utility.yul\":2397:3005   */\n      pop\n      pop\n      pop\n        /* \"#utility.yul\":2273:3005   */\n      swap3\n      swap2\n      pop\n      pop\n      jump\t// out\n        /* \"#utility.yul\":3011:3384   */\n    tag_26:\n        /* \"#utility.yul\":3154:3158   */\n      0x00\n        /* \"#utility.yul\":3192:3194   */\n      0x20\n        /* \"#utility.yul\":3181:3190   */\n      dup3\n        /* \"#utility.yul\":3177:3195   */\n      add\n        /* \"#utility.yul\":3169:3195   */\n      swap1\n      pop\n        /* \"#utility.yul\":3241:3250   */\n      dup2\n        /* \"#utility.yul\":3235:3239   */\n      dup2\n        /* \"#utility.yul\":3231:3251   */\n      sub\n        /* \"#utility.yul\":3227:3228   */\n      0x00\n        /* \"#utility.yul\":3216:3225   */\n      dup4\n        /* \"#utility.yul\":3212:3229   */\n      add\n        /* \"#utility.yul\":3205:3252   */\n      mstore\n        /* \"#utility.yul\":3269:3377   */\n      tag_112\n        /* \"#utility.yul\":3372:3376   */\n      dup2\n        /* \"#utility.yul\":3363:3369   */\n      dup5\n        /* \"#utility.yul\":3269:3377   */\n      tag_73\n      jump\t// in\n    tag_112:\n        /* \"#utility.yul\":3261:3377   */\n      swap1\n      pop\n        /* \"#utility.yul\":3011:3384   */\n      swap3\n      swap2\n      pop\n      pop\n      jump\t// out\n        /* \"#utility.yul\":3390:3570   */\n    tag_33:\n        /* \"#utility.yul\":3438:3515   */\n      0x4e487b7100000000000000000000000000000000000000000000000000000000\n        /* \"#utility.yul\":3435:3436   */\n      0x00\n        /* \"#utility.yul\":3428:3516   */\n      mstore\n        /* \"#utility.yul\":3535:3539   */\n      0x32\n        /* \"#utility.yul\":3532:3533   */\n      0x04\n        /* \"#utility.yul\":3525:3540   */\n      mstore\n        /* \"#utility.yul\":3559:3563   */\n      0x24\n        /* \"#utility.yul\":3556:3557   */\n      0x00\n        /* \"#utility.yul\":3549:3564   */\n      revert\n        /* \"#utility.yul\":3576:3756   */\n    tag_74:\n        /* \"#utility.yul\":3624:3701   */\n      0x4e487b7100000000000000000000000000000000000000000000000000000000\n        /* \"#utility.yul\":3621:3622   */\n      0x00\n        /* \"#utility.yul\":3614:3702   */\n      mstore\n        /* \"#utility.yul\":3721:3725   */\n      0x11\n        /* \"#utility.yul\":3718:3719   */\n      0x04\n        /* \"#utility.yul\":3711:3726   */\n      mstore\n        /* \"#utility.yul\":3745:3749   */\n      0x24\n        /* \"#utility.yul\":3742:3743   */\n      0x00\n        /* \"#utility.yul\":3735:3750   */\n      revert\n        /* \"#utility.yul\":3762:3953   */\n    tag_36:\n        /* \"#utility.yul\":3802:3805   */\n      0x00\n        /* \"#utility.yul\":3821:3841   */\n      tag_116\n        /* \"#utility.yul\":3839:3840   */\n      dup3\n        /* \"#utility.yul\":3821:3841   */\n      tag_60\n      jump\t// in\n    tag_116:\n        /* \"#utility.yul\":3816:3841   */\n      swap2\n      pop\n        /* \"#utility.yul\":3855:3875   */\n      tag_117\n        /* \"#utility.yul\":3873:3874   */\n      dup4\n        /* \"#utility.yul\":3855:3875   */\n      tag_60\n      jump\t// in\n    tag_117:\n        /* \"#utility.yul\":3850:3875   */\n      swap3\n      pop\n        /* \"#utility.yul\":3898:3899   */\n      dup3\n        /* \"#utility.yul\":3895:3896   */\n      dup3\n        /* \"#utility.yul\":3891:3900   */\n      add\n        /* \"#utility.yul\":3884:3900   */\n      swap1\n      pop\n        /* \"#utility.yul\":3919:3922   */\n      dup1\n        /* \"#utility.yul\":3916:3917   */\n      dup3\n        /* \"#utility.yul\":3913:3923   */\n      gt\n        /* \"#utility.yul\":3910:3946   */\n      iszero\n      tag_118\n      jumpi\n        /* \"#utility.yul\":3926:3944   */\n      tag_119\n      tag_74\n      jump\t// in\n    tag_119:\n        /* \"#utility.yul\":3910:3946   */\n    tag_118:\n        /* \"#utility.yul\":3762:3953   */\n      swap3\n      swap2\n      pop\n      pop\n      jump\t// out\n        /* \"#utility.yul\":3959:4139   */\n    tag_75:\n        /* \"#utility.yul\":4007:4084   */\n      0x4e487b7100000000000000000000000000000000000000000000000000000000\n        /* \"#utility.yul\":4004:4005   */\n      0x00\n        /* \"#utility.yul\":3997:4085   */\n      mstore\n        /* \"#utility.yul\":4104:4108   */\n      0x12\n        /* \"#utility.yul\":4101:4102   */\n      0x04\n        /* \"#utility.yul\":4094:4109   */\n      mstore\n        /* \"#utility.yul\":4128:4132   */\n      0x24\n        /* \"#utility.yul\":4125:4126   */\n      0x00\n        /* \"#utility.yul\":4118:4133   */\n      revert\n        /* \"#utility.yul\":4145:4330   */\n    tag_38:\n        /* \"#utility.yul\":4185:4186   */\n      0x00\n        /* \"#utility.yul\":4202:4222   */\n      tag_122\n        /* \"#utility.yul\":4220:4221   */\n      dup3\n        /* \"#utility.yul\":4202:4222   */\n      tag_60\n      jump\t// in\n    tag_122:\n        /* \"#utility.yul\":4197:4222   */\n      swap2\n      pop\n        /* \"#utility.yul\":4236:4256   */\n      tag_123\n        /* \"#utility.yul\":4254:4255   */\n      dup4\n        /* \"#utility.yul\":4236:4256   */\n      tag_60\n      jump\t// in\n    tag_123:\n        /* \"#utility.yul\":4231:4256   */\n      swap3\n      pop\n        /* \"#utility.yul\":4275:4276   */\n      dup3\n        /* \"#utility.yul\":4265:4300   */\n      tag_124\n      jumpi\n        /* \"#utility.yul\":4280:4298   */\n      tag_125\n      tag_75\n      jump\t// in\n    tag_125:\n        /* \"#utility.yul\":4265:4300   */\n    tag_124:\n        /* \"#utility.yul\":4322:4323   */\n      dup3\n        /* \"#utility.yul\":4319:4320   */\n      dup3\n        /* \"#utility.yul\":4315:4324   */\n      div\n        /* \"#utility.yul\":4310:4324   */\n      swap1\n      pop\n        /* \"#utility.yul\":4145:4330   */\n      swap3\n      swap2\n      pop\n      pop\n      jump\t// out\n        /* \"#utility.yul\":4336:4530   */\n    tag_43:\n        /* \"#utility.yul\":4376:4380   */\n      0x00\n        /* \"#utility.yul\":4396:4416   */\n      tag_127\n        /* \"#utility.yul\":4414:4415   */\n      dup3\n        /* \"#utility.yul\":4396:4416   */\n      tag_60\n      jump\t// in\n    tag_127:\n        /* \"#utility.yul\":4391:4416   */\n      swap2\n      pop\n        /* \"#utility.yul\":4430:4450   */\n      tag_128\n        /* \"#utility.yul\":4448:4449   */\n      dup4\n        /* \"#utility.yul\":4430:4450   */\n      tag_60\n      jump\t// in\n    tag_128:\n        /* \"#utility.yul\":4425:4450   */\n      swap3\n      pop\n        /* \"#utility.yul\":4474:4475   */\n      dup3\n        /* \"#utility.yul\":4471:4472   */\n      dup3\n        /* \"#utility.yul\":4467:4476   */\n      sub\n        /* \"#utility.yul\":4459:4476   */\n      swap1\n      pop\n        /* \"#utility.yul\":4498:4499   */\n      dup2\n        /* \"#utility.yul\":4492:4496   */\n      dup2\n        /* \"#utility.yul\":4489:4500   */\n      gt\n        /* \"#utility.yul\":4486:4523   */\n      iszero\n      tag_129\n      jumpi\n        /* \"#utility.yul\":4503:4521   */\n      tag_130\n      tag_74\n      jump\t// in\n    tag_130:\n        /* \"#utility.yul\":4486:4523   */\n    tag_129:\n        /* \"#utility.yul\":4336:4530   */\n      swap3\n      swap2\n      pop\n      pop\n      jump\t// out\n\n    auxdata: 0xa264697066735822122034fe76714cb067f98b22d8a61f217dde52b89b97678cdaef2ab97c0975add5ee64736f6c63430008170033\n}\n",
				"bytecode": {
					"linkReferences": {},
					"object": "608060405234801561000f575f80fd5b506105318061001d5f395ff3fe608060405234801561000f575f80fd5b5060043610610055575f3560e01c806321055acb146100595780632bfe1805146100775780633913922514610093578063a8741db1146100c3578063d504ea1d146100e1575b5f80fd5b6100616100ff565b60405161006e9190610295565b60405180910390f35b610091600480360381019061008c91906102dc565b61015f565b005b6100ad60048036038101906100a891906102dc565b610187565b6040516100ba9190610295565b60405180910390f35b6100cb6101b7565b6040516100d89190610295565b60405180910390f35b6100e9610228565b6040516100f691906103be565b60405180910390f35b5f805f90505f5b5f80549050811015610148575f8181548110610125576101246103de565b5b905f5260205f200154826101399190610438565b91508080600101915050610106565b505f80549050816101599190610498565b91505090565b5f81908060018154018082558091505060019003905f5260205f20015f909190919091505550565b5f8060018361019691906104c8565b815481106101a7576101a66103de565b5b905f5260205f2001549050919050565b5f805f90505f600190505b60015f805490506101d39190610438565b811015610211575f6001815481106101ee576101ed6103de565b5b905f5260205f200154826102029190610438565b915080806001019150506101c2565b505f80549050816102229190610498565b91505090565b60605f80548060200260200160405190810160405280929190818152602001828054801561027357602002820191905f5260205f20905b81548152602001906001019080831161025f575b5050505050905090565b5f819050919050565b61028f8161027d565b82525050565b5f6020820190506102a85f830184610286565b92915050565b5f80fd5b6102bb8161027d565b81146102c5575f80fd5b50565b5f813590506102d6816102b2565b92915050565b5f602082840312156102f1576102f06102ae565b5b5f6102fe848285016102c8565b91505092915050565b5f81519050919050565b5f82825260208201905092915050565b5f819050602082019050919050565b6103398161027d565b82525050565b5f61034a8383610330565b60208301905092915050565b5f602082019050919050565b5f61036c82610307565b6103768185610311565b935061038183610321565b805f5b838110156103b1578151610398888261033f565b97506103a383610356565b925050600181019050610384565b5085935050505092915050565b5f6020820190508181035f8301526103d68184610362565b905092915050565b7f4e487b71000000000000000000000000000000000000000000000000000000005f52603260045260245ffd5b7f4e487b71000000000000000000000000000000000000000000000000000000005f52601160045260245ffd5b5f6104428261027d565b915061044d8361027d565b92508282019050808211156104655761046461040b565b5b92915050565b7f4e487b71000000000000000000000000000000000000000000000000000000005f52601260045260245ffd5b5f6104a28261027d565b91506104ad8361027d565b9250826104bd576104bc61046b565b5b828204905092915050565b5f6104d28261027d565b91506104dd8361027d565b92508282039050818111156104f5576104f461040b565b5b9291505056fea264697066735822122034fe76714cb067f98b22d8a61f217dde52b89b97678cdaef2ab97c0975add5ee64736f6c63430008170033",
					"opcodes": "PUSH1 0x80 PUSH1 0x40 MSTORE CALLVALUE DUP1 ISZERO PUSH2 0xF JUMPI PUSH0 DUP1 REVERT JUMPDEST POP PUSH2 0x531 DUP1 PUSH2 0x1D PUSH0 CODECOPY PUSH0 RETURN INVALID PUSH1 0x80 PUSH1 0x40 MSTORE CALLVALUE DUP1 ISZERO PUSH2 0xF JUMPI PUSH0 DUP1 REVERT JUMPDEST POP PUSH1 0x4 CALLDATASIZE LT PUSH2 0x55 JUMPI PUSH0 CALLDATALOAD PUSH1 0xE0 SHR DUP1 PUSH4 0x21055ACB EQ PUSH2 0x59 JUMPI DUP1 PUSH4 0x2BFE1805 EQ PUSH2 0x77 JUMPI DUP1 PUSH4 0x39139225 EQ PUSH2 0x93 JUMPI DUP1 PUSH4 0xA8741DB1 EQ PUSH2 0xC3 JUMPI DUP1 PUSH4 0xD504EA1D EQ PUSH2 0xE1 JUMPI JUMPDEST PUSH0 DUP1 REVERT JUMPDEST PUSH2 0x61 PUSH2 0xFF JUMP JUMPDEST PUSH1 0x40 MLOAD PUSH2 0x6E SWAP2 SWAP1 PUSH2 0x295 JUMP JUMPDEST PUSH1 0x40 MLOAD DUP1 SWAP2 SUB SWAP1 RETURN JUMPDEST PUSH2 0x91 PUSH1 0x4 DUP1 CALLDATASIZE SUB DUP2 ADD SWAP1 PUSH2 0x8C SWAP2 SWAP1 PUSH2 0x2DC JUMP JUMPDEST PUSH2 0x15F JUMP JUMPDEST STOP JUMPDEST PUSH2 0xAD PUSH1 0x4 DUP1 CALLDATASIZE SUB DUP2 ADD SWAP1 PUSH2 0xA8 SWAP2 SWAP1 PUSH2 0x2DC JUMP JUMPDEST PUSH2 0x187 JUMP JUMPDEST PUSH1 0x40 MLOAD PUSH2 0xBA SWAP2 SWAP1 PUSH2 0x295 JUMP JUMPDEST PUSH1 0x40 MLOAD DUP1 SWAP2 SUB SWAP1 RETURN JUMPDEST PUSH2 0xCB PUSH2 0x1B7 JUMP JUMPDEST PUSH1 0x40 MLOAD PUSH2 0xD8 SWAP2 SWAP1 PUSH2 0x295 JUMP JUMPDEST PUSH1 0x40 MLOAD DUP1 SWAP2 SUB SWAP1 RETURN JUMPDEST PUSH2 0xE9 PUSH2 0x228 JUMP JUMPDEST PUSH1 0x40 MLOAD PUSH2 0xF6 SWAP2 SWAP1 PUSH2 0x3BE JUMP JUMPDEST PUSH1 0x40 MLOAD DUP1 SWAP2 SUB SWAP1 RETURN JUMPDEST PUSH0 DUP1 PUSH0 SWAP1 POP PUSH0 JUMPDEST PUSH0 DUP1 SLOAD SWAP1 POP DUP2 LT ISZERO PUSH2 0x148 JUMPI PUSH0 DUP2 DUP2 SLOAD DUP2 LT PUSH2 0x125 JUMPI PUSH2 0x124 PUSH2 0x3DE JUMP JUMPDEST JUMPDEST SWAP1 PUSH0 MSTORE PUSH1 0x20 PUSH0 KECCAK256 ADD SLOAD DUP3 PUSH2 0x139 SWAP2 SWAP1 PUSH2 0x438 JUMP JUMPDEST SWAP2 POP DUP1 DUP1 PUSH1 0x1 ADD SWAP2 POP POP PUSH2 0x106 JUMP JUMPDEST POP PUSH0 DUP1 SLOAD SWAP1 POP DUP2 PUSH2 0x159 SWAP2 SWAP1 PUSH2 0x498 JUMP JUMPDEST SWAP2 POP POP SWAP1 JUMP JUMPDEST PUSH0 DUP2 SWAP1 DUP1 PUSH1 0x1 DUP2 SLOAD ADD DUP1 DUP3 SSTORE DUP1 SWAP2 POP POP PUSH1 0x1 SWAP1 SUB SWAP1 PUSH0 MSTORE PUSH1 0x20 PUSH0 KECCAK256 ADD PUSH0 SWAP1 SWAP2 SWAP1 SWAP2 SWAP1 SWAP2 POP SSTORE POP JUMP JUMPDEST PUSH0 DUP1 PUSH1 0x1 DUP4 PUSH2 0x196 SWAP2 SWAP1 PUSH2 0x4C8 JUMP JUMPDEST DUP2 SLOAD DUP2 LT PUSH2 0x1A7 JUMPI PUSH2 0x1A6 PUSH2 0x3DE JUMP JUMPDEST JUMPDEST SWAP1 PUSH0 MSTORE PUSH1 0x20 PUSH0 KECCAK256 ADD SLOAD SWAP1 POP SWAP2 SWAP1 POP JUMP JUMPDEST PUSH0 DUP1 PUSH0 SWAP1 POP PUSH0 PUSH1 0x1 SWAP1 POP JUMPDEST PUSH1 0x1 PUSH0 DUP1 SLOAD SWAP1 POP PUSH2 0x1D3 SWAP2 SWAP1 PUSH2 0x438 JUMP JUMPDEST DUP2 LT ISZERO PUSH2 0x211 JUMPI PUSH0 PUSH1 0x1 DUP2 SLOAD DUP2 LT PUSH2 0x1EE JUMPI PUSH2 0x1ED PUSH2 0x3DE JUMP JUMPDEST JUMPDEST SWAP1 PUSH0 MSTORE PUSH1 0x20 PUSH0 KECCAK256 ADD SLOAD DUP3 PUSH2 0x202 SWAP2 SWAP1 PUSH2 0x438 JUMP JUMPDEST SWAP2 POP DUP1 DUP1 PUSH1 0x1 ADD SWAP2 POP POP PUSH2 0x1C2 JUMP JUMPDEST POP PUSH0 DUP1 SLOAD SWAP1 POP DUP2 PUSH2 0x222 SWAP2 SWAP1 PUSH2 0x498 JUMP JUMPDEST SWAP2 POP POP SWAP1 JUMP JUMPDEST PUSH1 0x60 PUSH0 DUP1 SLOAD DUP1 PUSH1 0x20 MUL PUSH1 0x20 ADD PUSH1 0x40 MLOAD SWAP1 DUP2 ADD PUSH1 0x40 MSTORE DUP1 SWAP3 SWAP2 SWAP1 DUP2 DUP2 MSTORE PUSH1 0x20 ADD DUP3 DUP1 SLOAD DUP1 ISZERO PUSH2 0x273 JUMPI PUSH1 0x20 MUL DUP3 ADD SWAP2 SWAP1 PUSH0 MSTORE PUSH1 0x20 PUSH0 KECCAK256 SWAP1 JUMPDEST DUP2 SLOAD DUP2 MSTORE PUSH1 0x20 ADD SWAP1 PUSH1 0x1 ADD SWAP1 DUP1 DUP4 GT PUSH2 0x25F JUMPI JUMPDEST POP POP POP POP POP SWAP1 POP SWAP1 JUMP JUMPDEST PUSH0 DUP2 SWAP1 POP SWAP2 SWAP1 POP JUMP JUMPDEST PUSH2 0x28F DUP2 PUSH2 0x27D JUMP JUMPDEST DUP3 MSTORE POP POP JUMP JUMPDEST PUSH0 PUSH1 0x20 DUP3 ADD SWAP1 POP PUSH2 0x2A8 PUSH0 DUP4 ADD DUP5 PUSH2 0x286 JUMP JUMPDEST SWAP3 SWAP2 POP POP JUMP JUMPDEST PUSH0 DUP1 REVERT JUMPDEST PUSH2 0x2BB DUP2 PUSH2 0x27D JUMP JUMPDEST DUP2 EQ PUSH2 0x2C5 JUMPI PUSH0 DUP1 REVERT JUMPDEST POP JUMP JUMPDEST PUSH0 DUP2 CALLDATALOAD SWAP1 POP PUSH2 0x2D6 DUP2 PUSH2 0x2B2 JUMP JUMPDEST SWAP3 SWAP2 POP POP JUMP JUMPDEST PUSH0 PUSH1 0x20 DUP3 DUP5 SUB SLT ISZERO PUSH2 0x2F1 JUMPI PUSH2 0x2F0 PUSH2 0x2AE JUMP JUMPDEST JUMPDEST PUSH0 PUSH2 0x2FE DUP5 DUP3 DUP6 ADD PUSH2 0x2C8 JUMP JUMPDEST SWAP2 POP POP SWAP3 SWAP2 POP POP JUMP JUMPDEST PUSH0 DUP2 MLOAD SWAP1 POP SWAP2 SWAP1 POP JUMP JUMPDEST PUSH0 DUP3 DUP3 MSTORE PUSH1 0x20 DUP3 ADD SWAP1 POP SWAP3 SWAP2 POP POP JUMP JUMPDEST PUSH0 DUP2 SWAP1 POP PUSH1 0x20 DUP3 ADD SWAP1 POP SWAP2 SWAP1 POP JUMP JUMPDEST PUSH2 0x339 DUP2 PUSH2 0x27D JUMP JUMPDEST DUP3 MSTORE POP POP JUMP JUMPDEST PUSH0 PUSH2 0x34A DUP4 DUP4 PUSH2 0x330 JUMP JUMPDEST PUSH1 0x20 DUP4 ADD SWAP1 POP SWAP3 SWAP2 POP POP JUMP JUMPDEST PUSH0 PUSH1 0x20 DUP3 ADD SWAP1 POP SWAP2 SWAP1 POP JUMP JUMPDEST PUSH0 PUSH2 0x36C DUP3 PUSH2 0x307 JUMP JUMPDEST PUSH2 0x376 DUP2 DUP6 PUSH2 0x311 JUMP JUMPDEST SWAP4 POP PUSH2 0x381 DUP4 PUSH2 0x321 JUMP JUMPDEST DUP1 PUSH0 JUMPDEST DUP4 DUP2 LT ISZERO PUSH2 0x3B1 JUMPI DUP2 MLOAD PUSH2 0x398 DUP9 DUP3 PUSH2 0x33F JUMP JUMPDEST SWAP8 POP PUSH2 0x3A3 DUP4 PUSH2 0x356 JUMP JUMPDEST SWAP3 POP POP PUSH1 0x1 DUP2 ADD SWAP1 POP PUSH2 0x384 JUMP JUMPDEST POP DUP6 SWAP4 POP POP POP POP SWAP3 SWAP2 POP POP JUMP JUMPDEST PUSH0 PUSH1 0x20 DUP3 ADD SWAP1 POP DUP2 DUP2 SUB PUSH0 DUP4 ADD MSTORE PUSH2 0x3D6 DUP2 DUP5 PUSH2 0x362 JUMP JUMPDEST SWAP1 POP SWAP3 SWAP2 POP POP JUMP JUMPDEST PUSH32 0x4E487B7100000000000000000000000000000000000000000000000000000000 PUSH0 MSTORE PUSH1 0x32 PUSH1 0x4 MSTORE PUSH1 0x24 PUSH0 REVERT JUMPDEST PUSH32 0x4E487B7100000000000000000000000000000000000000000000000000000000 PUSH0 MSTORE PUSH1 0x11 PUSH1 0x4 MSTORE PUSH1 0x24 PUSH0 REVERT JUMPDEST PUSH0 PUSH2 0x442 DUP3 PUSH2 0x27D JUMP JUMPDEST SWAP2 POP PUSH2 0x44D DUP4 PUSH2 0x27D JUMP JUMPDEST SWAP3 POP DUP3 DUP3 ADD SWAP1 POP DUP1 DUP3 GT ISZERO PUSH2 0x465 JUMPI PUSH2 0x464 PUSH2 0x40B JUMP JUMPDEST JUMPDEST SWAP3 SWAP2 POP POP JUMP JUMPDEST PUSH32 0x4E487B7100000000000000000000000000000000000000000000000000000000 PUSH0 MSTORE PUSH1 0x12 PUSH1 0x4 MSTORE PUSH1 0x24 PUSH0 REVERT JUMPDEST PUSH0 PUSH2 0x4A2 DUP3 PUSH2 0x27D JUMP JUMPDEST SWAP2 POP PUSH2 0x4AD DUP4 PUSH2 0x27D JUMP JUMPDEST SWAP3 POP DUP3 PUSH2 0x4BD JUMPI PUSH2 0x4BC PUSH2 0x46B JUMP JUMPDEST JUMPDEST DUP3 DUP3 DIV SWAP1 POP SWAP3 SWAP2 POP POP JUMP JUMPDEST PUSH0 PUSH2 0x4D2 DUP3 PUSH2 0x27D JUMP JUMPDEST SWAP2 POP PUSH2 0x4DD DUP4 PUSH2 0x27D JUMP JUMPDEST SWAP3 POP DUP3 DUP3 SUB SWAP1 POP DUP2 DUP2 GT ISZERO PUSH2 0x4F5 JUMPI PUSH2 0x4F4 PUSH2 0x40B JUMP JUMPDEST JUMPDEST SWAP3 SWAP2 POP POP JUMP INVALID LOG2 PUSH5 0x6970667358 0x22 SLT KECCAK256 CALLVALUE INVALID PUSH23 0x714CB067F98B22D8A61F217DDE52B89B97678CDAEF2AB9 PUSH29 0x975ADD5EE64736F6C6343000817003300000000000000000000000000 "
				},
				"gasEstimates": {
					"creation": {
						"codeDepositCost": "265800",
						"executionCost": "304",
						"totalCost": "266104"
					},
					"external": {
						"getArray()": "infinite",
						"getAverage()": "infinite",
						"getAverage2()": "infinite",
						"getN(uint256)": "infinite",
						"pushNumber(uint256)": "46820"
					}
				},
				"methodIdentifiers": {
					"getArray()": "d504ea1d",
					"getAverage()": "21055acb",
					"getAverage2()": "a8741db1",
					"getN(uint256)": "39139225",
					"pushNumber(uint256)": "2bfe1805"
				}
			},
			"storageLayout": {
				"storage": [
					{
						"astId": 4,
						"contract": "a.sol:A",
						"label": "numbers",
						"offset": 0,
						"slot": "0",
						"type": "t_array(t_uint256)dyn_storage"
					}
				],
				"types": {
					"t_array(t_uint256)dyn_storage": {
						"base": "t_uint256",
						"encoding": "dynamic_array",
						"label": "uint256[]",
						"numberOfBytes": "32"
					},
					"t_uint256": {
						"encoding": "inplace",
						"label": "uint256",
						"numberOfBytes": "32"
					}
				}
			},
			"userdoc": {
				"kind": "user",
				"methods": {},
				"version": 1
			}
		}
	}
}