{
	"average.sol": {
		"Average": {
			"abi": [
				{
					"inputs": [],
					"name": "getArray",
					"outputs": [
						{
							"internalType": "uint256[]",
							"name": "",
							"type": "uint256[]"
						}
					],
					"stateMutability": "view",
					"type": "function"
				},
				{
					"inputs": [],
					"name": "getAverage",
					"outputs": [
						{
							"internalType": "uint256",
							"name": "",
							"type": "uint256"
						}
					],
					"stateMutability": "view",
					"type": "function"
				},
				{
					"inputs": [],
					"name": "getAverage2",
					"outputs": [
						{
							"internalType": "uint256",
							"name": "",
							"type": "uint256"
						}
					],
					"stateMutability": "view",
					"type": "function"
				},
				{
					"inputs": [
						{
							"internalType": "uint256",
							"name": "_n",
							"type": "uint256"
						}
					],
					"name": "getN",
					"outputs": [
						{
							"internalType": "uint256",
							"name": "",
							"type": "uint256"
						}
					],
					"stateMutability": "view",
					"type": "function"
				},
				{
					"inputs": [],
					"name": "getNmultiple",
					"outputs": [
						{
							"internalType": "uint256[]",
							"name": "",
							"type": "uint256[]"
						}
					],
					"stateMutability": "view",
					"type": "function"
				},
				{
					"inputs": [
						{
							"internalType": "uint256",
							"name": "_n",
							"type": "uint256"
						}
					],
					"name": "pushNumber",
					"outputs": [],
					"stateMutability": "nonpayable",
					"type": "function"
				}
			],
			"devdoc": {
				"kind": "dev",
				"methods": {},
				"version": 1
			},
			"evm": {
				"assembly": "    /* \"average.sol\":58:1279  contract Average {... */\n  mstore(0x40, 0x80)\n  callvalue\n  dup1\n  iszero\n  tag_1\n  jumpi\n  0x00\n  dup1\n  revert\ntag_1:\n  pop\n  dataSize(sub_0)\n  dup1\n  dataOffset(sub_0)\n  0x00\n  codecopy\n  0x00\n  return\nstop\n\nsub_0: assembly {\n        /* \"average.sol\":58:1279  contract Average {... */\n      mstore(0x40, 0x80)\n      callvalue\n      dup1\n      iszero\n      tag_1\n      jumpi\n      0x00\n      dup1\n      revert\n    tag_1:\n      pop\n      jumpi(tag_2, lt(calldatasize, 0x04))\n      shr(0xe0, calldataload(0x00))\n      dup1\n      0x21055acb\n      eq\n      tag_3\n      jumpi\n      dup1\n      0x2bfe1805\n      eq\n      tag_4\n      jumpi\n      dup1\n      0x39139225\n      eq\n      tag_5\n      jumpi\n      dup1\n      0x51e00531\n      eq\n      tag_6\n      jumpi\n      dup1\n      0xa8741db1\n      eq\n      tag_7\n      jumpi\n      dup1\n      0xd504ea1d\n      eq\n      tag_8\n      jumpi\n    tag_2:\n      0x00\n      dup1\n      revert\n        /* \"average.sol\":362:594  function getAverage() public view returns(uint) {... */\n    tag_3:\n      tag_9\n      tag_10\n      jump\t// in\n    tag_9:\n      mload(0x40)\n      tag_11\n      swap2\n      swap1\n      tag_12\n      jump\t// in\n    tag_11:\n      mload(0x40)\n      dup1\n      swap2\n      sub\n      swap1\n      return\n        /* \"average.sol\":102:171  function pushNumber(uint _n) public {... */\n    tag_4:\n      tag_13\n      0x04\n      dup1\n      calldatasize\n      sub\n      dup2\n      add\n      swap1\n      tag_14\n      swap2\n      swap1\n      tag_15\n      jump\t// in\n    tag_14:\n      tag_16\n      jump\t// in\n    tag_13:\n      stop\n        /* \"average.sol\":269:356  function getN(uint _n) public view returns(uint) {... */\n    tag_5:\n      tag_17\n      0x04\n      dup1\n      calldatasize\n      sub\n      dup2\n      add\n      swap1\n      tag_18\n      swap2\n      swap1\n      tag_15\n      jump\t// in\n    tag_18:\n      tag_19\n      jump\t// in\n    tag_17:\n      mload(0x40)\n      tag_20\n      swap2\n      swap1\n      tag_12\n      jump\t// in\n    tag_20:\n      mload(0x40)\n      dup1\n      swap2\n      sub\n      swap1\n      return\n        /* \"average.sol\":822:1276  function getNmultiple() public view returns(uint[] memory) { // 지역 변수로 array 만들 때. ... */\n    tag_6:\n      tag_21\n      tag_22\n      jump\t// in\n    tag_21:\n      mload(0x40)\n      tag_23\n      swap2\n      swap1\n      tag_24\n      jump\t// in\n    tag_23:\n      mload(0x40)\n      dup1\n      swap2\n      sub\n      swap1\n      return\n        /* \"average.sol\":600:816  function getAverage2()  public view returns(uint) {... */\n    tag_7:\n      tag_25\n      tag_26\n      jump\t// in\n    tag_25:\n      mload(0x40)\n      tag_27\n      swap2\n      swap1\n      tag_12\n      jump\t// in\n    tag_27:\n      mload(0x40)\n      dup1\n      swap2\n      sub\n      swap1\n      return\n        /* \"average.sol\":177:263  function getArray() public view returns(uint[] memory) {... */\n    tag_8:\n      tag_28\n      tag_29\n      jump\t// in\n    tag_28:\n      mload(0x40)\n      tag_30\n      swap2\n      swap1\n      tag_24\n      jump\t// in\n    tag_30:\n      mload(0x40)\n      dup1\n      swap2\n      sub\n      swap1\n      return\n        /* \"average.sol\":362:594  function getAverage() public view returns(uint) {... */\n    tag_10:\n        /* \"average.sol\":404:408  uint */\n      0x00\n        /* \"average.sol\":421:429  uint sum */\n      dup1\n        /* \"average.sol\":432:433  0 */\n      0x00\n        /* \"average.sol\":421:433  uint sum = 0 */\n      swap1\n      pop\n        /* \"average.sol\":448:454  uint i */\n      0x00\n        /* \"average.sol\":444:552  for(uint i = 0; i < numbers.length; i++) {... */\n    tag_32:\n        /* \"average.sol\":464:471  numbers */\n      0x00\n        /* \"average.sol\":464:478  numbers.length */\n      dup1\n      sload\n      swap1\n      pop\n        /* \"average.sol\":460:461  i */\n      dup2\n        /* \"average.sol\":460:478  i < numbers.length */\n      lt\n        /* \"average.sol\":444:552  for(uint i = 0; i < numbers.length; i++) {... */\n      iszero\n      tag_33\n      jumpi\n        /* \"average.sol\":511:518  numbers */\n      0x00\n        /* \"average.sol\":519:520  i */\n      dup2\n        /* \"average.sol\":511:521  numbers[i] */\n      dup2\n      sload\n      dup2\n      lt\n      tag_35\n      jumpi\n      tag_36\n      tag_37\n      jump\t// in\n    tag_36:\n    tag_35:\n      swap1\n      0x00\n      mstore\n      keccak256(0x00, 0x20)\n      add\n      sload\n        /* \"average.sol\":505:508  sum */\n      dup3\n        /* \"average.sol\":505:521  sum + numbers[i] */\n      tag_39\n      swap2\n      swap1\n      tag_40\n      jump\t// in\n    tag_39:\n        /* \"average.sol\":499:521  sum = sum + numbers[i] */\n      swap2\n      pop\n        /* \"average.sol\":480:483  i++ */\n      dup1\n      dup1\n      0x01\n      add\n      swap2\n      pop\n      pop\n        /* \"average.sol\":444:552  for(uint i = 0; i < numbers.length; i++) {... */\n      jump(tag_32)\n    tag_33:\n      pop\n        /* \"average.sol\":573:580  numbers */\n      0x00\n        /* \"average.sol\":573:587  numbers.length */\n      dup1\n      sload\n      swap1\n      pop\n        /* \"average.sol\":569:572  sum */\n      dup2\n        /* \"average.sol\":569:587  sum/numbers.length */\n      tag_41\n      swap2\n      swap1\n      tag_42\n      jump\t// in\n    tag_41:\n        /* \"average.sol\":562:587  return sum/numbers.length */\n      swap2\n      pop\n      pop\n        /* \"average.sol\":362:594  function getAverage() public view returns(uint) {... */\n      swap1\n      jump\t// out\n        /* \"average.sol\":102:171  function pushNumber(uint _n) public {... */\n    tag_16:\n        /* \"average.sol\":148:155  numbers */\n      0x00\n        /* \"average.sol\":161:163  _n */\n      dup2\n        /* \"average.sol\":148:164  numbers.push(_n) */\n      swap1\n      dup1\n      0x01\n      dup2\n      sload\n      add\n      dup1\n      dup3\n      sstore\n      dup1\n      swap2\n      pop\n      pop\n      0x01\n      swap1\n      sub\n      swap1\n      0x00\n      mstore\n      keccak256(0x00, 0x20)\n      add\n      0x00\n      swap1\n      swap2\n      swap1\n      swap2\n      swap1\n      swap2\n      pop\n      sstore\n        /* \"average.sol\":102:171  function pushNumber(uint _n) public {... */\n      pop\n      jump\t// out\n        /* \"average.sol\":269:356  function getN(uint _n) public view returns(uint) {... */\n    tag_19:\n        /* \"average.sol\":312:316  uint */\n      0x00\n        /* \"average.sol\":335:342  numbers */\n      dup1\n        /* \"average.sol\":347:348  1 */\n      0x01\n        /* \"average.sol\":343:345  _n */\n      dup4\n        /* \"average.sol\":343:348  _n -1 */\n      tag_46\n      swap2\n      swap1\n      tag_47\n      jump\t// in\n    tag_46:\n        /* \"average.sol\":335:349  numbers[_n -1] */\n      dup2\n      sload\n      dup2\n      lt\n      tag_48\n      jumpi\n      tag_49\n      tag_37\n      jump\t// in\n    tag_49:\n    tag_48:\n      swap1\n      0x00\n      mstore\n      keccak256(0x00, 0x20)\n      add\n      sload\n        /* \"average.sol\":328:349  return numbers[_n -1] */\n      swap1\n      pop\n        /* \"average.sol\":269:356  function getN(uint _n) public view returns(uint) {... */\n      swap2\n      swap1\n      pop\n      jump\t// out\n        /* \"average.sol\":822:1276  function getNmultiple() public view returns(uint[] memory) { // 지역 변수로 array 만들 때. ... */\n    tag_22:\n        /* \"average.sol\":866:879  uint[] memory */\n      0x60\n        /* \"average.sol\":932:950  uint[] memory temp */\n      0x00\n        /* \"average.sol\":964:966  10 */\n      0x0a\n        /* \"average.sol\":953:967  new uint[](10) */\n      0xffffffffffffffff\n      dup2\n      gt\n      iszero\n      tag_52\n      jumpi\n      tag_53\n      tag_54\n      jump\t// in\n    tag_53:\n    tag_52:\n      mload(0x40)\n      swap1\n      dup1\n      dup3\n      mstore\n      dup1\n      0x20\n      mul\n      0x20\n      add\n      dup3\n      add\n      0x40\n      mstore\n      dup1\n      iszero\n      tag_55\n      jumpi\n      dup2\n      0x20\n      add\n      0x20\n      dup3\n      mul\n      dup1\n      calldatasize\n      dup4\n      calldatacopy\n      dup1\n      dup3\n      add\n      swap2\n      pop\n      pop\n      swap1\n      pop\n    tag_55:\n      pop\n        /* \"average.sol\":932:967  uint[] memory temp = new uint[](10) */\n      swap1\n      pop\n        /* \"average.sol\":1050:1060  uint index */\n      0x00\n        /* \"average.sol\":1076:1082  uint i */\n      dup1\n        /* \"average.sol\":1085:1086  0 */\n      0x00\n        /* \"average.sol\":1076:1086  uint i = 0 */\n      swap1\n      pop\n        /* \"average.sol\":1072:1248  for(uint i = 0; i < numbers.length; i++) {... */\n    tag_56:\n        /* \"average.sol\":1092:1099  numbers */\n      0x00\n        /* \"average.sol\":1092:1106  numbers.length */\n      dup1\n      sload\n      swap1\n      pop\n        /* \"average.sol\":1088:1089  i */\n      dup2\n        /* \"average.sol\":1088:1106  i < numbers.length */\n      lt\n        /* \"average.sol\":1072:1248  for(uint i = 0; i < numbers.length; i++) {... */\n      iszero\n      tag_57\n      jumpi\n        /* \"average.sol\":1162:1163  0 */\n      0x00\n        /* \"average.sol\":1157:1158  2 */\n      0x02\n        /* \"average.sol\":1144:1151  numbers */\n      0x00\n        /* \"average.sol\":1152:1153  i */\n      dup4\n        /* \"average.sol\":1144:1154  numbers[i] */\n      dup2\n      sload\n      dup2\n      lt\n      tag_59\n      jumpi\n      tag_60\n      tag_37\n      jump\t// in\n    tag_60:\n    tag_59:\n      swap1\n      0x00\n      mstore\n      keccak256(0x00, 0x20)\n      add\n      sload\n        /* \"average.sol\":1144:1158  numbers[i] % 2 */\n      tag_62\n      swap2\n      swap1\n      tag_63\n      jump\t// in\n    tag_62:\n        /* \"average.sol\":1144:1163  numbers[i] % 2 == 0 */\n      sub\n        /* \"average.sol\":1141:1238  if(numbers[i] % 2 == 0) {... */\n      tag_64\n      jumpi\n        /* \"average.sol\":1193:1200  numbers */\n      0x00\n        /* \"average.sol\":1201:1202  i */\n      dup2\n        /* \"average.sol\":1193:1203  numbers[i] */\n      dup2\n      sload\n      dup2\n      lt\n      tag_65\n      jumpi\n      tag_66\n      tag_37\n      jump\t// in\n    tag_66:\n    tag_65:\n      swap1\n      0x00\n      mstore\n      keccak256(0x00, 0x20)\n      add\n      sload\n        /* \"average.sol\":1179:1183  temp */\n      dup4\n        /* \"average.sol\":1184:1189  index */\n      dup4\n        /* \"average.sol\":1179:1190  temp[index] */\n      dup2\n      mload\n      dup2\n      lt\n      tag_68\n      jumpi\n      tag_69\n      tag_37\n      jump\t// in\n    tag_69:\n    tag_68:\n      0x20\n      mul\n      0x20\n      add\n      add\n        /* \"average.sol\":1179:1203  temp[index] = numbers[i] */\n      dup2\n      dup2\n      mstore\n      pop\n      pop\n        /* \"average.sol\":1217:1224  index++ */\n      dup2\n      dup1\n      tag_70\n      swap1\n      tag_71\n      jump\t// in\n    tag_70:\n      swap3\n      pop\n      pop\n        /* \"average.sol\":1141:1238  if(numbers[i] % 2 == 0) {... */\n    tag_64:\n        /* \"average.sol\":1108:1111  i++ */\n      dup1\n      dup1\n      0x01\n      add\n      swap2\n      pop\n      pop\n        /* \"average.sol\":1072:1248  for(uint i = 0; i < numbers.length; i++) {... */\n      jump(tag_56)\n    tag_57:\n      pop\n        /* \"average.sol\":1265:1269  temp */\n      dup2\n        /* \"average.sol\":1258:1269  return temp */\n      swap3\n      pop\n      pop\n      pop\n        /* \"average.sol\":822:1276  function getNmultiple() public view returns(uint[] memory) { // 지역 변수로 array 만들 때. ... */\n      swap1\n      jump\t// out\n        /* \"average.sol\":600:816  function getAverage2()  public view returns(uint) {... */\n    tag_26:\n        /* \"average.sol\":644:648  uint */\n      0x00\n        /* \"average.sol\":667:675  uint sum */\n      dup1\n        /* \"average.sol\":678:679  0 */\n      0x00\n        /* \"average.sol\":667:679  uint sum = 0 */\n      swap1\n      pop\n        /* \"average.sol\":693:699  uint i */\n      0x00\n        /* \"average.sol\":702:703  1 */\n      0x01\n        /* \"average.sol\":693:703  uint i = 1 */\n      swap1\n      pop\n        /* \"average.sol\":689:775  for(uint i = 1; i < numbers.length + 1; i++) {... */\n    tag_73:\n        /* \"average.sol\":726:727  1 */\n      0x01\n        /* \"average.sol\":709:716  numbers */\n      0x00\n        /* \"average.sol\":709:723  numbers.length */\n      dup1\n      sload\n      swap1\n      pop\n        /* \"average.sol\":709:727  numbers.length + 1 */\n      tag_76\n      swap2\n      swap1\n      tag_40\n      jump\t// in\n    tag_76:\n        /* \"average.sol\":705:706  i */\n      dup2\n        /* \"average.sol\":705:727  i < numbers.length + 1 */\n      lt\n        /* \"average.sol\":689:775  for(uint i = 1; i < numbers.length + 1; i++) {... */\n      iszero\n      tag_74\n      jumpi\n        /* \"average.sol\":755:762  numbers */\n      0x00\n        /* \"average.sol\":763:764  1 */\n      0x01\n        /* \"average.sol\":755:765  numbers[1] */\n      dup2\n      sload\n      dup2\n      lt\n      tag_77\n      jumpi\n      tag_78\n      tag_37\n      jump\t// in\n    tag_78:\n    tag_77:\n      swap1\n      0x00\n      mstore\n      keccak256(0x00, 0x20)\n      add\n      sload\n        /* \"average.sol\":748:765  sum += numbers[1] */\n      dup3\n      tag_80\n      swap2\n      swap1\n      tag_40\n      jump\t// in\n    tag_80:\n      swap2\n      pop\n        /* \"average.sol\":729:732  i++ */\n      dup1\n      dup1\n      0x01\n      add\n      swap2\n      pop\n      pop\n        /* \"average.sol\":689:775  for(uint i = 1; i < numbers.length + 1; i++) {... */\n      jump(tag_73)\n    tag_74:\n      pop\n        /* \"average.sol\":795:802  numbers */\n      0x00\n        /* \"average.sol\":795:809  numbers.length */\n      dup1\n      sload\n      swap1\n      pop\n        /* \"average.sol\":791:794  sum */\n      dup2\n        /* \"average.sol\":791:809  sum/numbers.length */\n      tag_81\n      swap2\n      swap1\n      tag_42\n      jump\t// in\n    tag_81:\n        /* \"average.sol\":784:809  return sum/numbers.length */\n      swap2\n      pop\n      pop\n        /* \"average.sol\":600:816  function getAverage2()  public view returns(uint) {... */\n      swap1\n      jump\t// out\n        /* \"average.sol\":177:263  function getArray() public view returns(uint[] memory) {... */\n    tag_29:\n        /* \"average.sol\":217:230  uint[] memory */\n      0x60\n        /* \"average.sol\":249:256  numbers */\n      0x00\n        /* \"average.sol\":242:256  return numbers */\n      dup1\n      sload\n      dup1\n      0x20\n      mul\n      0x20\n      add\n      mload(0x40)\n      swap1\n      dup2\n      add\n      0x40\n      mstore\n      dup1\n      swap3\n      swap2\n      swap1\n      dup2\n      dup2\n      mstore\n      0x20\n      add\n      dup3\n      dup1\n      sload\n      dup1\n      iszero\n      tag_83\n      jumpi\n      0x20\n      mul\n      dup3\n      add\n      swap2\n      swap1\n      0x00\n      mstore\n      keccak256(0x00, 0x20)\n      swap1\n    tag_84:\n      dup2\n      sload\n      dup2\n      mstore\n      0x20\n      add\n      swap1\n      0x01\n      add\n      swap1\n      dup1\n      dup4\n      gt\n      tag_84\n      jumpi\n    tag_83:\n      pop\n      pop\n      pop\n      pop\n      pop\n      swap1\n      pop\n        /* \"average.sol\":177:263  function getArray() public view returns(uint[] memory) {... */\n      swap1\n      jump\t// out\n        /* \"#utility.yul\":7:84   */\n    tag_85:\n        /* \"#utility.yul\":44:51   */\n      0x00\n        /* \"#utility.yul\":73:78   */\n      dup2\n        /* \"#utility.yul\":62:78   */\n      swap1\n      pop\n        /* \"#utility.yul\":7:84   */\n      swap2\n      swap1\n      pop\n      jump\t// out\n        /* \"#utility.yul\":90:208   */\n    tag_86:\n        /* \"#utility.yul\":177:201   */\n      tag_104\n        /* \"#utility.yul\":195:200   */\n      dup2\n        /* \"#utility.yul\":177:201   */\n      tag_85\n      jump\t// in\n    tag_104:\n        /* \"#utility.yul\":172:175   */\n      dup3\n        /* \"#utility.yul\":165:202   */\n      mstore\n        /* \"#utility.yul\":90:208   */\n      pop\n      pop\n      jump\t// out\n        /* \"#utility.yul\":214:436   */\n    tag_12:\n        /* \"#utility.yul\":307:311   */\n      0x00\n        /* \"#utility.yul\":345:347   */\n      0x20\n        /* \"#utility.yul\":334:343   */\n      dup3\n        /* \"#utility.yul\":330:348   */\n      add\n        /* \"#utility.yul\":322:348   */\n      swap1\n      pop\n        /* \"#utility.yul\":358:429   */\n      tag_106\n        /* \"#utility.yul\":426:427   */\n      0x00\n        /* \"#utility.yul\":415:424   */\n      dup4\n        /* \"#utility.yul\":411:428   */\n      add\n        /* \"#utility.yul\":402:408   */\n      dup5\n        /* \"#utility.yul\":358:429   */\n      tag_86\n      jump\t// in\n    tag_106:\n        /* \"#utility.yul\":214:436   */\n      swap3\n      swap2\n      pop\n      pop\n      jump\t// out\n        /* \"#utility.yul\":523:640   */\n    tag_88:\n        /* \"#utility.yul\":632:633   */\n      0x00\n        /* \"#utility.yul\":629:630   */\n      dup1\n        /* \"#utility.yul\":622:634   */\n      revert\n        /* \"#utility.yul\":769:891   */\n    tag_90:\n        /* \"#utility.yul\":842:866   */\n      tag_111\n        /* \"#utility.yul\":860:865   */\n      dup2\n        /* \"#utility.yul\":842:866   */\n      tag_85\n      jump\t// in\n    tag_111:\n        /* \"#utility.yul\":835:840   */\n      dup2\n        /* \"#utility.yul\":832:867   */\n      eq\n        /* \"#utility.yul\":822:885   */\n      tag_112\n      jumpi\n        /* \"#utility.yul\":881:882   */\n      0x00\n        /* \"#utility.yul\":878:879   */\n      dup1\n        /* \"#utility.yul\":871:883   */\n      revert\n        /* \"#utility.yul\":822:885   */\n    tag_112:\n        /* \"#utility.yul\":769:891   */\n      pop\n      jump\t// out\n        /* \"#utility.yul\":897:1036   */\n    tag_91:\n        /* \"#utility.yul\":943:948   */\n      0x00\n        /* \"#utility.yul\":981:987   */\n      dup2\n        /* \"#utility.yul\":968:988   */\n      calldataload\n        /* \"#utility.yul\":959:988   */\n      swap1\n      pop\n        /* \"#utility.yul\":997:1030   */\n      tag_114\n        /* \"#utility.yul\":1024:1029   */\n      dup2\n        /* \"#utility.yul\":997:1030   */\n      tag_90\n      jump\t// in\n    tag_114:\n        /* \"#utility.yul\":897:1036   */\n      swap3\n      swap2\n      pop\n      pop\n      jump\t// out\n        /* \"#utility.yul\":1042:1371   */\n    tag_15:\n        /* \"#utility.yul\":1101:1107   */\n      0x00\n        /* \"#utility.yul\":1150:1152   */\n      0x20\n        /* \"#utility.yul\":1138:1147   */\n      dup3\n        /* \"#utility.yul\":1129:1136   */\n      dup5\n        /* \"#utility.yul\":1125:1148   */\n      sub\n        /* \"#utility.yul\":1121:1153   */\n      slt\n        /* \"#utility.yul\":1118:1237   */\n      iszero\n      tag_116\n      jumpi\n        /* \"#utility.yul\":1156:1235   */\n      tag_117\n      tag_88\n      jump\t// in\n    tag_117:\n        /* \"#utility.yul\":1118:1237   */\n    tag_116:\n        /* \"#utility.yul\":1276:1277   */\n      0x00\n        /* \"#utility.yul\":1301:1354   */\n      tag_118\n        /* \"#utility.yul\":1346:1353   */\n      dup5\n        /* \"#utility.yul\":1337:1343   */\n      dup3\n        /* \"#utility.yul\":1326:1335   */\n      dup6\n        /* \"#utility.yul\":1322:1344   */\n      add\n        /* \"#utility.yul\":1301:1354   */\n      tag_91\n      jump\t// in\n    tag_118:\n        /* \"#utility.yul\":1291:1354   */\n      swap2\n      pop\n        /* \"#utility.yul\":1247:1364   */\n      pop\n        /* \"#utility.yul\":1042:1371   */\n      swap3\n      swap2\n      pop\n      pop\n      jump\t// out\n        /* \"#utility.yul\":1377:1491   */\n    tag_92:\n        /* \"#utility.yul\":1444:1450   */\n      0x00\n        /* \"#utility.yul\":1478:1483   */\n      dup2\n        /* \"#utility.yul\":1472:1484   */\n      mload\n        /* \"#utility.yul\":1462:1484   */\n      swap1\n      pop\n        /* \"#utility.yul\":1377:1491   */\n      swap2\n      swap1\n      pop\n      jump\t// out\n        /* \"#utility.yul\":1497:1681   */\n    tag_93:\n        /* \"#utility.yul\":1596:1607   */\n      0x00\n        /* \"#utility.yul\":1630:1636   */\n      dup3\n        /* \"#utility.yul\":1625:1628   */\n      dup3\n        /* \"#utility.yul\":1618:1637   */\n      mstore\n        /* \"#utility.yul\":1670:1674   */\n      0x20\n        /* \"#utility.yul\":1665:1668   */\n      dup3\n        /* \"#utility.yul\":1661:1675   */\n      add\n        /* \"#utility.yul\":1646:1675   */\n      swap1\n      pop\n        /* \"#utility.yul\":1497:1681   */\n      swap3\n      swap2\n      pop\n      pop\n      jump\t// out\n        /* \"#utility.yul\":1687:1819   */\n    tag_94:\n        /* \"#utility.yul\":1754:1758   */\n      0x00\n        /* \"#utility.yul\":1777:1780   */\n      dup2\n        /* \"#utility.yul\":1769:1780   */\n      swap1\n      pop\n        /* \"#utility.yul\":1807:1811   */\n      0x20\n        /* \"#utility.yul\":1802:1805   */\n      dup3\n        /* \"#utility.yul\":1798:1812   */\n      add\n        /* \"#utility.yul\":1790:1812   */\n      swap1\n      pop\n        /* \"#utility.yul\":1687:1819   */\n      swap2\n      swap1\n      pop\n      jump\t// out\n        /* \"#utility.yul\":1825:1933   */\n    tag_95:\n        /* \"#utility.yul\":1902:1926   */\n      tag_123\n        /* \"#utility.yul\":1920:1925   */\n      dup2\n        /* \"#utility.yul\":1902:1926   */\n      tag_85\n      jump\t// in\n    tag_123:\n        /* \"#utility.yul\":1897:1900   */\n      dup3\n        /* \"#utility.yul\":1890:1927   */\n      mstore\n        /* \"#utility.yul\":1825:1933   */\n      pop\n      pop\n      jump\t// out\n        /* \"#utility.yul\":1939:2118   */\n    tag_96:\n        /* \"#utility.yul\":2008:2018   */\n      0x00\n        /* \"#utility.yul\":2029:2075   */\n      tag_125\n        /* \"#utility.yul\":2071:2074   */\n      dup4\n        /* \"#utility.yul\":2063:2069   */\n      dup4\n        /* \"#utility.yul\":2029:2075   */\n      tag_95\n      jump\t// in\n    tag_125:\n        /* \"#utility.yul\":2107:2111   */\n      0x20\n        /* \"#utility.yul\":2102:2105   */\n      dup4\n        /* \"#utility.yul\":2098:2112   */\n      add\n        /* \"#utility.yul\":2084:2112   */\n      swap1\n      pop\n        /* \"#utility.yul\":1939:2118   */\n      swap3\n      swap2\n      pop\n      pop\n      jump\t// out\n        /* \"#utility.yul\":2124:2237   */\n    tag_97:\n        /* \"#utility.yul\":2194:2198   */\n      0x00\n        /* \"#utility.yul\":2226:2230   */\n      0x20\n        /* \"#utility.yul\":2221:2224   */\n      dup3\n        /* \"#utility.yul\":2217:2231   */\n      add\n        /* \"#utility.yul\":2209:2231   */\n      swap1\n      pop\n        /* \"#utility.yul\":2124:2237   */\n      swap2\n      swap1\n      pop\n      jump\t// out\n        /* \"#utility.yul\":2273:3005   */\n    tag_98:\n        /* \"#utility.yul\":2392:2395   */\n      0x00\n        /* \"#utility.yul\":2421:2475   */\n      tag_128\n        /* \"#utility.yul\":2469:2474   */\n      dup3\n        /* \"#utility.yul\":2421:2475   */\n      tag_92\n      jump\t// in\n    tag_128:\n        /* \"#utility.yul\":2491:2577   */\n      tag_129\n        /* \"#utility.yul\":2570:2576   */\n      dup2\n        /* \"#utility.yul\":2565:2568   */\n      dup6\n        /* \"#utility.yul\":2491:2577   */\n      tag_93\n      jump\t// in\n    tag_129:\n        /* \"#utility.yul\":2484:2577   */\n      swap4\n      pop\n        /* \"#utility.yul\":2601:2657   */\n      tag_130\n        /* \"#utility.yul\":2651:2656   */\n      dup4\n        /* \"#utility.yul\":2601:2657   */\n      tag_94\n      jump\t// in\n    tag_130:\n        /* \"#utility.yul\":2680:2687   */\n      dup1\n        /* \"#utility.yul\":2711:2712   */\n      0x00\n        /* \"#utility.yul\":2696:2980   */\n    tag_131:\n        /* \"#utility.yul\":2721:2727   */\n      dup4\n        /* \"#utility.yul\":2718:2719   */\n      dup2\n        /* \"#utility.yul\":2715:2728   */\n      lt\n        /* \"#utility.yul\":2696:2980   */\n      iszero\n      tag_133\n      jumpi\n        /* \"#utility.yul\":2797:2803   */\n      dup2\n        /* \"#utility.yul\":2791:2804   */\n      mload\n        /* \"#utility.yul\":2824:2887   */\n      tag_134\n        /* \"#utility.yul\":2883:2886   */\n      dup9\n        /* \"#utility.yul\":2868:2881   */\n      dup3\n        /* \"#utility.yul\":2824:2887   */\n      tag_96\n      jump\t// in\n    tag_134:\n        /* \"#utility.yul\":2817:2887   */\n      swap8\n      pop\n        /* \"#utility.yul\":2910:2970   */\n      tag_135\n        /* \"#utility.yul\":2963:2969   */\n      dup4\n        /* \"#utility.yul\":2910:2970   */\n      tag_97\n      jump\t// in\n    tag_135:\n        /* \"#utility.yul\":2900:2970   */\n      swap3\n      pop\n        /* \"#utility.yul\":2756:2980   */\n      pop\n        /* \"#utility.yul\":2743:2744   */\n      0x01\n        /* \"#utility.yul\":2740:2741   */\n      dup2\n        /* \"#utility.yul\":2736:2745   */\n      add\n        /* \"#utility.yul\":2731:2745   */\n      swap1\n      pop\n        /* \"#utility.yul\":2696:2980   */\n      jump(tag_131)\n    tag_133:\n        /* \"#utility.yul\":2700:2714   */\n      pop\n        /* \"#utility.yul\":2996:2999   */\n      dup6\n        /* \"#utility.yul\":2989:2999   */\n      swap4\n      pop\n        /* \"#utility.yul\":2397:3005   */\n      pop\n      pop\n      pop\n        /* \"#utility.yul\":2273:3005   */\n      swap3\n      swap2\n      pop\n      pop\n      jump\t// out\n        /* \"#utility.yul\":3011:3384   */\n    tag_24:\n        /* \"#utility.yul\":3154:3158   */\n      0x00\n        /* \"#utility.yul\":3192:3194   */\n      0x20\n        /* \"#utility.yul\":3181:3190   */\n      dup3\n        /* \"#utility.yul\":3177:3195   */\n      add\n        /* \"#utility.yul\":3169:3195   */\n      swap1\n      pop\n        /* \"#utility.yul\":3241:3250   */\n      dup2\n        /* \"#utility.yul\":3235:3239   */\n      dup2\n        /* \"#utility.yul\":3231:3251   */\n      sub\n        /* \"#utility.yul\":3227:3228   */\n      0x00\n        /* \"#utility.yul\":3216:3225   */\n      dup4\n        /* \"#utility.yul\":3212:3229   */\n      add\n        /* \"#utility.yul\":3205:3252   */\n      mstore\n        /* \"#utility.yul\":3269:3377   */\n      tag_137\n        /* \"#utility.yul\":3372:3376   */\n      dup2\n        /* \"#utility.yul\":3363:3369   */\n      dup5\n        /* \"#utility.yul\":3269:3377   */\n      tag_98\n      jump\t// in\n    tag_137:\n        /* \"#utility.yul\":3261:3377   */\n      swap1\n      pop\n        /* \"#utility.yul\":3011:3384   */\n      swap3\n      swap2\n      pop\n      pop\n      jump\t// out\n        /* \"#utility.yul\":3390:3570   */\n    tag_37:\n        /* \"#utility.yul\":3438:3515   */\n      0x4e487b7100000000000000000000000000000000000000000000000000000000\n        /* \"#utility.yul\":3435:3436   */\n      0x00\n        /* \"#utility.yul\":3428:3516   */\n      mstore\n        /* \"#utility.yul\":3535:3539   */\n      0x32\n        /* \"#utility.yul\":3532:3533   */\n      0x04\n        /* \"#utility.yul\":3525:3540   */\n      mstore\n        /* \"#utility.yul\":3559:3563   */\n      0x24\n        /* \"#utility.yul\":3556:3557   */\n      0x00\n        /* \"#utility.yul\":3549:3564   */\n      revert\n        /* \"#utility.yul\":3576:3756   */\n    tag_99:\n        /* \"#utility.yul\":3624:3701   */\n      0x4e487b7100000000000000000000000000000000000000000000000000000000\n        /* \"#utility.yul\":3621:3622   */\n      0x00\n        /* \"#utility.yul\":3614:3702   */\n      mstore\n        /* \"#utility.yul\":3721:3725   */\n      0x11\n        /* \"#utility.yul\":3718:3719   */\n      0x04\n        /* \"#utility.yul\":3711:3726   */\n      mstore\n        /* \"#utility.yul\":3745:3749   */\n      0x24\n        /* \"#utility.yul\":3742:3743   */\n      0x00\n        /* \"#utility.yul\":3735:3750   */\n      revert\n        /* \"#utility.yul\":3762:3953   */\n    tag_40:\n        /* \"#utility.yul\":3802:3805   */\n      0x00\n        /* \"#utility.yul\":3821:3841   */\n      tag_141\n        /* \"#utility.yul\":3839:3840   */\n      dup3\n        /* \"#utility.yul\":3821:3841   */\n      tag_85\n      jump\t// in\n    tag_141:\n        /* \"#utility.yul\":3816:3841   */\n      swap2\n      pop\n        /* \"#utility.yul\":3855:3875   */\n      tag_142\n        /* \"#utility.yul\":3873:3874   */\n      dup4\n        /* \"#utility.yul\":3855:3875   */\n      tag_85\n      jump\t// in\n    tag_142:\n        /* \"#utility.yul\":3850:3875   */\n      swap3\n      pop\n        /* \"#utility.yul\":3898:3899   */\n      dup3\n        /* \"#utility.yul\":3895:3896   */\n      dup3\n        /* \"#utility.yul\":3891:3900   */\n      add\n        /* \"#utility.yul\":3884:3900   */\n      swap1\n      pop\n        /* \"#utility.yul\":3919:3922   */\n      dup1\n        /* \"#utility.yul\":3916:3917   */\n      dup3\n        /* \"#utility.yul\":3913:3923   */\n      gt\n        /* \"#utility.yul\":3910:3946   */\n      iszero\n      tag_143\n      jumpi\n        /* \"#utility.yul\":3926:3944   */\n      tag_144\n      tag_99\n      jump\t// in\n    tag_144:\n        /* \"#utility.yul\":3910:3946   */\n    tag_143:\n        /* \"#utility.yul\":3762:3953   */\n      swap3\n      swap2\n      pop\n      pop\n      jump\t// out\n        /* \"#utility.yul\":3959:4139   */\n    tag_100:\n        /* \"#utility.yul\":4007:4084   */\n      0x4e487b7100000000000000000000000000000000000000000000000000000000\n        /* \"#utility.yul\":4004:4005   */\n      0x00\n        /* \"#utility.yul\":3997:4085   */\n      mstore\n        /* \"#utility.yul\":4104:4108   */\n      0x12\n        /* \"#utility.yul\":4101:4102   */\n      0x04\n        /* \"#utility.yul\":4094:4109   */\n      mstore\n        /* \"#utility.yul\":4128:4132   */\n      0x24\n        /* \"#utility.yul\":4125:4126   */\n      0x00\n        /* \"#utility.yul\":4118:4133   */\n      revert\n        /* \"#utility.yul\":4145:4330   */\n    tag_42:\n        /* \"#utility.yul\":4185:4186   */\n      0x00\n        /* \"#utility.yul\":4202:4222   */\n      tag_147\n        /* \"#utility.yul\":4220:4221   */\n      dup3\n        /* \"#utility.yul\":4202:4222   */\n      tag_85\n      jump\t// in\n    tag_147:\n        /* \"#utility.yul\":4197:4222   */\n      swap2\n      pop\n        /* \"#utility.yul\":4236:4256   */\n      tag_148\n        /* \"#utility.yul\":4254:4255   */\n      dup4\n        /* \"#utility.yul\":4236:4256   */\n      tag_85\n      jump\t// in\n    tag_148:\n        /* \"#utility.yul\":4231:4256   */\n      swap3\n      pop\n        /* \"#utility.yul\":4275:4276   */\n      dup3\n        /* \"#utility.yul\":4265:4300   */\n      tag_149\n      jumpi\n        /* \"#utility.yul\":4280:4298   */\n      tag_150\n      tag_100\n      jump\t// in\n    tag_150:\n        /* \"#utility.yul\":4265:4300   */\n    tag_149:\n        /* \"#utility.yul\":4322:4323   */\n      dup3\n        /* \"#utility.yul\":4319:4320   */\n      dup3\n        /* \"#utility.yul\":4315:4324   */\n      div\n        /* \"#utility.yul\":4310:4324   */\n      swap1\n      pop\n        /* \"#utility.yul\":4145:4330   */\n      swap3\n      swap2\n      pop\n      pop\n      jump\t// out\n        /* \"#utility.yul\":4336:4530   */\n    tag_47:\n        /* \"#utility.yul\":4376:4380   */\n      0x00\n        /* \"#utility.yul\":4396:4416   */\n      tag_152\n        /* \"#utility.yul\":4414:4415   */\n      dup3\n        /* \"#utility.yul\":4396:4416   */\n      tag_85\n      jump\t// in\n    tag_152:\n        /* \"#utility.yul\":4391:4416   */\n      swap2\n      pop\n        /* \"#utility.yul\":4430:4450   */\n      tag_153\n        /* \"#utility.yul\":4448:4449   */\n      dup4\n        /* \"#utility.yul\":4430:4450   */\n      tag_85\n      jump\t// in\n    tag_153:\n        /* \"#utility.yul\":4425:4450   */\n      swap3\n      pop\n        /* \"#utility.yul\":4474:4475   */\n      dup3\n        /* \"#utility.yul\":4471:4472   */\n      dup3\n        /* \"#utility.yul\":4467:4476   */\n      sub\n        /* \"#utility.yul\":4459:4476   */\n      swap1\n      pop\n        /* \"#utility.yul\":4498:4499   */\n      dup2\n        /* \"#utility.yul\":4492:4496   */\n      dup2\n        /* \"#utility.yul\":4489:4500   */\n      gt\n        /* \"#utility.yul\":4486:4523   */\n      iszero\n      tag_154\n      jumpi\n        /* \"#utility.yul\":4503:4521   */\n      tag_155\n      tag_99\n      jump\t// in\n    tag_155:\n        /* \"#utility.yul\":4486:4523   */\n    tag_154:\n        /* \"#utility.yul\":4336:4530   */\n      swap3\n      swap2\n      pop\n      pop\n      jump\t// out\n        /* \"#utility.yul\":4536:4716   */\n    tag_54:\n        /* \"#utility.yul\":4584:4661   */\n      0x4e487b7100000000000000000000000000000000000000000000000000000000\n        /* \"#utility.yul\":4581:4582   */\n      0x00\n        /* \"#utility.yul\":4574:4662   */\n      mstore\n        /* \"#utility.yul\":4681:4685   */\n      0x41\n        /* \"#utility.yul\":4678:4679   */\n      0x04\n        /* \"#utility.yul\":4671:4686   */\n      mstore\n        /* \"#utility.yul\":4705:4709   */\n      0x24\n        /* \"#utility.yul\":4702:4703   */\n      0x00\n        /* \"#utility.yul\":4695:4710   */\n      revert\n        /* \"#utility.yul\":4722:4898   */\n    tag_63:\n        /* \"#utility.yul\":4754:4755   */\n      0x00\n        /* \"#utility.yul\":4771:4791   */\n      tag_158\n        /* \"#utility.yul\":4789:4790   */\n      dup3\n        /* \"#utility.yul\":4771:4791   */\n      tag_85\n      jump\t// in\n    tag_158:\n        /* \"#utility.yul\":4766:4791   */\n      swap2\n      pop\n        /* \"#utility.yul\":4805:4825   */\n      tag_159\n        /* \"#utility.yul\":4823:4824   */\n      dup4\n        /* \"#utility.yul\":4805:4825   */\n      tag_85\n      jump\t// in\n    tag_159:\n        /* \"#utility.yul\":4800:4825   */\n      swap3\n      pop\n        /* \"#utility.yul\":4844:4845   */\n      dup3\n        /* \"#utility.yul\":4834:4869   */\n      tag_160\n      jumpi\n        /* \"#utility.yul\":4849:4867   */\n      tag_161\n      tag_100\n      jump\t// in\n    tag_161:\n        /* \"#utility.yul\":4834:4869   */\n    tag_160:\n        /* \"#utility.yul\":4890:4891   */\n      dup3\n        /* \"#utility.yul\":4887:4888   */\n      dup3\n        /* \"#utility.yul\":4883:4892   */\n      mod\n        /* \"#utility.yul\":4878:4892   */\n      swap1\n      pop\n        /* \"#utility.yul\":4722:4898   */\n      swap3\n      swap2\n      pop\n      pop\n      jump\t// out\n        /* \"#utility.yul\":4904:5137   */\n    tag_71:\n        /* \"#utility.yul\":4943:4946   */\n      0x00\n        /* \"#utility.yul\":4966:4990   */\n      tag_163\n        /* \"#utility.yul\":4984:4989   */\n      dup3\n        /* \"#utility.yul\":4966:4990   */\n      tag_85\n      jump\t// in\n    tag_163:\n        /* \"#utility.yul\":4957:4990   */\n      swap2\n      pop\n        /* \"#utility.yul\":5012:5078   */\n      0xffffffffffffffffffffffffffffffffffffffffffffffffffffffffffffffff\n        /* \"#utility.yul\":5005:5010   */\n      dup3\n        /* \"#utility.yul\":5002:5079   */\n      sub\n        /* \"#utility.yul\":4999:5102   */\n      tag_164\n      jumpi\n        /* \"#utility.yul\":5082:5100   */\n      tag_165\n      tag_99\n      jump\t// in\n    tag_165:\n        /* \"#utility.yul\":4999:5102   */\n    tag_164:\n        /* \"#utility.yul\":5129:5130   */\n      0x01\n        /* \"#utility.yul\":5122:5127   */\n      dup3\n        /* \"#utility.yul\":5118:5131   */\n      add\n        /* \"#utility.yul\":5111:5131   */\n      swap1\n      pop\n        /* \"#utility.yul\":4904:5137   */\n      swap2\n      swap1\n      pop\n      jump\t// out\n\n    auxdata: 0xa26469706673582212204aab6d472217aa268b02e6bd60e159f578984f39caf8b72bb9d05ec0e1dfc8b364736f6c63430008170033\n}\n",
				"bytecode": {
					"linkReferences": {},
					"object": "608060405234801561000f575f80fd5b506106ed8061001d5f395ff3fe608060405234801561000f575f80fd5b5060043610610060575f3560e01c806321055acb146100645780632bfe180514610082578063391392251461009e57806351e00531146100ce578063a8741db1146100ec578063d504ea1d1461010a575b5f80fd5b61006c610128565b60405161007991906103ad565b60405180910390f35b61009c600480360381019061009791906103f4565b610188565b005b6100b860048036038101906100b391906103f4565b6101b0565b6040516100c591906103ad565b60405180910390f35b6100d66101e0565b6040516100e391906104d6565b60405180910390f35b6100f46102cf565b60405161010191906103ad565b60405180910390f35b610112610340565b60405161011f91906104d6565b60405180910390f35b5f805f90505f5b5f80549050811015610171575f818154811061014e5761014d6104f6565b5b905f5260205f200154826101629190610550565b9150808060010191505061012f565b505f805490508161018291906105b0565b91505090565b5f81908060018154018082558091505060019003905f5260205f20015f909190919091505550565b5f806001836101bf91906105e0565b815481106101d0576101cf6104f6565b5b905f5260205f2001549050919050565b60605f600a67ffffffffffffffff8111156101fe576101fd610613565b5b60405190808252806020026020018201604052801561022c5781602001602082028036833780820191505090505b5090505f805f90505b5f805490508110156102c6575f60025f8381548110610257576102566104f6565b5b905f5260205f20015461026a9190610640565b036102b9575f8181548110610282576102816104f6565b5b905f5260205f20015483838151811061029e5761029d6104f6565b5b60200260200101818152505081806102b590610670565b9250505b8080600101915050610235565b50819250505090565b5f805f90505f600190505b60015f805490506102eb9190610550565b811015610329575f600181548110610306576103056104f6565b5b905f5260205f2001548261031a9190610550565b915080806001019150506102da565b505f805490508161033a91906105b0565b91505090565b60605f80548060200260200160405190810160405280929190818152602001828054801561038b57602002820191905f5260205f20905b815481526020019060010190808311610377575b5050505050905090565b5f819050919050565b6103a781610395565b82525050565b5f6020820190506103c05f83018461039e565b92915050565b5f80fd5b6103d381610395565b81146103dd575f80fd5b50565b5f813590506103ee816103ca565b92915050565b5f60208284031215610409576104086103c6565b5b5f610416848285016103e0565b91505092915050565b5f81519050919050565b5f82825260208201905092915050565b5f819050602082019050919050565b61045181610395565b82525050565b5f6104628383610448565b60208301905092915050565b5f602082019050919050565b5f6104848261041f565b61048e8185610429565b935061049983610439565b805f5b838110156104c95781516104b08882610457565b97506104bb8361046e565b92505060018101905061049c565b5085935050505092915050565b5f6020820190508181035f8301526104ee818461047a565b905092915050565b7f4e487b71000000000000000000000000000000000000000000000000000000005f52603260045260245ffd5b7f4e487b71000000000000000000000000000000000000000000000000000000005f52601160045260245ffd5b5f61055a82610395565b915061056583610395565b925082820190508082111561057d5761057c610523565b5b92915050565b7f4e487b71000000000000000000000000000000000000000000000000000000005f52601260045260245ffd5b5f6105ba82610395565b91506105c583610395565b9250826105d5576105d4610583565b5b828204905092915050565b5f6105ea82610395565b91506105f583610395565b925082820390508181111561060d5761060c610523565b5b92915050565b7f4e487b71000000000000000000000000000000000000000000000000000000005f52604160045260245ffd5b5f61064a82610395565b915061065583610395565b92508261066557610664610583565b5b828206905092915050565b5f61067a82610395565b91507fffffffffffffffffffffffffffffffffffffffffffffffffffffffffffffffff82036106ac576106ab610523565b5b60018201905091905056fea26469706673582212204aab6d472217aa268b02e6bd60e159f578984f39caf8b72bb9d05ec0e1dfc8b364736f6c63430008170033",
					"opcodes": "PUSH1 0x80 PUSH1 0x40 MSTORE CALLVALUE DUP1 ISZERO PUSH2 0xF JUMPI PUSH0 DUP1 REVERT JUMPDEST POP PUSH2 0x6ED DUP1 PUSH2 0x1D PUSH0 CODECOPY PUSH0 RETURN INVALID PUSH1 0x80 PUSH1 0x40 MSTORE CALLVALUE DUP1 ISZERO PUSH2 0xF JUMPI PUSH0 DUP1 REVERT JUMPDEST POP PUSH1 0x4 CALLDATASIZE LT PUSH2 0x60 JUMPI PUSH0 CALLDATALOAD PUSH1 0xE0 SHR DUP1 PUSH4 0x21055ACB EQ PUSH2 0x64 JUMPI DUP1 PUSH4 0x2BFE1805 EQ PUSH2 0x82 JUMPI DUP1 PUSH4 0x39139225 EQ PUSH2 0x9E JUMPI DUP1 PUSH4 0x51E00531 EQ PUSH2 0xCE JUMPI DUP1 PUSH4 0xA8741DB1 EQ PUSH2 0xEC JUMPI DUP1 PUSH4 0xD504EA1D EQ PUSH2 0x10A JUMPI JUMPDEST PUSH0 DUP1 REVERT JUMPDEST PUSH2 0x6C PUSH2 0x128 JUMP JUMPDEST PUSH1 0x40 MLOAD PUSH2 0x79 SWAP2 SWAP1 PUSH2 0x3AD JUMP JUMPDEST PUSH1 0x40 MLOAD DUP1 SWAP2 SUB SWAP1 RETURN JUMPDEST PUSH2 0x9C PUSH1 0x4 DUP1 CALLDATASIZE SUB DUP2 ADD SWAP1 PUSH2 0x97 SWAP2 SWAP1 PUSH2 0x3F4 JUMP JUMPDEST PUSH2 0x188 JUMP JUMPDEST STOP JUMPDEST PUSH2 0xB8 PUSH1 0x4 DUP1 CALLDATASIZE SUB DUP2 ADD SWAP1 PUSH2 0xB3 SWAP2 SWAP1 PUSH2 0x3F4 JUMP JUMPDEST PUSH2 0x1B0 JUMP JUMPDEST PUSH1 0x40 MLOAD PUSH2 0xC5 SWAP2 SWAP1 PUSH2 0x3AD JUMP JUMPDEST PUSH1 0x40 MLOAD DUP1 SWAP2 SUB SWAP1 RETURN JUMPDEST PUSH2 0xD6 PUSH2 0x1E0 JUMP JUMPDEST PUSH1 0x40 MLOAD PUSH2 0xE3 SWAP2 SWAP1 PUSH2 0x4D6 JUMP JUMPDEST PUSH1 0x40 MLOAD DUP1 SWAP2 SUB SWAP1 RETURN JUMPDEST PUSH2 0xF4 PUSH2 0x2CF JUMP JUMPDEST PUSH1 0x40 MLOAD PUSH2 0x101 SWAP2 SWAP1 PUSH2 0x3AD JUMP JUMPDEST PUSH1 0x40 MLOAD DUP1 SWAP2 SUB SWAP1 RETURN JUMPDEST PUSH2 0x112 PUSH2 0x340 JUMP JUMPDEST PUSH1 0x40 MLOAD PUSH2 0x11F SWAP2 SWAP1 PUSH2 0x4D6 JUMP JUMPDEST PUSH1 0x40 MLOAD DUP1 SWAP2 SUB SWAP1 RETURN JUMPDEST PUSH0 DUP1 PUSH0 SWAP1 POP PUSH0 JUMPDEST PUSH0 DUP1 SLOAD SWAP1 POP DUP2 LT ISZERO PUSH2 0x171 JUMPI PUSH0 DUP2 DUP2 SLOAD DUP2 LT PUSH2 0x14E JUMPI PUSH2 0x14D PUSH2 0x4F6 JUMP JUMPDEST JUMPDEST SWAP1 PUSH0 MSTORE PUSH1 0x20 PUSH0 KECCAK256 ADD SLOAD DUP3 PUSH2 0x162 SWAP2 SWAP1 PUSH2 0x550 JUMP JUMPDEST SWAP2 POP DUP1 DUP1 PUSH1 0x1 ADD SWAP2 POP POP PUSH2 0x12F JUMP JUMPDEST POP PUSH0 DUP1 SLOAD SWAP1 POP DUP2 PUSH2 0x182 SWAP2 SWAP1 PUSH2 0x5B0 JUMP JUMPDEST SWAP2 POP POP SWAP1 JUMP JUMPDEST PUSH0 DUP2 SWAP1 DUP1 PUSH1 0x1 DUP2 SLOAD ADD DUP1 DUP3 SSTORE DUP1 SWAP2 POP POP PUSH1 0x1 SWAP1 SUB SWAP1 PUSH0 MSTORE PUSH1 0x20 PUSH0 KECCAK256 ADD PUSH0 SWAP1 SWAP2 SWAP1 SWAP2 SWAP1 SWAP2 POP SSTORE POP JUMP JUMPDEST PUSH0 DUP1 PUSH1 0x1 DUP4 PUSH2 0x1BF SWAP2 SWAP1 PUSH2 0x5E0 JUMP JUMPDEST DUP2 SLOAD DUP2 LT PUSH2 0x1D0 JUMPI PUSH2 0x1CF PUSH2 0x4F6 JUMP JUMPDEST JUMPDEST SWAP1 PUSH0 MSTORE PUSH1 0x20 PUSH0 KECCAK256 ADD SLOAD SWAP1 POP SWAP2 SWAP1 POP JUMP JUMPDEST PUSH1 0x60 PUSH0 PUSH1 0xA PUSH8 0xFFFFFFFFFFFFFFFF DUP2 GT ISZERO PUSH2 0x1FE JUMPI PUSH2 0x1FD PUSH2 0x613 JUMP JUMPDEST JUMPDEST PUSH1 0x40 MLOAD SWAP1 DUP1 DUP3 MSTORE DUP1 PUSH1 0x20 MUL PUSH1 0x20 ADD DUP3 ADD PUSH1 0x40 MSTORE DUP1 ISZERO PUSH2 0x22C JUMPI DUP2 PUSH1 0x20 ADD PUSH1 0x20 DUP3 MUL DUP1 CALLDATASIZE DUP4 CALLDATACOPY DUP1 DUP3 ADD SWAP2 POP POP SWAP1 POP JUMPDEST POP SWAP1 POP PUSH0 DUP1 PUSH0 SWAP1 POP JUMPDEST PUSH0 DUP1 SLOAD SWAP1 POP DUP2 LT ISZERO PUSH2 0x2C6 JUMPI PUSH0 PUSH1 0x2 PUSH0 DUP4 DUP2 SLOAD DUP2 LT PUSH2 0x257 JUMPI PUSH2 0x256 PUSH2 0x4F6 JUMP JUMPDEST JUMPDEST SWAP1 PUSH0 MSTORE PUSH1 0x20 PUSH0 KECCAK256 ADD SLOAD PUSH2 0x26A SWAP2 SWAP1 PUSH2 0x640 JUMP JUMPDEST SUB PUSH2 0x2B9 JUMPI PUSH0 DUP2 DUP2 SLOAD DUP2 LT PUSH2 0x282 JUMPI PUSH2 0x281 PUSH2 0x4F6 JUMP JUMPDEST JUMPDEST SWAP1 PUSH0 MSTORE PUSH1 0x20 PUSH0 KECCAK256 ADD SLOAD DUP4 DUP4 DUP2 MLOAD DUP2 LT PUSH2 0x29E JUMPI PUSH2 0x29D PUSH2 0x4F6 JUMP JUMPDEST JUMPDEST PUSH1 0x20 MUL PUSH1 0x20 ADD ADD DUP2 DUP2 MSTORE POP POP DUP2 DUP1 PUSH2 0x2B5 SWAP1 PUSH2 0x670 JUMP JUMPDEST SWAP3 POP POP JUMPDEST DUP1 DUP1 PUSH1 0x1 ADD SWAP2 POP POP PUSH2 0x235 JUMP JUMPDEST POP DUP2 SWAP3 POP POP POP SWAP1 JUMP JUMPDEST PUSH0 DUP1 PUSH0 SWAP1 POP PUSH0 PUSH1 0x1 SWAP1 POP JUMPDEST PUSH1 0x1 PUSH0 DUP1 SLOAD SWAP1 POP PUSH2 0x2EB SWAP2 SWAP1 PUSH2 0x550 JUMP JUMPDEST DUP2 LT ISZERO PUSH2 0x329 JUMPI PUSH0 PUSH1 0x1 DUP2 SLOAD DUP2 LT PUSH2 0x306 JUMPI PUSH2 0x305 PUSH2 0x4F6 JUMP JUMPDEST JUMPDEST SWAP1 PUSH0 MSTORE PUSH1 0x20 PUSH0 KECCAK256 ADD SLOAD DUP3 PUSH2 0x31A SWAP2 SWAP1 PUSH2 0x550 JUMP JUMPDEST SWAP2 POP DUP1 DUP1 PUSH1 0x1 ADD SWAP2 POP POP PUSH2 0x2DA JUMP JUMPDEST POP PUSH0 DUP1 SLOAD SWAP1 POP DUP2 PUSH2 0x33A SWAP2 SWAP1 PUSH2 0x5B0 JUMP JUMPDEST SWAP2 POP POP SWAP1 JUMP JUMPDEST PUSH1 0x60 PUSH0 DUP1 SLOAD DUP1 PUSH1 0x20 MUL PUSH1 0x20 ADD PUSH1 0x40 MLOAD SWAP1 DUP2 ADD PUSH1 0x40 MSTORE DUP1 SWAP3 SWAP2 SWAP1 DUP2 DUP2 MSTORE PUSH1 0x20 ADD DUP3 DUP1 SLOAD DUP1 ISZERO PUSH2 0x38B JUMPI PUSH1 0x20 MUL DUP3 ADD SWAP2 SWAP1 PUSH0 MSTORE PUSH1 0x20 PUSH0 KECCAK256 SWAP1 JUMPDEST DUP2 SLOAD DUP2 MSTORE PUSH1 0x20 ADD SWAP1 PUSH1 0x1 ADD SWAP1 DUP1 DUP4 GT PUSH2 0x377 JUMPI JUMPDEST POP POP POP POP POP SWAP1 POP SWAP1 JUMP JUMPDEST PUSH0 DUP2 SWAP1 POP SWAP2 SWAP1 POP JUMP JUMPDEST PUSH2 0x3A7 DUP2 PUSH2 0x395 JUMP JUMPDEST DUP3 MSTORE POP POP JUMP JUMPDEST PUSH0 PUSH1 0x20 DUP3 ADD SWAP1 POP PUSH2 0x3C0 PUSH0 DUP4 ADD DUP5 PUSH2 0x39E JUMP JUMPDEST SWAP3 SWAP2 POP POP JUMP JUMPDEST PUSH0 DUP1 REVERT JUMPDEST PUSH2 0x3D3 DUP2 PUSH2 0x395 JUMP JUMPDEST DUP2 EQ PUSH2 0x3DD JUMPI PUSH0 DUP1 REVERT JUMPDEST POP JUMP JUMPDEST PUSH0 DUP2 CALLDATALOAD SWAP1 POP PUSH2 0x3EE DUP2 PUSH2 0x3CA JUMP JUMPDEST SWAP3 SWAP2 POP POP JUMP JUMPDEST PUSH0 PUSH1 0x20 DUP3 DUP5 SUB SLT ISZERO PUSH2 0x409 JUMPI PUSH2 0x408 PUSH2 0x3C6 JUMP JUMPDEST JUMPDEST PUSH0 PUSH2 0x416 DUP5 DUP3 DUP6 ADD PUSH2 0x3E0 JUMP JUMPDEST SWAP2 POP POP SWAP3 SWAP2 POP POP JUMP JUMPDEST PUSH0 DUP2 MLOAD SWAP1 POP SWAP2 SWAP1 POP JUMP JUMPDEST PUSH0 DUP3 DUP3 MSTORE PUSH1 0x20 DUP3 ADD SWAP1 POP SWAP3 SWAP2 POP POP JUMP JUMPDEST PUSH0 DUP2 SWAP1 POP PUSH1 0x20 DUP3 ADD SWAP1 POP SWAP2 SWAP1 POP JUMP JUMPDEST PUSH2 0x451 DUP2 PUSH2 0x395 JUMP JUMPDEST DUP3 MSTORE POP POP JUMP JUMPDEST PUSH0 PUSH2 0x462 DUP4 DUP4 PUSH2 0x448 JUMP JUMPDEST PUSH1 0x20 DUP4 ADD SWAP1 POP SWAP3 SWAP2 POP POP JUMP JUMPDEST PUSH0 PUSH1 0x20 DUP3 ADD SWAP1 POP SWAP2 SWAP1 POP JUMP JUMPDEST PUSH0 PUSH2 0x484 DUP3 PUSH2 0x41F JUMP JUMPDEST PUSH2 0x48E DUP2 DUP6 PUSH2 0x429 JUMP JUMPDEST SWAP4 POP PUSH2 0x499 DUP4 PUSH2 0x439 JUMP JUMPDEST DUP1 PUSH0 JUMPDEST DUP4 DUP2 LT ISZERO PUSH2 0x4C9 JUMPI DUP2 MLOAD PUSH2 0x4B0 DUP9 DUP3 PUSH2 0x457 JUMP JUMPDEST SWAP8 POP PUSH2 0x4BB DUP4 PUSH2 0x46E JUMP JUMPDEST SWAP3 POP POP PUSH1 0x1 DUP2 ADD SWAP1 POP PUSH2 0x49C JUMP JUMPDEST POP DUP6 SWAP4 POP POP POP POP SWAP3 SWAP2 POP POP JUMP JUMPDEST PUSH0 PUSH1 0x20 DUP3 ADD SWAP1 POP DUP2 DUP2 SUB PUSH0 DUP4 ADD MSTORE PUSH2 0x4EE DUP2 DUP5 PUSH2 0x47A JUMP JUMPDEST SWAP1 POP SWAP3 SWAP2 POP POP JUMP JUMPDEST PUSH32 0x4E487B7100000000000000000000000000000000000000000000000000000000 PUSH0 MSTORE PUSH1 0x32 PUSH1 0x4 MSTORE PUSH1 0x24 PUSH0 REVERT JUMPDEST PUSH32 0x4E487B7100000000000000000000000000000000000000000000000000000000 PUSH0 MSTORE PUSH1 0x11 PUSH1 0x4 MSTORE PUSH1 0x24 PUSH0 REVERT JUMPDEST PUSH0 PUSH2 0x55A DUP3 PUSH2 0x395 JUMP JUMPDEST SWAP2 POP PUSH2 0x565 DUP4 PUSH2 0x395 JUMP JUMPDEST SWAP3 POP DUP3 DUP3 ADD SWAP1 POP DUP1 DUP3 GT ISZERO PUSH2 0x57D JUMPI PUSH2 0x57C PUSH2 0x523 JUMP JUMPDEST JUMPDEST SWAP3 SWAP2 POP POP JUMP JUMPDEST PUSH32 0x4E487B7100000000000000000000000000000000000000000000000000000000 PUSH0 MSTORE PUSH1 0x12 PUSH1 0x4 MSTORE PUSH1 0x24 PUSH0 REVERT JUMPDEST PUSH0 PUSH2 0x5BA DUP3 PUSH2 0x395 JUMP JUMPDEST SWAP2 POP PUSH2 0x5C5 DUP4 PUSH2 0x395 JUMP JUMPDEST SWAP3 POP DUP3 PUSH2 0x5D5 JUMPI PUSH2 0x5D4 PUSH2 0x583 JUMP JUMPDEST JUMPDEST DUP3 DUP3 DIV SWAP1 POP SWAP3 SWAP2 POP POP JUMP JUMPDEST PUSH0 PUSH2 0x5EA DUP3 PUSH2 0x395 JUMP JUMPDEST SWAP2 POP PUSH2 0x5F5 DUP4 PUSH2 0x395 JUMP JUMPDEST SWAP3 POP DUP3 DUP3 SUB SWAP1 POP DUP2 DUP2 GT ISZERO PUSH2 0x60D JUMPI PUSH2 0x60C PUSH2 0x523 JUMP JUMPDEST JUMPDEST SWAP3 SWAP2 POP POP JUMP JUMPDEST PUSH32 0x4E487B7100000000000000000000000000000000000000000000000000000000 PUSH0 MSTORE PUSH1 0x41 PUSH1 0x4 MSTORE PUSH1 0x24 PUSH0 REVERT JUMPDEST PUSH0 PUSH2 0x64A DUP3 PUSH2 0x395 JUMP JUMPDEST SWAP2 POP PUSH2 0x655 DUP4 PUSH2 0x395 JUMP JUMPDEST SWAP3 POP DUP3 PUSH2 0x665 JUMPI PUSH2 0x664 PUSH2 0x583 JUMP JUMPDEST JUMPDEST DUP3 DUP3 MOD SWAP1 POP SWAP3 SWAP2 POP POP JUMP JUMPDEST PUSH0 PUSH2 0x67A DUP3 PUSH2 0x395 JUMP JUMPDEST SWAP2 POP PUSH32 0xFFFFFFFFFFFFFFFFFFFFFFFFFFFFFFFFFFFFFFFFFFFFFFFFFFFFFFFFFFFFFFFF DUP3 SUB PUSH2 0x6AC JUMPI PUSH2 0x6AB PUSH2 0x523 JUMP JUMPDEST JUMPDEST PUSH1 0x1 DUP3 ADD SWAP1 POP SWAP2 SWAP1 POP JUMP INVALID LOG2 PUSH5 0x6970667358 0x22 SLT KECCAK256 0x4A 0xAB PUSH14 0x472217AA268B02E6BD60E159F578 SWAP9 0x4F CODECOPY 0xCA 0xF8 0xB7 0x2B 0xB9 0xD0 0x5E 0xC0 0xE1 0xDF 0xC8 0xB3 PUSH5 0x736F6C6343 STOP ADDMOD OR STOP CALLER "
				},
				"gasEstimates": {
					"creation": {
						"codeDepositCost": "354600",
						"executionCost": "391",
						"totalCost": "354991"
					},
					"external": {
						"getArray()": "infinite",
						"getAverage()": "infinite",
						"getAverage2()": "infinite",
						"getN(uint256)": "infinite",
						"getNmultiple()": "infinite",
						"pushNumber(uint256)": "46820"
					}
				},
				"methodIdentifiers": {
					"getArray()": "d504ea1d",
					"getAverage()": "21055acb",
					"getAverage2()": "a8741db1",
					"getN(uint256)": "39139225",
					"getNmultiple()": "51e00531",
					"pushNumber(uint256)": "2bfe1805"
				}
			},
			"storageLayout": {
				"storage": [
					{
						"astId": 4,
						"contract": "average.sol:Average",
						"label": "numbers",
						"offset": 0,
						"slot": "0",
						"type": "t_array(t_uint256)dyn_storage"
					}
				],
				"types": {
					"t_array(t_uint256)dyn_storage": {
						"base": "t_uint256",
						"encoding": "dynamic_array",
						"label": "uint256[]",
						"numberOfBytes": "32"
					},
					"t_uint256": {
						"encoding": "inplace",
						"label": "uint256",
						"numberOfBytes": "32"
					}
				}
			},
			"userdoc": {
				"kind": "user",
				"methods": {},
				"version": 1
			}
		}
	}
}