{
	"test1222.sol": {
		"test": {
			"abi": [
				{
					"inputs": [],
					"name": "FClassInfo",
					"outputs": [
						{
							"internalType": "uint256",
							"name": "",
							"type": "uint256"
						},
						{
							"components": [
								{
									"internalType": "string",
									"name": "name",
									"type": "string"
								},
								{
									"internalType": "uint256",
									"name": "number",
									"type": "uint256"
								},
								{
									"internalType": "uint256",
									"name": "score",
									"type": "uint256"
								},
								{
									"internalType": "string",
									"name": "grade",
									"type": "string"
								},
								{
									"internalType": "string[]",
									"name": "classes",
									"type": "string[]"
								}
							],
							"internalType": "struct test.Student[]",
							"name": "",
							"type": "tuple[]"
						}
					],
					"stateMutability": "view",
					"type": "function"
				},
				{
					"inputs": [
						{
							"internalType": "string",
							"name": "_name",
							"type": "string"
						},
						{
							"internalType": "uint256",
							"name": "_score",
							"type": "uint256"
						},
						{
							"internalType": "string[]",
							"name": "_classes",
							"type": "string[]"
						}
					],
					"name": "addStudent",
					"outputs": [],
					"stateMutability": "nonpayable",
					"type": "function"
				},
				{
					"inputs": [],
					"name": "getAverageScore",
					"outputs": [
						{
							"internalType": "uint256",
							"name": "",
							"type": "uint256"
						}
					],
					"stateMutability": "view",
					"type": "function"
				},
				{
					"inputs": [],
					"name": "getNumberofStudents",
					"outputs": [
						{
							"internalType": "uint256",
							"name": "",
							"type": "uint256"
						}
					],
					"stateMutability": "view",
					"type": "function"
				},
				{
					"inputs": [
						{
							"internalType": "string",
							"name": "_name",
							"type": "string"
						}
					],
					"name": "getScoreByName",
					"outputs": [
						{
							"internalType": "uint256",
							"name": "",
							"type": "uint256"
						}
					],
					"stateMutability": "view",
					"type": "function"
				},
				{
					"inputs": [
						{
							"internalType": "string",
							"name": "_name",
							"type": "string"
						}
					],
					"name": "getStudentByName",
					"outputs": [
						{
							"components": [
								{
									"internalType": "string",
									"name": "name",
									"type": "string"
								},
								{
									"internalType": "uint256",
									"name": "number",
									"type": "uint256"
								},
								{
									"internalType": "uint256",
									"name": "score",
									"type": "uint256"
								},
								{
									"internalType": "string",
									"name": "grade",
									"type": "string"
								},
								{
									"internalType": "string[]",
									"name": "classes",
									"type": "string[]"
								}
							],
							"internalType": "struct test.Student",
							"name": "",
							"type": "tuple"
						}
					],
					"stateMutability": "view",
					"type": "function"
				},
				{
					"inputs": [
						{
							"internalType": "uint256",
							"name": "_n",
							"type": "uint256"
						}
					],
					"name": "getStudentByNumber",
					"outputs": [
						{
							"components": [
								{
									"internalType": "string",
									"name": "name",
									"type": "string"
								},
								{
									"internalType": "uint256",
									"name": "number",
									"type": "uint256"
								},
								{
									"internalType": "uint256",
									"name": "score",
									"type": "uint256"
								},
								{
									"internalType": "string",
									"name": "grade",
									"type": "string"
								},
								{
									"internalType": "string[]",
									"name": "classes",
									"type": "string[]"
								}
							],
							"internalType": "struct test.Student",
							"name": "",
							"type": "tuple"
						}
					],
					"stateMutability": "view",
					"type": "function"
				},
				{
					"inputs": [],
					"name": "getStudents",
					"outputs": [
						{
							"components": [
								{
									"internalType": "string",
									"name": "name",
									"type": "string"
								},
								{
									"internalType": "uint256",
									"name": "number",
									"type": "uint256"
								},
								{
									"internalType": "uint256",
									"name": "score",
									"type": "uint256"
								},
								{
									"internalType": "string",
									"name": "grade",
									"type": "string"
								},
								{
									"internalType": "string[]",
									"name": "classes",
									"type": "string[]"
								}
							],
							"internalType": "struct test.Student[]",
							"name": "",
							"type": "tuple[]"
						}
					],
					"stateMutability": "view",
					"type": "function"
				},
				{
					"inputs": [],
					"name": "isTeacherGood",
					"outputs": [
						{
							"internalType": "bool",
							"name": "",
							"type": "bool"
						}
					],
					"stateMutability": "view",
					"type": "function"
				},
				{
					"inputs": [
						{
							"internalType": "uint256",
							"name": "_n",
							"type": "uint256"
						}
					],
					"name": "setGrade",
					"outputs": [
						{
							"internalType": "string",
							"name": "",
							"type": "string"
						}
					],
					"stateMutability": "pure",
					"type": "function"
				}
			],
			"devdoc": {
				"kind": "dev",
				"methods": {},
				"version": 1
			},
			"evm": {
				"assembly": "    /* \"test1222.sol\":57:2187  contract test {... */\n  mstore(0x40, 0x80)\n  callvalue\n  dup1\n  iszero\n  tag_1\n  jumpi\n  0x00\n  dup1\n  revert\ntag_1:\n  pop\n  dataSize(sub_0)\n  dup1\n  dataOffset(sub_0)\n  0x00\n  codecopy\n  0x00\n  return\nstop\n\nsub_0: assembly {\n        /* \"test1222.sol\":57:2187  contract test {... */\n      mstore(0x40, 0x80)\n      callvalue\n      dup1\n      iszero\n      tag_1\n      jumpi\n      0x00\n      dup1\n      revert\n    tag_1:\n      pop\n      jumpi(tag_2, lt(calldatasize, 0x04))\n      shr(0xe0, calldataload(0x00))\n      dup1\n      0x9b57ee3d\n      gt\n      tag_13\n      jumpi\n      dup1\n      0x9b57ee3d\n      eq\n      tag_8\n      jumpi\n      dup1\n      0xa41f985e\n      eq\n      tag_9\n      jumpi\n      dup1\n      0xc7e56ae3\n      eq\n      tag_10\n      jumpi\n      dup1\n      0xdf72cdbf\n      eq\n      tag_11\n      jumpi\n      dup1\n      0xf1d064b3\n      eq\n      tag_12\n      jumpi\n      jump(tag_2)\n    tag_13:\n      dup1\n      0x140f6b29\n      eq\n      tag_3\n      jumpi\n      dup1\n      0x2c78ec94\n      eq\n      tag_4\n      jumpi\n      dup1\n      0x674271cd\n      eq\n      tag_5\n      jumpi\n      dup1\n      0x6a76bf66\n      eq\n      tag_6\n      jumpi\n      dup1\n      0x83b41ad8\n      eq\n      tag_7\n      jumpi\n    tag_2:\n      0x00\n      dup1\n      revert\n        /* \"test1222.sol\":1571:1667  function getNumberofStudents() public view returns(uint) {... */\n    tag_3:\n      tag_14\n      tag_15\n      jump\t// in\n    tag_14:\n      mload(0x40)\n      tag_16\n      swap2\n      swap1\n      tag_17\n      jump\t// in\n    tag_16:\n      mload(0x40)\n      dup1\n      swap2\n      sub\n      swap1\n      return\n        /* \"test1222.sol\":1443:1565  function getScoreByName(string memory _name) public view returns(uint) {... */\n    tag_4:\n      tag_18\n      0x04\n      dup1\n      calldatasize\n      sub\n      dup2\n      add\n      swap1\n      tag_19\n      swap2\n      swap1\n      tag_20\n      jump\t// in\n    tag_19:\n      tag_21\n      jump\t// in\n    tag_18:\n      mload(0x40)\n      tag_22\n      swap2\n      swap1\n      tag_17\n      jump\t// in\n    tag_22:\n      mload(0x40)\n      dup1\n      swap2\n      sub\n      swap1\n      return\n        /* \"test1222.sol\":315:644  function setGrade(uint _n) public pure returns(string memory) {... */\n    tag_5:\n      tag_23\n      0x04\n      dup1\n      calldatasize\n      sub\n      dup2\n      add\n      swap1\n      tag_24\n      swap2\n      swap1\n      tag_25\n      jump\t// in\n    tag_24:\n      tag_26\n      jump\t// in\n    tag_23:\n      mload(0x40)\n      tag_27\n      swap2\n      swap1\n      tag_28\n      jump\t// in\n    tag_27:\n      mload(0x40)\n      dup1\n      swap2\n      sub\n      swap1\n      return\n        /* \"test1222.sol\":2066:2184  function FClassInfo() public view returns(uint, Student[] memory) {... */\n    tag_6:\n      tag_29\n      tag_30\n      jump\t// in\n    tag_29:\n      mload(0x40)\n      tag_31\n      swap3\n      swap2\n      swap1\n      tag_32\n      jump\t// in\n    tag_31:\n      mload(0x40)\n      dup1\n      swap2\n      sub\n      swap1\n      return\n        /* \"test1222.sol\":1309:1437  function getStudentByName(string memory _name) public view returns(Student memory) {... */\n    tag_7:\n      tag_33\n      0x04\n      dup1\n      calldatasize\n      sub\n      dup2\n      add\n      swap1\n      tag_34\n      swap2\n      swap1\n      tag_20\n      jump\t// in\n    tag_34:\n      tag_35\n      jump\t// in\n    tag_33:\n      mload(0x40)\n      tag_36\n      swap2\n      swap1\n      tag_37\n      jump\t// in\n    tag_36:\n      mload(0x40)\n      dup1\n      swap2\n      sub\n      swap1\n      return\n        /* \"test1222.sol\":1895:2058  function isTeacherGood() public view returns(bool) {... */\n    tag_8:\n      tag_38\n      tag_39\n      jump\t// in\n    tag_38:\n      mload(0x40)\n      tag_40\n      swap2\n      swap1\n      tag_41\n      jump\t// in\n    tag_40:\n      mload(0x40)\n      dup1\n      swap2\n      sub\n      swap1\n      return\n        /* \"test1222.sol\":1190:1303  function getStudentByNumber(uint _n) public view returns(Student memory) {... */\n    tag_9:\n      tag_42\n      0x04\n      dup1\n      calldatasize\n      sub\n      dup2\n      add\n      swap1\n      tag_43\n      swap2\n      swap1\n      tag_25\n      jump\t// in\n    tag_43:\n      tag_44\n      jump\t// in\n    tag_42:\n      mload(0x40)\n      tag_45\n      swap2\n      swap1\n      tag_37\n      jump\t// in\n    tag_45:\n      mload(0x40)\n      dup1\n      swap2\n      sub\n      swap1\n      return\n        /* \"test1222.sol\":650:1085  function addStudent(string memory _name, uint _score, string[] memory _classes) public {... */\n    tag_10:\n      tag_46\n      0x04\n      dup1\n      calldatasize\n      sub\n      dup2\n      add\n      swap1\n      tag_47\n      swap2\n      swap1\n      tag_48\n      jump\t// in\n    tag_47:\n      tag_49\n      jump\t// in\n    tag_46:\n      stop\n        /* \"test1222.sol\":1673:1889  function getAverageScore() public view returns(uint) {... */\n    tag_11:\n      tag_50\n      tag_51\n      jump\t// in\n    tag_50:\n      mload(0x40)\n      tag_52\n      swap2\n      swap1\n      tag_17\n      jump\t// in\n    tag_52:\n      mload(0x40)\n      dup1\n      swap2\n      sub\n      swap1\n      return\n        /* \"test1222.sol\":1091:1184  function getStudents() public view returns(Student[] memory) {... */\n    tag_12:\n      tag_53\n      tag_54\n      jump\t// in\n    tag_53:\n      mload(0x40)\n      tag_55\n      swap2\n      swap1\n      tag_56\n      jump\t// in\n    tag_55:\n      mload(0x40)\n      dup1\n      swap2\n      sub\n      swap1\n      return\n        /* \"test1222.sol\":1571:1667  function getNumberofStudents() public view returns(uint) {... */\n    tag_15:\n        /* \"test1222.sol\":1622:1626  uint */\n      0x00\n        /* \"test1222.sol\":1645:1653  students */\n      0x01\n        /* \"test1222.sol\":1645:1660  students.length */\n      dup1\n      sload\n      swap1\n      pop\n        /* \"test1222.sol\":1638:1660  return students.length */\n      swap1\n      pop\n        /* \"test1222.sol\":1571:1667  function getNumberofStudents() public view returns(uint) {... */\n      swap1\n      jump\t// out\n        /* \"test1222.sol\":1443:1565  function getScoreByName(string memory _name) public view returns(uint) {... */\n    tag_21:\n        /* \"test1222.sol\":1508:1512  uint */\n      0x00\n        /* \"test1222.sol\":1531:1545  studentsByName */\n      dup1\n        /* \"test1222.sol\":1546:1551  _name */\n      dup3\n        /* \"test1222.sol\":1531:1552  studentsByName[_name] */\n      mload(0x40)\n      tag_59\n      swap2\n      swap1\n      tag_60\n      jump\t// in\n    tag_59:\n      swap1\n      dup2\n      mstore\n      0x20\n      add\n      mload(0x40)\n      dup1\n      swap2\n      sub\n      swap1\n      keccak256\n        /* \"test1222.sol\":1531:1558  studentsByName[_name].score */\n      0x02\n      add\n      sload\n        /* \"test1222.sol\":1524:1558  return studentsByName[_name].score */\n      swap1\n      pop\n        /* \"test1222.sol\":1443:1565  function getScoreByName(string memory _name) public view returns(uint) {... */\n      swap2\n      swap1\n      pop\n      jump\t// out\n        /* \"test1222.sol\":315:644  function setGrade(uint _n) public pure returns(string memory) {... */\n    tag_26:\n        /* \"test1222.sol\":362:375  string memory */\n      0x60\n        /* \"test1222.sol\":396:398  90 */\n      0x5a\n        /* \"test1222.sol\":390:392  _n */\n      dup3\n        /* \"test1222.sol\":390:398  _n >= 90 */\n      lt\n        /* \"test1222.sol\":387:638  if(_n >= 90) {... */\n      tag_62\n      jumpi\n        /* \"test1222.sol\":414:424  return \"A\" */\n      mload(0x40)\n      dup1\n      0x40\n      add\n      0x40\n      mstore\n      dup1\n      0x01\n      dup2\n      mstore\n      0x20\n      add\n      0x4100000000000000000000000000000000000000000000000000000000000000\n      dup2\n      mstore\n      pop\n      swap1\n      pop\n      jump(tag_61)\n        /* \"test1222.sol\":387:638  if(_n >= 90) {... */\n    tag_62:\n        /* \"test1222.sol\":450:452  80 */\n      0x50\n        /* \"test1222.sol\":444:446  _n */\n      dup3\n        /* \"test1222.sol\":444:452  _n >= 80 */\n      lt\n        /* \"test1222.sol\":441:638  if(_n >= 80) {... */\n      tag_64\n      jumpi\n        /* \"test1222.sol\":468:478  return \"B\" */\n      mload(0x40)\n      dup1\n      0x40\n      add\n      0x40\n      mstore\n      dup1\n      0x01\n      dup2\n      mstore\n      0x20\n      add\n      0x4200000000000000000000000000000000000000000000000000000000000000\n      dup2\n      mstore\n      pop\n      swap1\n      pop\n      jump(tag_61)\n        /* \"test1222.sol\":441:638  if(_n >= 80) {... */\n    tag_64:\n        /* \"test1222.sol\":504:506  70 */\n      0x46\n        /* \"test1222.sol\":498:500  _n */\n      dup3\n        /* \"test1222.sol\":498:506  _n >= 70 */\n      lt\n        /* \"test1222.sol\":495:638  if(_n >= 70) {... */\n      tag_66\n      jumpi\n        /* \"test1222.sol\":522:532  return \"C\" */\n      mload(0x40)\n      dup1\n      0x40\n      add\n      0x40\n      mstore\n      dup1\n      0x01\n      dup2\n      mstore\n      0x20\n      add\n      0x4300000000000000000000000000000000000000000000000000000000000000\n      dup2\n      mstore\n      pop\n      swap1\n      pop\n      jump(tag_61)\n        /* \"test1222.sol\":495:638  if(_n >= 70) {... */\n    tag_66:\n        /* \"test1222.sol\":558:560  60 */\n      0x3c\n        /* \"test1222.sol\":552:554  _n */\n      dup3\n        /* \"test1222.sol\":552:560  _n >= 60 */\n      lt\n        /* \"test1222.sol\":549:638  if(_n >= 60) {... */\n      tag_68\n      jumpi\n        /* \"test1222.sol\":576:586  return \"D\" */\n      mload(0x40)\n      dup1\n      0x40\n      add\n      0x40\n      mstore\n      dup1\n      0x01\n      dup2\n      mstore\n      0x20\n      add\n      0x4400000000000000000000000000000000000000000000000000000000000000\n      dup2\n      mstore\n      pop\n      swap1\n      pop\n      jump(tag_61)\n        /* \"test1222.sol\":549:638  if(_n >= 60) {... */\n    tag_68:\n        /* \"test1222.sol\":617:627  return \"F\" */\n      mload(0x40)\n      dup1\n      0x40\n      add\n      0x40\n      mstore\n      dup1\n      0x01\n      dup2\n      mstore\n      0x20\n      add\n      0x4600000000000000000000000000000000000000000000000000000000000000\n      dup2\n      mstore\n      pop\n      swap1\n      pop\n        /* \"test1222.sol\":315:644  function setGrade(uint _n) public pure returns(string memory) {... */\n    tag_61:\n      swap2\n      swap1\n      pop\n      jump\t// out\n        /* \"test1222.sol\":2066:2184  function FClassInfo() public view returns(uint, Student[] memory) {... */\n    tag_30:\n        /* \"test1222.sol\":2108:2112  uint */\n      0x00\n        /* \"test1222.sol\":2114:2130  Student[] memory */\n      0x60\n        /* \"test1222.sol\":2149:2158  Fstudents */\n      0x02\n        /* \"test1222.sol\":2149:2165  Fstudents.length */\n      dup1\n      sload\n      swap1\n      pop\n        /* \"test1222.sol\":2167:2176  Fstudents */\n      0x02\n        /* \"test1222.sol\":2142:2177  return(Fstudents.length, Fstudents) */\n      dup1\n      dup1\n      sload\n      dup1\n      0x20\n      mul\n      0x20\n      add\n      mload(0x40)\n      swap1\n      dup2\n      add\n      0x40\n      mstore\n      dup1\n      swap3\n      swap2\n      swap1\n      dup2\n      dup2\n      mstore\n      0x20\n      add\n      0x00\n      swap1\n    tag_71:\n      dup3\n      dup3\n      lt\n      iszero\n      tag_72\n      jumpi\n      dup4\n      dup3\n      swap1\n      0x00\n      mstore\n      keccak256(0x00, 0x20)\n      swap1\n      0x05\n      mul\n      add\n      mload(0x40)\n      dup1\n      0xa0\n      add\n      0x40\n      mstore\n      swap1\n      dup2\n      0x00\n      dup3\n      add\n      dup1\n      sload\n      tag_74\n      swap1\n      tag_75\n      jump\t// in\n    tag_74:\n      dup1\n      0x1f\n      add\n      0x20\n      dup1\n      swap2\n      div\n      mul\n      0x20\n      add\n      mload(0x40)\n      swap1\n      dup2\n      add\n      0x40\n      mstore\n      dup1\n      swap3\n      swap2\n      swap1\n      dup2\n      dup2\n      mstore\n      0x20\n      add\n      dup3\n      dup1\n      sload\n      tag_76\n      swap1\n      tag_75\n      jump\t// in\n    tag_76:\n      dup1\n      iszero\n      tag_77\n      jumpi\n      dup1\n      0x1f\n      lt\n      tag_78\n      jumpi\n      0x0100\n      dup1\n      dup4\n      sload\n      div\n      mul\n      dup4\n      mstore\n      swap2\n      0x20\n      add\n      swap2\n      jump(tag_77)\n    tag_78:\n      dup3\n      add\n      swap2\n      swap1\n      0x00\n      mstore\n      keccak256(0x00, 0x20)\n      swap1\n    tag_79:\n      dup2\n      sload\n      dup2\n      mstore\n      swap1\n      0x01\n      add\n      swap1\n      0x20\n      add\n      dup1\n      dup4\n      gt\n      tag_79\n      jumpi\n      dup3\n      swap1\n      sub\n      0x1f\n      and\n      dup3\n      add\n      swap2\n    tag_77:\n      pop\n      pop\n      pop\n      pop\n      pop\n      dup2\n      mstore\n      0x20\n      add\n      0x01\n      dup3\n      add\n      sload\n      dup2\n      mstore\n      0x20\n      add\n      0x02\n      dup3\n      add\n      sload\n      dup2\n      mstore\n      0x20\n      add\n      0x03\n      dup3\n      add\n      dup1\n      sload\n      tag_80\n      swap1\n      tag_75\n      jump\t// in\n    tag_80:\n      dup1\n      0x1f\n      add\n      0x20\n      dup1\n      swap2\n      div\n      mul\n      0x20\n      add\n      mload(0x40)\n      swap1\n      dup2\n      add\n      0x40\n      mstore\n      dup1\n      swap3\n      swap2\n      swap1\n      dup2\n      dup2\n      mstore\n      0x20\n      add\n      dup3\n      dup1\n      sload\n      tag_81\n      swap1\n      tag_75\n      jump\t// in\n    tag_81:\n      dup1\n      iszero\n      tag_82\n      jumpi\n      dup1\n      0x1f\n      lt\n      tag_83\n      jumpi\n      0x0100\n      dup1\n      dup4\n      sload\n      div\n      mul\n      dup4\n      mstore\n      swap2\n      0x20\n      add\n      swap2\n      jump(tag_82)\n    tag_83:\n      dup3\n      add\n      swap2\n      swap1\n      0x00\n      mstore\n      keccak256(0x00, 0x20)\n      swap1\n    tag_84:\n      dup2\n      sload\n      dup2\n      mstore\n      swap1\n      0x01\n      add\n      swap1\n      0x20\n      add\n      dup1\n      dup4\n      gt\n      tag_84\n      jumpi\n      dup3\n      swap1\n      sub\n      0x1f\n      and\n      dup3\n      add\n      swap2\n    tag_82:\n      pop\n      pop\n      pop\n      pop\n      pop\n      dup2\n      mstore\n      0x20\n      add\n      0x04\n      dup3\n      add\n      dup1\n      sload\n      dup1\n      0x20\n      mul\n      0x20\n      add\n      mload(0x40)\n      swap1\n      dup2\n      add\n      0x40\n      mstore\n      dup1\n      swap3\n      swap2\n      swap1\n      dup2\n      dup2\n      mstore\n      0x20\n      add\n      0x00\n      swap1\n    tag_85:\n      dup3\n      dup3\n      lt\n      iszero\n      tag_86\n      jumpi\n      dup4\n      dup3\n      swap1\n      0x00\n      mstore\n      keccak256(0x00, 0x20)\n      add\n      dup1\n      sload\n      tag_88\n      swap1\n      tag_75\n      jump\t// in\n    tag_88:\n      dup1\n      0x1f\n      add\n      0x20\n      dup1\n      swap2\n      div\n      mul\n      0x20\n      add\n      mload(0x40)\n      swap1\n      dup2\n      add\n      0x40\n      mstore\n      dup1\n      swap3\n      swap2\n      swap1\n      dup2\n      dup2\n      mstore\n      0x20\n      add\n      dup3\n      dup1\n      sload\n      tag_89\n      swap1\n      tag_75\n      jump\t// in\n    tag_89:\n      dup1\n      iszero\n      tag_90\n      jumpi\n      dup1\n      0x1f\n      lt\n      tag_91\n      jumpi\n      0x0100\n      dup1\n      dup4\n      sload\n      div\n      mul\n      dup4\n      mstore\n      swap2\n      0x20\n      add\n      swap2\n      jump(tag_90)\n    tag_91:\n      dup3\n      add\n      swap2\n      swap1\n      0x00\n      mstore\n      keccak256(0x00, 0x20)\n      swap1\n    tag_92:\n      dup2\n      sload\n      dup2\n      mstore\n      swap1\n      0x01\n      add\n      swap1\n      0x20\n      add\n      dup1\n      dup4\n      gt\n      tag_92\n      jumpi\n      dup3\n      swap1\n      sub\n      0x1f\n      and\n      dup3\n      add\n      swap2\n    tag_90:\n      pop\n      pop\n      pop\n      pop\n      pop\n      dup2\n      mstore\n      0x20\n      add\n      swap1\n      0x01\n      add\n      swap1\n      jump(tag_85)\n    tag_86:\n      pop\n      pop\n      pop\n      pop\n      dup2\n      mstore\n      pop\n      pop\n      dup2\n      mstore\n      0x20\n      add\n      swap1\n      0x01\n      add\n      swap1\n      jump(tag_71)\n    tag_72:\n      pop\n      pop\n      pop\n      pop\n      swap1\n      pop\n      swap2\n      pop\n      swap2\n      pop\n        /* \"test1222.sol\":2066:2184  function FClassInfo() public view returns(uint, Student[] memory) {... */\n      swap1\n      swap2\n      jump\t// out\n        /* \"test1222.sol\":1309:1437  function getStudentByName(string memory _name) public view returns(Student memory) {... */\n    tag_35:\n        /* \"test1222.sol\":1376:1390  Student memory */\n      tag_93\n      tag_94\n      jump\t// in\n    tag_93:\n        /* \"test1222.sol\":1409:1423  studentsByName */\n      0x00\n        /* \"test1222.sol\":1424:1429  _name */\n      dup3\n        /* \"test1222.sol\":1409:1430  studentsByName[_name] */\n      mload(0x40)\n      tag_96\n      swap2\n      swap1\n      tag_60\n      jump\t// in\n    tag_96:\n      swap1\n      dup2\n      mstore\n      0x20\n      add\n      mload(0x40)\n      dup1\n      swap2\n      sub\n      swap1\n      keccak256\n        /* \"test1222.sol\":1402:1430  return studentsByName[_name] */\n      mload(0x40)\n      dup1\n      0xa0\n      add\n      0x40\n      mstore\n      swap1\n      dup2\n      0x00\n      dup3\n      add\n      dup1\n      sload\n      tag_97\n      swap1\n      tag_75\n      jump\t// in\n    tag_97:\n      dup1\n      0x1f\n      add\n      0x20\n      dup1\n      swap2\n      div\n      mul\n      0x20\n      add\n      mload(0x40)\n      swap1\n      dup2\n      add\n      0x40\n      mstore\n      dup1\n      swap3\n      swap2\n      swap1\n      dup2\n      dup2\n      mstore\n      0x20\n      add\n      dup3\n      dup1\n      sload\n      tag_98\n      swap1\n      tag_75\n      jump\t// in\n    tag_98:\n      dup1\n      iszero\n      tag_99\n      jumpi\n      dup1\n      0x1f\n      lt\n      tag_100\n      jumpi\n      0x0100\n      dup1\n      dup4\n      sload\n      div\n      mul\n      dup4\n      mstore\n      swap2\n      0x20\n      add\n      swap2\n      jump(tag_99)\n    tag_100:\n      dup3\n      add\n      swap2\n      swap1\n      0x00\n      mstore\n      keccak256(0x00, 0x20)\n      swap1\n    tag_101:\n      dup2\n      sload\n      dup2\n      mstore\n      swap1\n      0x01\n      add\n      swap1\n      0x20\n      add\n      dup1\n      dup4\n      gt\n      tag_101\n      jumpi\n      dup3\n      swap1\n      sub\n      0x1f\n      and\n      dup3\n      add\n      swap2\n    tag_99:\n      pop\n      pop\n      pop\n      pop\n      pop\n      dup2\n      mstore\n      0x20\n      add\n      0x01\n      dup3\n      add\n      sload\n      dup2\n      mstore\n      0x20\n      add\n      0x02\n      dup3\n      add\n      sload\n      dup2\n      mstore\n      0x20\n      add\n      0x03\n      dup3\n      add\n      dup1\n      sload\n      tag_102\n      swap1\n      tag_75\n      jump\t// in\n    tag_102:\n      dup1\n      0x1f\n      add\n      0x20\n      dup1\n      swap2\n      div\n      mul\n      0x20\n      add\n      mload(0x40)\n      swap1\n      dup2\n      add\n      0x40\n      mstore\n      dup1\n      swap3\n      swap2\n      swap1\n      dup2\n      dup2\n      mstore\n      0x20\n      add\n      dup3\n      dup1\n      sload\n      tag_103\n      swap1\n      tag_75\n      jump\t// in\n    tag_103:\n      dup1\n      iszero\n      tag_104\n      jumpi\n      dup1\n      0x1f\n      lt\n      tag_105\n      jumpi\n      0x0100\n      dup1\n      dup4\n      sload\n      div\n      mul\n      dup4\n      mstore\n      swap2\n      0x20\n      add\n      swap2\n      jump(tag_104)\n    tag_105:\n      dup3\n      add\n      swap2\n      swap1\n      0x00\n      mstore\n      keccak256(0x00, 0x20)\n      swap1\n    tag_106:\n      dup2\n      sload\n      dup2\n      mstore\n      swap1\n      0x01\n      add\n      swap1\n      0x20\n      add\n      dup1\n      dup4\n      gt\n      tag_106\n      jumpi\n      dup3\n      swap1\n      sub\n      0x1f\n      and\n      dup3\n      add\n      swap2\n    tag_104:\n      pop\n      pop\n      pop\n      pop\n      pop\n      dup2\n      mstore\n      0x20\n      add\n      0x04\n      dup3\n      add\n      dup1\n      sload\n      dup1\n      0x20\n      mul\n      0x20\n      add\n      mload(0x40)\n      swap1\n      dup2\n      add\n      0x40\n      mstore\n      dup1\n      swap3\n      swap2\n      swap1\n      dup2\n      dup2\n      mstore\n      0x20\n      add\n      0x00\n      swap1\n    tag_107:\n      dup3\n      dup3\n      lt\n      iszero\n      tag_108\n      jumpi\n      dup4\n      dup3\n      swap1\n      0x00\n      mstore\n      keccak256(0x00, 0x20)\n      add\n      dup1\n      sload\n      tag_110\n      swap1\n      tag_75\n      jump\t// in\n    tag_110:\n      dup1\n      0x1f\n      add\n      0x20\n      dup1\n      swap2\n      div\n      mul\n      0x20\n      add\n      mload(0x40)\n      swap1\n      dup2\n      add\n      0x40\n      mstore\n      dup1\n      swap3\n      swap2\n      swap1\n      dup2\n      dup2\n      mstore\n      0x20\n      add\n      dup3\n      dup1\n      sload\n      tag_111\n      swap1\n      tag_75\n      jump\t// in\n    tag_111:\n      dup1\n      iszero\n      tag_112\n      jumpi\n      dup1\n      0x1f\n      lt\n      tag_113\n      jumpi\n      0x0100\n      dup1\n      dup4\n      sload\n      div\n      mul\n      dup4\n      mstore\n      swap2\n      0x20\n      add\n      swap2\n      jump(tag_112)\n    tag_113:\n      dup3\n      add\n      swap2\n      swap1\n      0x00\n      mstore\n      keccak256(0x00, 0x20)\n      swap1\n    tag_114:\n      dup2\n      sload\n      dup2\n      mstore\n      swap1\n      0x01\n      add\n      swap1\n      0x20\n      add\n      dup1\n      dup4\n      gt\n      tag_114\n      jumpi\n      dup3\n      swap1\n      sub\n      0x1f\n      and\n      dup3\n      add\n      swap2\n    tag_112:\n      pop\n      pop\n      pop\n      pop\n      pop\n      dup2\n      mstore\n      0x20\n      add\n      swap1\n      0x01\n      add\n      swap1\n      jump(tag_107)\n    tag_108:\n      pop\n      pop\n      pop\n      pop\n      dup2\n      mstore\n      pop\n      pop\n      swap1\n      pop\n        /* \"test1222.sol\":1309:1437  function getStudentByName(string memory _name) public view returns(Student memory) {... */\n      swap2\n      swap1\n      pop\n      jump\t// out\n        /* \"test1222.sol\":1895:2058  function isTeacherGood() public view returns(bool) {... */\n    tag_39:\n        /* \"test1222.sol\":1940:1944  bool */\n      0x00\n        /* \"test1222.sol\":1979:1981  70 */\n      0x46\n        /* \"test1222.sol\":1958:1975  getAverageScore() */\n      tag_116\n        /* \"test1222.sol\":1958:1973  getAverageScore */\n      tag_51\n        /* \"test1222.sol\":1958:1975  getAverageScore() */\n      jump\t// in\n    tag_116:\n        /* \"test1222.sol\":1958:1981  getAverageScore() >= 70 */\n      lt\n        /* \"test1222.sol\":1955:2052  if(getAverageScore() >= 70) {... */\n      tag_117\n      jumpi\n        /* \"test1222.sol\":2000:2004  true */\n      0x01\n        /* \"test1222.sol\":1993:2004  return true */\n      swap1\n      pop\n      jump(tag_115)\n        /* \"test1222.sol\":1955:2052  if(getAverageScore() >= 70) {... */\n    tag_117:\n        /* \"test1222.sol\":2037:2042  false */\n      0x00\n        /* \"test1222.sol\":2030:2042  return false */\n      swap1\n      pop\n        /* \"test1222.sol\":1895:2058  function isTeacherGood() public view returns(bool) {... */\n    tag_115:\n      swap1\n      jump\t// out\n        /* \"test1222.sol\":1190:1303  function getStudentByNumber(uint _n) public view returns(Student memory) {... */\n    tag_44:\n        /* \"test1222.sol\":1247:1261  Student memory */\n      tag_119\n      tag_94\n      jump\t// in\n    tag_119:\n        /* \"test1222.sol\":1280:1288  students */\n      0x01\n        /* \"test1222.sol\":1294:1295  1 */\n      dup1\n        /* \"test1222.sol\":1289:1291  _n */\n      dup4\n        /* \"test1222.sol\":1289:1295  _n - 1 */\n      tag_121\n      swap2\n      swap1\n      tag_122\n      jump\t// in\n    tag_121:\n        /* \"test1222.sol\":1280:1296  students[_n - 1] */\n      dup2\n      sload\n      dup2\n      lt\n      tag_123\n      jumpi\n      tag_124\n      tag_125\n      jump\t// in\n    tag_124:\n    tag_123:\n      swap1\n      0x00\n      mstore\n      keccak256(0x00, 0x20)\n      swap1\n      0x05\n      mul\n      add\n        /* \"test1222.sol\":1273:1296  return students[_n - 1] */\n      mload(0x40)\n      dup1\n      0xa0\n      add\n      0x40\n      mstore\n      swap1\n      dup2\n      0x00\n      dup3\n      add\n      dup1\n      sload\n      tag_127\n      swap1\n      tag_75\n      jump\t// in\n    tag_127:\n      dup1\n      0x1f\n      add\n      0x20\n      dup1\n      swap2\n      div\n      mul\n      0x20\n      add\n      mload(0x40)\n      swap1\n      dup2\n      add\n      0x40\n      mstore\n      dup1\n      swap3\n      swap2\n      swap1\n      dup2\n      dup2\n      mstore\n      0x20\n      add\n      dup3\n      dup1\n      sload\n      tag_128\n      swap1\n      tag_75\n      jump\t// in\n    tag_128:\n      dup1\n      iszero\n      tag_129\n      jumpi\n      dup1\n      0x1f\n      lt\n      tag_130\n      jumpi\n      0x0100\n      dup1\n      dup4\n      sload\n      div\n      mul\n      dup4\n      mstore\n      swap2\n      0x20\n      add\n      swap2\n      jump(tag_129)\n    tag_130:\n      dup3\n      add\n      swap2\n      swap1\n      0x00\n      mstore\n      keccak256(0x00, 0x20)\n      swap1\n    tag_131:\n      dup2\n      sload\n      dup2\n      mstore\n      swap1\n      0x01\n      add\n      swap1\n      0x20\n      add\n      dup1\n      dup4\n      gt\n      tag_131\n      jumpi\n      dup3\n      swap1\n      sub\n      0x1f\n      and\n      dup3\n      add\n      swap2\n    tag_129:\n      pop\n      pop\n      pop\n      pop\n      pop\n      dup2\n      mstore\n      0x20\n      add\n      0x01\n      dup3\n      add\n      sload\n      dup2\n      mstore\n      0x20\n      add\n      0x02\n      dup3\n      add\n      sload\n      dup2\n      mstore\n      0x20\n      add\n      0x03\n      dup3\n      add\n      dup1\n      sload\n      tag_132\n      swap1\n      tag_75\n      jump\t// in\n    tag_132:\n      dup1\n      0x1f\n      add\n      0x20\n      dup1\n      swap2\n      div\n      mul\n      0x20\n      add\n      mload(0x40)\n      swap1\n      dup2\n      add\n      0x40\n      mstore\n      dup1\n      swap3\n      swap2\n      swap1\n      dup2\n      dup2\n      mstore\n      0x20\n      add\n      dup3\n      dup1\n      sload\n      tag_133\n      swap1\n      tag_75\n      jump\t// in\n    tag_133:\n      dup1\n      iszero\n      tag_134\n      jumpi\n      dup1\n      0x1f\n      lt\n      tag_135\n      jumpi\n      0x0100\n      dup1\n      dup4\n      sload\n      div\n      mul\n      dup4\n      mstore\n      swap2\n      0x20\n      add\n      swap2\n      jump(tag_134)\n    tag_135:\n      dup3\n      add\n      swap2\n      swap1\n      0x00\n      mstore\n      keccak256(0x00, 0x20)\n      swap1\n    tag_136:\n      dup2\n      sload\n      dup2\n      mstore\n      swap1\n      0x01\n      add\n      swap1\n      0x20\n      add\n      dup1\n      dup4\n      gt\n      tag_136\n      jumpi\n      dup3\n      swap1\n      sub\n      0x1f\n      and\n      dup3\n      add\n      swap2\n    tag_134:\n      pop\n      pop\n      pop\n      pop\n      pop\n      dup2\n      mstore\n      0x20\n      add\n      0x04\n      dup3\n      add\n      dup1\n      sload\n      dup1\n      0x20\n      mul\n      0x20\n      add\n      mload(0x40)\n      swap1\n      dup2\n      add\n      0x40\n      mstore\n      dup1\n      swap3\n      swap2\n      swap1\n      dup2\n      dup2\n      mstore\n      0x20\n      add\n      0x00\n      swap1\n    tag_137:\n      dup3\n      dup3\n      lt\n      iszero\n      tag_138\n      jumpi\n      dup4\n      dup3\n      swap1\n      0x00\n      mstore\n      keccak256(0x00, 0x20)\n      add\n      dup1\n      sload\n      tag_140\n      swap1\n      tag_75\n      jump\t// in\n    tag_140:\n      dup1\n      0x1f\n      add\n      0x20\n      dup1\n      swap2\n      div\n      mul\n      0x20\n      add\n      mload(0x40)\n      swap1\n      dup2\n      add\n      0x40\n      mstore\n      dup1\n      swap3\n      swap2\n      swap1\n      dup2\n      dup2\n      mstore\n      0x20\n      add\n      dup3\n      dup1\n      sload\n      tag_141\n      swap1\n      tag_75\n      jump\t// in\n    tag_141:\n      dup1\n      iszero\n      tag_142\n      jumpi\n      dup1\n      0x1f\n      lt\n      tag_143\n      jumpi\n      0x0100\n      dup1\n      dup4\n      sload\n      div\n      mul\n      dup4\n      mstore\n      swap2\n      0x20\n      add\n      swap2\n      jump(tag_142)\n    tag_143:\n      dup3\n      add\n      swap2\n      swap1\n      0x00\n      mstore\n      keccak256(0x00, 0x20)\n      swap1\n    tag_144:\n      dup2\n      sload\n      dup2\n      mstore\n      swap1\n      0x01\n      add\n      swap1\n      0x20\n      add\n      dup1\n      dup4\n      gt\n      tag_144\n      jumpi\n      dup3\n      swap1\n      sub\n      0x1f\n      and\n      dup3\n      add\n      swap2\n    tag_142:\n      pop\n      pop\n      pop\n      pop\n      pop\n      dup2\n      mstore\n      0x20\n      add\n      swap1\n      0x01\n      add\n      swap1\n      jump(tag_137)\n    tag_138:\n      pop\n      pop\n      pop\n      pop\n      dup2\n      mstore\n      pop\n      pop\n      swap1\n      pop\n        /* \"test1222.sol\":1190:1303  function getStudentByNumber(uint _n) public view returns(Student memory) {... */\n      swap2\n      swap1\n      pop\n      jump\t// out\n        /* \"test1222.sol\":650:1085  function addStudent(string memory _name, uint _score, string[] memory _classes) public {... */\n    tag_49:\n        /* \"test1222.sol\":747:755  students */\n      0x01\n        /* \"test1222.sol\":761:832  Student(_name, students.length + 1, _score, setGrade(_score), _classes) */\n      mload(0x40)\n      dup1\n      0xa0\n      add\n      0x40\n      mstore\n      dup1\n        /* \"test1222.sol\":769:774  _name */\n      dup6\n        /* \"test1222.sol\":761:832  Student(_name, students.length + 1, _score, setGrade(_score), _classes) */\n      dup2\n      mstore\n      0x20\n      add\n        /* \"test1222.sol\":794:795  1 */\n      0x01\n        /* \"test1222.sol\":776:784  students */\n      dup1\n        /* \"test1222.sol\":776:791  students.length */\n      dup1\n      sload\n      swap1\n      pop\n        /* \"test1222.sol\":776:795  students.length + 1 */\n      tag_146\n      swap2\n      swap1\n      tag_147\n      jump\t// in\n    tag_146:\n        /* \"test1222.sol\":761:832  Student(_name, students.length + 1, _score, setGrade(_score), _classes) */\n      dup2\n      mstore\n      0x20\n      add\n        /* \"test1222.sol\":797:803  _score */\n      dup5\n        /* \"test1222.sol\":761:832  Student(_name, students.length + 1, _score, setGrade(_score), _classes) */\n      dup2\n      mstore\n      0x20\n      add\n        /* \"test1222.sol\":805:821  setGrade(_score) */\n      tag_148\n        /* \"test1222.sol\":814:820  _score */\n      dup6\n        /* \"test1222.sol\":805:813  setGrade */\n      tag_26\n        /* \"test1222.sol\":805:821  setGrade(_score) */\n      jump\t// in\n    tag_148:\n        /* \"test1222.sol\":761:832  Student(_name, students.length + 1, _score, setGrade(_score), _classes) */\n      dup2\n      mstore\n      0x20\n      add\n        /* \"test1222.sol\":823:831  _classes */\n      dup4\n        /* \"test1222.sol\":761:832  Student(_name, students.length + 1, _score, setGrade(_score), _classes) */\n      dup2\n      mstore\n      pop\n        /* \"test1222.sol\":747:833  students.push(Student(_name, students.length + 1, _score, setGrade(_score), _classes)) */\n      swap1\n      dup1\n      0x01\n      dup2\n      sload\n      add\n      dup1\n      dup3\n      sstore\n      dup1\n      swap2\n      pop\n      pop\n      0x01\n      swap1\n      sub\n      swap1\n      0x00\n      mstore\n      keccak256(0x00, 0x20)\n      swap1\n      0x05\n      mul\n      add\n      0x00\n      swap1\n      swap2\n      swap1\n      swap2\n      swap1\n      swap2\n      pop\n      0x00\n      dup3\n      add\n      mload\n      dup2\n      0x00\n      add\n      swap1\n      dup2\n      tag_150\n      swap2\n      swap1\n      tag_151\n      jump\t// in\n    tag_150:\n      pop\n      0x20\n      dup3\n      add\n      mload\n      dup2\n      0x01\n      add\n      sstore\n      0x40\n      dup3\n      add\n      mload\n      dup2\n      0x02\n      add\n      sstore\n      0x60\n      dup3\n      add\n      mload\n      dup2\n      0x03\n      add\n      swap1\n      dup2\n      tag_152\n      swap2\n      swap1\n      tag_151\n      jump\t// in\n    tag_152:\n      pop\n      0x80\n      dup3\n      add\n      mload\n      dup2\n      0x04\n      add\n      swap1\n      dup1\n      mload\n      swap1\n      0x20\n      add\n      swap1\n      tag_153\n      swap3\n      swap2\n      swap1\n      tag_154\n      jump\t// in\n    tag_153:\n      pop\n      pop\n      pop\n        /* \"test1222.sol\":868:939  Student(_name, students.length + 1, _score, setGrade(_score), _classes) */\n      mload(0x40)\n      dup1\n      0xa0\n      add\n      0x40\n      mstore\n      dup1\n        /* \"test1222.sol\":876:881  _name */\n      dup5\n        /* \"test1222.sol\":868:939  Student(_name, students.length + 1, _score, setGrade(_score), _classes) */\n      dup2\n      mstore\n      0x20\n      add\n        /* \"test1222.sol\":901:902  1 */\n      0x01\n        /* \"test1222.sol\":883:891  students */\n      dup1\n        /* \"test1222.sol\":883:898  students.length */\n      dup1\n      sload\n      swap1\n      pop\n        /* \"test1222.sol\":883:902  students.length + 1 */\n      tag_155\n      swap2\n      swap1\n      tag_147\n      jump\t// in\n    tag_155:\n        /* \"test1222.sol\":868:939  Student(_name, students.length + 1, _score, setGrade(_score), _classes) */\n      dup2\n      mstore\n      0x20\n      add\n        /* \"test1222.sol\":904:910  _score */\n      dup4\n        /* \"test1222.sol\":868:939  Student(_name, students.length + 1, _score, setGrade(_score), _classes) */\n      dup2\n      mstore\n      0x20\n      add\n        /* \"test1222.sol\":912:928  setGrade(_score) */\n      tag_156\n        /* \"test1222.sol\":921:927  _score */\n      dup5\n        /* \"test1222.sol\":912:920  setGrade */\n      tag_26\n        /* \"test1222.sol\":912:928  setGrade(_score) */\n      jump\t// in\n    tag_156:\n        /* \"test1222.sol\":868:939  Student(_name, students.length + 1, _score, setGrade(_score), _classes) */\n      dup2\n      mstore\n      0x20\n      add\n        /* \"test1222.sol\":930:938  _classes */\n      dup3\n        /* \"test1222.sol\":868:939  Student(_name, students.length + 1, _score, setGrade(_score), _classes) */\n      dup2\n      mstore\n      pop\n        /* \"test1222.sol\":844:858  studentsByName */\n      0x00\n        /* \"test1222.sol\":859:864  _name */\n      dup5\n        /* \"test1222.sol\":844:865  studentsByName[_name] */\n      mload(0x40)\n      tag_157\n      swap2\n      swap1\n      tag_60\n      jump\t// in\n    tag_157:\n      swap1\n      dup2\n      mstore\n      0x20\n      add\n      mload(0x40)\n      dup1\n      swap2\n      sub\n      swap1\n      keccak256\n        /* \"test1222.sol\":844:939  studentsByName[_name] = Student(_name, students.length + 1, _score, setGrade(_score), _classes) */\n      0x00\n      dup3\n      add\n      mload\n      dup2\n      0x00\n      add\n      swap1\n      dup2\n      tag_158\n      swap2\n      swap1\n      tag_151\n      jump\t// in\n    tag_158:\n      pop\n      0x20\n      dup3\n      add\n      mload\n      dup2\n      0x01\n      add\n      sstore\n      0x40\n      dup3\n      add\n      mload\n      dup2\n      0x02\n      add\n      sstore\n      0x60\n      dup3\n      add\n      mload\n      dup2\n      0x03\n      add\n      swap1\n      dup2\n      tag_159\n      swap2\n      swap1\n      tag_151\n      jump\t// in\n    tag_159:\n      pop\n      0x80\n      dup3\n      add\n      mload\n      dup2\n      0x04\n      add\n      swap1\n      dup1\n      mload\n      swap1\n      0x20\n      add\n      swap1\n      tag_160\n      swap3\n      swap2\n      swap1\n      tag_154\n      jump\t// in\n    tag_160:\n      pop\n      swap1\n      pop\n      pop\n        /* \"test1222.sol\":963:965  60 */\n      0x3c\n        /* \"test1222.sol\":954:960  _score */\n      dup3\n        /* \"test1222.sol\":954:965  _score < 60 */\n      lt\n        /* \"test1222.sol\":950:1079  if( _score < 60) {... */\n      iszero\n      tag_161\n      jumpi\n        /* \"test1222.sol\":981:990  Fstudents */\n      0x02\n        /* \"test1222.sol\":996:1067  Student(_name, students.length + 1, _score, setGrade(_score), _classes) */\n      mload(0x40)\n      dup1\n      0xa0\n      add\n      0x40\n      mstore\n      dup1\n        /* \"test1222.sol\":1004:1009  _name */\n      dup6\n        /* \"test1222.sol\":996:1067  Student(_name, students.length + 1, _score, setGrade(_score), _classes) */\n      dup2\n      mstore\n      0x20\n      add\n        /* \"test1222.sol\":1029:1030  1 */\n      0x01\n        /* \"test1222.sol\":1011:1019  students */\n      dup1\n        /* \"test1222.sol\":1011:1026  students.length */\n      dup1\n      sload\n      swap1\n      pop\n        /* \"test1222.sol\":1011:1030  students.length + 1 */\n      tag_162\n      swap2\n      swap1\n      tag_147\n      jump\t// in\n    tag_162:\n        /* \"test1222.sol\":996:1067  Student(_name, students.length + 1, _score, setGrade(_score), _classes) */\n      dup2\n      mstore\n      0x20\n      add\n        /* \"test1222.sol\":1032:1038  _score */\n      dup5\n        /* \"test1222.sol\":996:1067  Student(_name, students.length + 1, _score, setGrade(_score), _classes) */\n      dup2\n      mstore\n      0x20\n      add\n        /* \"test1222.sol\":1040:1056  setGrade(_score) */\n      tag_163\n        /* \"test1222.sol\":1049:1055  _score */\n      dup6\n        /* \"test1222.sol\":1040:1048  setGrade */\n      tag_26\n        /* \"test1222.sol\":1040:1056  setGrade(_score) */\n      jump\t// in\n    tag_163:\n        /* \"test1222.sol\":996:1067  Student(_name, students.length + 1, _score, setGrade(_score), _classes) */\n      dup2\n      mstore\n      0x20\n      add\n        /* \"test1222.sol\":1058:1066  _classes */\n      dup4\n        /* \"test1222.sol\":996:1067  Student(_name, students.length + 1, _score, setGrade(_score), _classes) */\n      dup2\n      mstore\n      pop\n        /* \"test1222.sol\":981:1068  Fstudents.push(Student(_name, students.length + 1, _score, setGrade(_score), _classes)) */\n      swap1\n      dup1\n      0x01\n      dup2\n      sload\n      add\n      dup1\n      dup3\n      sstore\n      dup1\n      swap2\n      pop\n      pop\n      0x01\n      swap1\n      sub\n      swap1\n      0x00\n      mstore\n      keccak256(0x00, 0x20)\n      swap1\n      0x05\n      mul\n      add\n      0x00\n      swap1\n      swap2\n      swap1\n      swap2\n      swap1\n      swap2\n      pop\n      0x00\n      dup3\n      add\n      mload\n      dup2\n      0x00\n      add\n      swap1\n      dup2\n      tag_165\n      swap2\n      swap1\n      tag_151\n      jump\t// in\n    tag_165:\n      pop\n      0x20\n      dup3\n      add\n      mload\n      dup2\n      0x01\n      add\n      sstore\n      0x40\n      dup3\n      add\n      mload\n      dup2\n      0x02\n      add\n      sstore\n      0x60\n      dup3\n      add\n      mload\n      dup2\n      0x03\n      add\n      swap1\n      dup2\n      tag_166\n      swap2\n      swap1\n      tag_151\n      jump\t// in\n    tag_166:\n      pop\n      0x80\n      dup3\n      add\n      mload\n      dup2\n      0x04\n      add\n      swap1\n      dup1\n      mload\n      swap1\n      0x20\n      add\n      swap1\n      tag_167\n      swap3\n      swap2\n      swap1\n      tag_154\n      jump\t// in\n    tag_167:\n      pop\n      pop\n      pop\n        /* \"test1222.sol\":950:1079  if( _score < 60) {... */\n    tag_161:\n        /* \"test1222.sol\":650:1085  function addStudent(string memory _name, uint _score, string[] memory _classes) public {... */\n      pop\n      pop\n      pop\n      jump\t// out\n        /* \"test1222.sol\":1673:1889  function getAverageScore() public view returns(uint) {... */\n    tag_51:\n        /* \"test1222.sol\":1720:1724  uint */\n      0x00\n        /* \"test1222.sol\":1736:1744  uint sum */\n      dup1\n        /* \"test1222.sol\":1747:1748  0 */\n      0x00\n        /* \"test1222.sol\":1736:1748  uint sum = 0 */\n      swap1\n      pop\n        /* \"test1222.sol\":1762:1768  uint i */\n      0x00\n        /* \"test1222.sol\":1758:1847  for(uint i = 0; i < students.length; i++) {... */\n    tag_169:\n        /* \"test1222.sol\":1778:1786  students */\n      0x01\n        /* \"test1222.sol\":1778:1793  students.length */\n      dup1\n      sload\n      swap1\n      pop\n        /* \"test1222.sol\":1774:1775  i */\n      dup2\n        /* \"test1222.sol\":1774:1793  i < students.length */\n      lt\n        /* \"test1222.sol\":1758:1847  for(uint i = 0; i < students.length; i++) {... */\n      iszero\n      tag_170\n      jumpi\n        /* \"test1222.sol\":1820:1828  students */\n      0x01\n        /* \"test1222.sol\":1829:1830  i */\n      dup2\n        /* \"test1222.sol\":1820:1831  students[i] */\n      dup2\n      sload\n      dup2\n      lt\n      tag_172\n      jumpi\n      tag_173\n      tag_125\n      jump\t// in\n    tag_173:\n    tag_172:\n      swap1\n      0x00\n      mstore\n      keccak256(0x00, 0x20)\n      swap1\n      0x05\n      mul\n      add\n        /* \"test1222.sol\":1820:1837  students[i].score */\n      0x02\n      add\n      sload\n        /* \"test1222.sol\":1813:1837  sum += students[i].score */\n      dup3\n      tag_175\n      swap2\n      swap1\n      tag_147\n      jump\t// in\n    tag_175:\n      swap2\n      pop\n        /* \"test1222.sol\":1795:1798  i++ */\n      dup1\n      dup1\n      0x01\n      add\n      swap2\n      pop\n      pop\n        /* \"test1222.sol\":1758:1847  for(uint i = 0; i < students.length; i++) {... */\n      jump(tag_169)\n    tag_170:\n      pop\n        /* \"test1222.sol\":1867:1875  students */\n      0x01\n        /* \"test1222.sol\":1867:1882  students.length */\n      dup1\n      sload\n      swap1\n      pop\n        /* \"test1222.sol\":1863:1866  sum */\n      dup2\n        /* \"test1222.sol\":1863:1882  sum/students.length */\n      tag_176\n      swap2\n      swap1\n      tag_177\n      jump\t// in\n    tag_176:\n        /* \"test1222.sol\":1856:1882  return sum/students.length */\n      swap2\n      pop\n      pop\n        /* \"test1222.sol\":1673:1889  function getAverageScore() public view returns(uint) {... */\n      swap1\n      jump\t// out\n        /* \"test1222.sol\":1091:1184  function getStudents() public view returns(Student[] memory) {... */\n    tag_54:\n        /* \"test1222.sol\":1134:1150  Student[] memory */\n      0x60\n        /* \"test1222.sol\":1169:1177  students */\n      0x01\n        /* \"test1222.sol\":1162:1177  return students */\n      dup1\n      sload\n      dup1\n      0x20\n      mul\n      0x20\n      add\n      mload(0x40)\n      swap1\n      dup2\n      add\n      0x40\n      mstore\n      dup1\n      swap3\n      swap2\n      swap1\n      dup2\n      dup2\n      mstore\n      0x20\n      add\n      0x00\n      swap1\n    tag_179:\n      dup3\n      dup3\n      lt\n      iszero\n      tag_180\n      jumpi\n      dup4\n      dup3\n      swap1\n      0x00\n      mstore\n      keccak256(0x00, 0x20)\n      swap1\n      0x05\n      mul\n      add\n      mload(0x40)\n      dup1\n      0xa0\n      add\n      0x40\n      mstore\n      swap1\n      dup2\n      0x00\n      dup3\n      add\n      dup1\n      sload\n      tag_182\n      swap1\n      tag_75\n      jump\t// in\n    tag_182:\n      dup1\n      0x1f\n      add\n      0x20\n      dup1\n      swap2\n      div\n      mul\n      0x20\n      add\n      mload(0x40)\n      swap1\n      dup2\n      add\n      0x40\n      mstore\n      dup1\n      swap3\n      swap2\n      swap1\n      dup2\n      dup2\n      mstore\n      0x20\n      add\n      dup3\n      dup1\n      sload\n      tag_183\n      swap1\n      tag_75\n      jump\t// in\n    tag_183:\n      dup1\n      iszero\n      tag_184\n      jumpi\n      dup1\n      0x1f\n      lt\n      tag_185\n      jumpi\n      0x0100\n      dup1\n      dup4\n      sload\n      div\n      mul\n      dup4\n      mstore\n      swap2\n      0x20\n      add\n      swap2\n      jump(tag_184)\n    tag_185:\n      dup3\n      add\n      swap2\n      swap1\n      0x00\n      mstore\n      keccak256(0x00, 0x20)\n      swap1\n    tag_186:\n      dup2\n      sload\n      dup2\n      mstore\n      swap1\n      0x01\n      add\n      swap1\n      0x20\n      add\n      dup1\n      dup4\n      gt\n      tag_186\n      jumpi\n      dup3\n      swap1\n      sub\n      0x1f\n      and\n      dup3\n      add\n      swap2\n    tag_184:\n      pop\n      pop\n      pop\n      pop\n      pop\n      dup2\n      mstore\n      0x20\n      add\n      0x01\n      dup3\n      add\n      sload\n      dup2\n      mstore\n      0x20\n      add\n      0x02\n      dup3\n      add\n      sload\n      dup2\n      mstore\n      0x20\n      add\n      0x03\n      dup3\n      add\n      dup1\n      sload\n      tag_187\n      swap1\n      tag_75\n      jump\t// in\n    tag_187:\n      dup1\n      0x1f\n      add\n      0x20\n      dup1\n      swap2\n      div\n      mul\n      0x20\n      add\n      mload(0x40)\n      swap1\n      dup2\n      add\n      0x40\n      mstore\n      dup1\n      swap3\n      swap2\n      swap1\n      dup2\n      dup2\n      mstore\n      0x20\n      add\n      dup3\n      dup1\n      sload\n      tag_188\n      swap1\n      tag_75\n      jump\t// in\n    tag_188:\n      dup1\n      iszero\n      tag_189\n      jumpi\n      dup1\n      0x1f\n      lt\n      tag_190\n      jumpi\n      0x0100\n      dup1\n      dup4\n      sload\n      div\n      mul\n      dup4\n      mstore\n      swap2\n      0x20\n      add\n      swap2\n      jump(tag_189)\n    tag_190:\n      dup3\n      add\n      swap2\n      swap1\n      0x00\n      mstore\n      keccak256(0x00, 0x20)\n      swap1\n    tag_191:\n      dup2\n      sload\n      dup2\n      mstore\n      swap1\n      0x01\n      add\n      swap1\n      0x20\n      add\n      dup1\n      dup4\n      gt\n      tag_191\n      jumpi\n      dup3\n      swap1\n      sub\n      0x1f\n      and\n      dup3\n      add\n      swap2\n    tag_189:\n      pop\n      pop\n      pop\n      pop\n      pop\n      dup2\n      mstore\n      0x20\n      add\n      0x04\n      dup3\n      add\n      dup1\n      sload\n      dup1\n      0x20\n      mul\n      0x20\n      add\n      mload(0x40)\n      swap1\n      dup2\n      add\n      0x40\n      mstore\n      dup1\n      swap3\n      swap2\n      swap1\n      dup2\n      dup2\n      mstore\n      0x20\n      add\n      0x00\n      swap1\n    tag_192:\n      dup3\n      dup3\n      lt\n      iszero\n      tag_193\n      jumpi\n      dup4\n      dup3\n      swap1\n      0x00\n      mstore\n      keccak256(0x00, 0x20)\n      add\n      dup1\n      sload\n      tag_195\n      swap1\n      tag_75\n      jump\t// in\n    tag_195:\n      dup1\n      0x1f\n      add\n      0x20\n      dup1\n      swap2\n      div\n      mul\n      0x20\n      add\n      mload(0x40)\n      swap1\n      dup2\n      add\n      0x40\n      mstore\n      dup1\n      swap3\n      swap2\n      swap1\n      dup2\n      dup2\n      mstore\n      0x20\n      add\n      dup3\n      dup1\n      sload\n      tag_196\n      swap1\n      tag_75\n      jump\t// in\n    tag_196:\n      dup1\n      iszero\n      tag_197\n      jumpi\n      dup1\n      0x1f\n      lt\n      tag_198\n      jumpi\n      0x0100\n      dup1\n      dup4\n      sload\n      div\n      mul\n      dup4\n      mstore\n      swap2\n      0x20\n      add\n      swap2\n      jump(tag_197)\n    tag_198:\n      dup3\n      add\n      swap2\n      swap1\n      0x00\n      mstore\n      keccak256(0x00, 0x20)\n      swap1\n    tag_199:\n      dup2\n      sload\n      dup2\n      mstore\n      swap1\n      0x01\n      add\n      swap1\n      0x20\n      add\n      dup1\n      dup4\n      gt\n      tag_199\n      jumpi\n      dup3\n      swap1\n      sub\n      0x1f\n      and\n      dup3\n      add\n      swap2\n    tag_197:\n      pop\n      pop\n      pop\n      pop\n      pop\n      dup2\n      mstore\n      0x20\n      add\n      swap1\n      0x01\n      add\n      swap1\n      jump(tag_192)\n    tag_193:\n      pop\n      pop\n      pop\n      pop\n      dup2\n      mstore\n      pop\n      pop\n      dup2\n      mstore\n      0x20\n      add\n      swap1\n      0x01\n      add\n      swap1\n      jump(tag_179)\n    tag_180:\n      pop\n      pop\n      pop\n      pop\n      swap1\n      pop\n        /* \"test1222.sol\":1091:1184  function getStudents() public view returns(Student[] memory) {... */\n      swap1\n      jump\t// out\n    tag_94:\n      mload(0x40)\n      dup1\n      0xa0\n      add\n      0x40\n      mstore\n      dup1\n      0x60\n      dup2\n      mstore\n      0x20\n      add\n      0x00\n      dup2\n      mstore\n      0x20\n      add\n      0x00\n      dup2\n      mstore\n      0x20\n      add\n      0x60\n      dup2\n      mstore\n      0x20\n      add\n      0x60\n      dup2\n      mstore\n      pop\n      swap1\n      jump\t// out\n    tag_154:\n      dup3\n      dup1\n      sload\n      dup3\n      dup3\n      sstore\n      swap1\n      0x00\n      mstore\n      keccak256(0x00, 0x20)\n      swap1\n      dup2\n      add\n      swap3\n      dup3\n      iszero\n      tag_200\n      jumpi\n      swap2\n      0x20\n      mul\n      dup3\n      add\n    tag_201:\n      dup3\n      dup2\n      gt\n      iszero\n      tag_202\n      jumpi\n      dup3\n      mload\n      dup3\n      swap1\n      dup2\n      tag_203\n      swap2\n      swap1\n      tag_151\n      jump\t// in\n    tag_203:\n      pop\n      swap2\n      0x20\n      add\n      swap2\n      swap1\n      0x01\n      add\n      swap1\n      jump(tag_201)\n    tag_202:\n    tag_200:\n      pop\n      swap1\n      pop\n      tag_204\n      swap2\n      swap1\n      tag_205\n      jump\t// in\n    tag_204:\n      pop\n      swap1\n      jump\t// out\n    tag_205:\n    tag_206:\n      dup1\n      dup3\n      gt\n      iszero\n      tag_207\n      jumpi\n      0x00\n      dup2\n      dup2\n      tag_208\n      swap2\n      swap1\n      tag_209\n      jump\t// in\n    tag_208:\n      pop\n      0x01\n      add\n      jump(tag_206)\n    tag_207:\n      pop\n      swap1\n      jump\t// out\n    tag_209:\n      pop\n      dup1\n      sload\n      tag_210\n      swap1\n      tag_75\n      jump\t// in\n    tag_210:\n      0x00\n      dup3\n      sstore\n      dup1\n      0x1f\n      lt\n      tag_212\n      jumpi\n      pop\n      jump(tag_211)\n    tag_212:\n      0x1f\n      add\n      0x20\n      swap1\n      div\n      swap1\n      0x00\n      mstore\n      keccak256(0x00, 0x20)\n      swap1\n      dup2\n      add\n      swap1\n      tag_213\n      swap2\n      swap1\n      tag_214\n      jump\t// in\n    tag_213:\n    tag_211:\n      pop\n      jump\t// out\n    tag_214:\n    tag_215:\n      dup1\n      dup3\n      gt\n      iszero\n      tag_216\n      jumpi\n      0x00\n      dup2\n      0x00\n      swap1\n      sstore\n      pop\n      0x01\n      add\n      jump(tag_215)\n    tag_216:\n      pop\n      swap1\n      jump\t// out\n        /* \"#utility.yul\":7:84   */\n    tag_217:\n        /* \"#utility.yul\":44:51   */\n      0x00\n        /* \"#utility.yul\":73:78   */\n      dup2\n        /* \"#utility.yul\":62:78   */\n      swap1\n      pop\n        /* \"#utility.yul\":7:84   */\n      swap2\n      swap1\n      pop\n      jump\t// out\n        /* \"#utility.yul\":90:208   */\n    tag_218:\n        /* \"#utility.yul\":177:201   */\n      tag_284\n        /* \"#utility.yul\":195:200   */\n      dup2\n        /* \"#utility.yul\":177:201   */\n      tag_217\n      jump\t// in\n    tag_284:\n        /* \"#utility.yul\":172:175   */\n      dup3\n        /* \"#utility.yul\":165:202   */\n      mstore\n        /* \"#utility.yul\":90:208   */\n      pop\n      pop\n      jump\t// out\n        /* \"#utility.yul\":214:436   */\n    tag_17:\n        /* \"#utility.yul\":307:311   */\n      0x00\n        /* \"#utility.yul\":345:347   */\n      0x20\n        /* \"#utility.yul\":334:343   */\n      dup3\n        /* \"#utility.yul\":330:348   */\n      add\n        /* \"#utility.yul\":322:348   */\n      swap1\n      pop\n        /* \"#utility.yul\":358:429   */\n      tag_286\n        /* \"#utility.yul\":426:427   */\n      0x00\n        /* \"#utility.yul\":415:424   */\n      dup4\n        /* \"#utility.yul\":411:428   */\n      add\n        /* \"#utility.yul\":402:408   */\n      dup5\n        /* \"#utility.yul\":358:429   */\n      tag_218\n      jump\t// in\n    tag_286:\n        /* \"#utility.yul\":214:436   */\n      swap3\n      swap2\n      pop\n      pop\n      jump\t// out\n        /* \"#utility.yul\":442:517   */\n    tag_219:\n        /* \"#utility.yul\":475:481   */\n      0x00\n        /* \"#utility.yul\":508:510   */\n      0x40\n        /* \"#utility.yul\":502:511   */\n      mload\n        /* \"#utility.yul\":492:511   */\n      swap1\n      pop\n        /* \"#utility.yul\":442:517   */\n      swap1\n      jump\t// out\n        /* \"#utility.yul\":523:640   */\n    tag_220:\n        /* \"#utility.yul\":632:633   */\n      0x00\n        /* \"#utility.yul\":629:630   */\n      dup1\n        /* \"#utility.yul\":622:634   */\n      revert\n        /* \"#utility.yul\":646:763   */\n    tag_221:\n        /* \"#utility.yul\":755:756   */\n      0x00\n        /* \"#utility.yul\":752:753   */\n      dup1\n        /* \"#utility.yul\":745:757   */\n      revert\n        /* \"#utility.yul\":769:886   */\n    tag_222:\n        /* \"#utility.yul\":878:879   */\n      0x00\n        /* \"#utility.yul\":875:876   */\n      dup1\n        /* \"#utility.yul\":868:880   */\n      revert\n        /* \"#utility.yul\":892:1009   */\n    tag_223:\n        /* \"#utility.yul\":1001:1002   */\n      0x00\n        /* \"#utility.yul\":998:999   */\n      dup1\n        /* \"#utility.yul\":991:1003   */\n      revert\n        /* \"#utility.yul\":1015:1117   */\n    tag_224:\n        /* \"#utility.yul\":1056:1062   */\n      0x00\n        /* \"#utility.yul\":1107:1109   */\n      0x1f\n        /* \"#utility.yul\":1103:1110   */\n      not\n        /* \"#utility.yul\":1098:1100   */\n      0x1f\n        /* \"#utility.yul\":1091:1096   */\n      dup4\n        /* \"#utility.yul\":1087:1101   */\n      add\n        /* \"#utility.yul\":1083:1111   */\n      and\n        /* \"#utility.yul\":1073:1111   */\n      swap1\n      pop\n        /* \"#utility.yul\":1015:1117   */\n      swap2\n      swap1\n      pop\n      jump\t// out\n        /* \"#utility.yul\":1123:1303   */\n    tag_225:\n        /* \"#utility.yul\":1171:1248   */\n      0x4e487b7100000000000000000000000000000000000000000000000000000000\n        /* \"#utility.yul\":1168:1169   */\n      0x00\n        /* \"#utility.yul\":1161:1249   */\n      mstore\n        /* \"#utility.yul\":1268:1272   */\n      0x41\n        /* \"#utility.yul\":1265:1266   */\n      0x04\n        /* \"#utility.yul\":1258:1273   */\n      mstore\n        /* \"#utility.yul\":1292:1296   */\n      0x24\n        /* \"#utility.yul\":1289:1290   */\n      0x00\n        /* \"#utility.yul\":1282:1297   */\n      revert\n        /* \"#utility.yul\":1309:1590   */\n    tag_226:\n        /* \"#utility.yul\":1392:1419   */\n      tag_295\n        /* \"#utility.yul\":1414:1418   */\n      dup3\n        /* \"#utility.yul\":1392:1419   */\n      tag_224\n      jump\t// in\n    tag_295:\n        /* \"#utility.yul\":1384:1390   */\n      dup2\n        /* \"#utility.yul\":1380:1420   */\n      add\n        /* \"#utility.yul\":1522:1528   */\n      dup2\n        /* \"#utility.yul\":1510:1520   */\n      dup2\n        /* \"#utility.yul\":1507:1529   */\n      lt\n        /* \"#utility.yul\":1486:1504   */\n      0xffffffffffffffff\n        /* \"#utility.yul\":1474:1484   */\n      dup3\n        /* \"#utility.yul\":1471:1505   */\n      gt\n        /* \"#utility.yul\":1468:1530   */\n      or\n        /* \"#utility.yul\":1465:1553   */\n      iszero\n      tag_296\n      jumpi\n        /* \"#utility.yul\":1533:1551   */\n      tag_297\n      tag_225\n      jump\t// in\n    tag_297:\n        /* \"#utility.yul\":1465:1553   */\n    tag_296:\n        /* \"#utility.yul\":1573:1583   */\n      dup1\n        /* \"#utility.yul\":1569:1571   */\n      0x40\n        /* \"#utility.yul\":1562:1584   */\n      mstore\n        /* \"#utility.yul\":1352:1590   */\n      pop\n        /* \"#utility.yul\":1309:1590   */\n      pop\n      pop\n      jump\t// out\n        /* \"#utility.yul\":1596:1725   */\n    tag_227:\n        /* \"#utility.yul\":1630:1636   */\n      0x00\n        /* \"#utility.yul\":1657:1677   */\n      tag_299\n      tag_219\n      jump\t// in\n    tag_299:\n        /* \"#utility.yul\":1647:1677   */\n      swap1\n      pop\n        /* \"#utility.yul\":1686:1719   */\n      tag_300\n        /* \"#utility.yul\":1714:1718   */\n      dup3\n        /* \"#utility.yul\":1706:1712   */\n      dup3\n        /* \"#utility.yul\":1686:1719   */\n      tag_226\n      jump\t// in\n    tag_300:\n        /* \"#utility.yul\":1596:1725   */\n      swap2\n      swap1\n      pop\n      jump\t// out\n        /* \"#utility.yul\":1731:2039   */\n    tag_228:\n        /* \"#utility.yul\":1793:1797   */\n      0x00\n        /* \"#utility.yul\":1883:1901   */\n      0xffffffffffffffff\n        /* \"#utility.yul\":1875:1881   */\n      dup3\n        /* \"#utility.yul\":1872:1902   */\n      gt\n        /* \"#utility.yul\":1869:1925   */\n      iszero\n      tag_302\n      jumpi\n        /* \"#utility.yul\":1905:1923   */\n      tag_303\n      tag_225\n      jump\t// in\n    tag_303:\n        /* \"#utility.yul\":1869:1925   */\n    tag_302:\n        /* \"#utility.yul\":1943:1972   */\n      tag_304\n        /* \"#utility.yul\":1965:1971   */\n      dup3\n        /* \"#utility.yul\":1943:1972   */\n      tag_224\n      jump\t// in\n    tag_304:\n        /* \"#utility.yul\":1935:1972   */\n      swap1\n      pop\n        /* \"#utility.yul\":2027:2031   */\n      0x20\n        /* \"#utility.yul\":2021:2025   */\n      dup2\n        /* \"#utility.yul\":2017:2032   */\n      add\n        /* \"#utility.yul\":2009:2032   */\n      swap1\n      pop\n        /* \"#utility.yul\":1731:2039   */\n      swap2\n      swap1\n      pop\n      jump\t// out\n        /* \"#utility.yul\":2045:2191   */\n    tag_229:\n        /* \"#utility.yul\":2142:2148   */\n      dup3\n        /* \"#utility.yul\":2137:2140   */\n      dup2\n        /* \"#utility.yul\":2132:2135   */\n      dup4\n        /* \"#utility.yul\":2119:2149   */\n      calldatacopy\n        /* \"#utility.yul\":2183:2184   */\n      0x00\n        /* \"#utility.yul\":2174:2180   */\n      dup4\n        /* \"#utility.yul\":2169:2172   */\n      dup4\n        /* \"#utility.yul\":2165:2181   */\n      add\n        /* \"#utility.yul\":2158:2185   */\n      mstore\n        /* \"#utility.yul\":2045:2191   */\n      pop\n      pop\n      pop\n      jump\t// out\n        /* \"#utility.yul\":2197:2622   */\n    tag_230:\n        /* \"#utility.yul\":2275:2280   */\n      0x00\n        /* \"#utility.yul\":2300:2366   */\n      tag_307\n        /* \"#utility.yul\":2316:2365   */\n      tag_308\n        /* \"#utility.yul\":2358:2364   */\n      dup5\n        /* \"#utility.yul\":2316:2365   */\n      tag_228\n      jump\t// in\n    tag_308:\n        /* \"#utility.yul\":2300:2366   */\n      tag_227\n      jump\t// in\n    tag_307:\n        /* \"#utility.yul\":2291:2366   */\n      swap1\n      pop\n        /* \"#utility.yul\":2389:2395   */\n      dup3\n        /* \"#utility.yul\":2382:2387   */\n      dup2\n        /* \"#utility.yul\":2375:2396   */\n      mstore\n        /* \"#utility.yul\":2427:2431   */\n      0x20\n        /* \"#utility.yul\":2420:2425   */\n      dup2\n        /* \"#utility.yul\":2416:2432   */\n      add\n        /* \"#utility.yul\":2465:2468   */\n      dup5\n        /* \"#utility.yul\":2456:2462   */\n      dup5\n        /* \"#utility.yul\":2451:2454   */\n      dup5\n        /* \"#utility.yul\":2447:2463   */\n      add\n        /* \"#utility.yul\":2444:2469   */\n      gt\n        /* \"#utility.yul\":2441:2553   */\n      iszero\n      tag_309\n      jumpi\n        /* \"#utility.yul\":2472:2551   */\n      tag_310\n      tag_223\n      jump\t// in\n    tag_310:\n        /* \"#utility.yul\":2441:2553   */\n    tag_309:\n        /* \"#utility.yul\":2562:2616   */\n      tag_311\n        /* \"#utility.yul\":2609:2615   */\n      dup5\n        /* \"#utility.yul\":2604:2607   */\n      dup3\n        /* \"#utility.yul\":2599:2602   */\n      dup6\n        /* \"#utility.yul\":2562:2616   */\n      tag_229\n      jump\t// in\n    tag_311:\n        /* \"#utility.yul\":2281:2622   */\n      pop\n        /* \"#utility.yul\":2197:2622   */\n      swap4\n      swap3\n      pop\n      pop\n      pop\n      jump\t// out\n        /* \"#utility.yul\":2642:2982   */\n    tag_231:\n        /* \"#utility.yul\":2698:2703   */\n      0x00\n        /* \"#utility.yul\":2747:2750   */\n      dup3\n        /* \"#utility.yul\":2740:2744   */\n      0x1f\n        /* \"#utility.yul\":2732:2738   */\n      dup4\n        /* \"#utility.yul\":2728:2745   */\n      add\n        /* \"#utility.yul\":2724:2751   */\n      slt\n        /* \"#utility.yul\":2714:2836   */\n      tag_313\n      jumpi\n        /* \"#utility.yul\":2755:2834   */\n      tag_314\n      tag_222\n      jump\t// in\n    tag_314:\n        /* \"#utility.yul\":2714:2836   */\n    tag_313:\n        /* \"#utility.yul\":2872:2878   */\n      dup2\n        /* \"#utility.yul\":2859:2879   */\n      calldataload\n        /* \"#utility.yul\":2897:2976   */\n      tag_315\n        /* \"#utility.yul\":2972:2975   */\n      dup5\n        /* \"#utility.yul\":2964:2970   */\n      dup3\n        /* \"#utility.yul\":2957:2961   */\n      0x20\n        /* \"#utility.yul\":2949:2955   */\n      dup7\n        /* \"#utility.yul\":2945:2962   */\n      add\n        /* \"#utility.yul\":2897:2976   */\n      tag_230\n      jump\t// in\n    tag_315:\n        /* \"#utility.yul\":2888:2976   */\n      swap2\n      pop\n        /* \"#utility.yul\":2704:2982   */\n      pop\n        /* \"#utility.yul\":2642:2982   */\n      swap3\n      swap2\n      pop\n      pop\n      jump\t// out\n        /* \"#utility.yul\":2988:3497   */\n    tag_20:\n        /* \"#utility.yul\":3057:3063   */\n      0x00\n        /* \"#utility.yul\":3106:3108   */\n      0x20\n        /* \"#utility.yul\":3094:3103   */\n      dup3\n        /* \"#utility.yul\":3085:3092   */\n      dup5\n        /* \"#utility.yul\":3081:3104   */\n      sub\n        /* \"#utility.yul\":3077:3109   */\n      slt\n        /* \"#utility.yul\":3074:3193   */\n      iszero\n      tag_317\n      jumpi\n        /* \"#utility.yul\":3112:3191   */\n      tag_318\n      tag_220\n      jump\t// in\n    tag_318:\n        /* \"#utility.yul\":3074:3193   */\n    tag_317:\n        /* \"#utility.yul\":3260:3261   */\n      0x00\n        /* \"#utility.yul\":3249:3258   */\n      dup3\n        /* \"#utility.yul\":3245:3262   */\n      add\n        /* \"#utility.yul\":3232:3263   */\n      calldataload\n        /* \"#utility.yul\":3290:3308   */\n      0xffffffffffffffff\n        /* \"#utility.yul\":3282:3288   */\n      dup2\n        /* \"#utility.yul\":3279:3309   */\n      gt\n        /* \"#utility.yul\":3276:3393   */\n      iszero\n      tag_319\n      jumpi\n        /* \"#utility.yul\":3312:3391   */\n      tag_320\n      tag_221\n      jump\t// in\n    tag_320:\n        /* \"#utility.yul\":3276:3393   */\n    tag_319:\n        /* \"#utility.yul\":3417:3480   */\n      tag_321\n        /* \"#utility.yul\":3472:3479   */\n      dup5\n        /* \"#utility.yul\":3463:3469   */\n      dup3\n        /* \"#utility.yul\":3452:3461   */\n      dup6\n        /* \"#utility.yul\":3448:3470   */\n      add\n        /* \"#utility.yul\":3417:3480   */\n      tag_231\n      jump\t// in\n    tag_321:\n        /* \"#utility.yul\":3407:3480   */\n      swap2\n      pop\n        /* \"#utility.yul\":3203:3490   */\n      pop\n        /* \"#utility.yul\":2988:3497   */\n      swap3\n      swap2\n      pop\n      pop\n      jump\t// out\n        /* \"#utility.yul\":3503:3625   */\n    tag_232:\n        /* \"#utility.yul\":3576:3600   */\n      tag_323\n        /* \"#utility.yul\":3594:3599   */\n      dup2\n        /* \"#utility.yul\":3576:3600   */\n      tag_217\n      jump\t// in\n    tag_323:\n        /* \"#utility.yul\":3569:3574   */\n      dup2\n        /* \"#utility.yul\":3566:3601   */\n      eq\n        /* \"#utility.yul\":3556:3619   */\n      tag_324\n      jumpi\n        /* \"#utility.yul\":3615:3616   */\n      0x00\n        /* \"#utility.yul\":3612:3613   */\n      dup1\n        /* \"#utility.yul\":3605:3617   */\n      revert\n        /* \"#utility.yul\":3556:3619   */\n    tag_324:\n        /* \"#utility.yul\":3503:3625   */\n      pop\n      jump\t// out\n        /* \"#utility.yul\":3631:3770   */\n    tag_233:\n        /* \"#utility.yul\":3677:3682   */\n      0x00\n        /* \"#utility.yul\":3715:3721   */\n      dup2\n        /* \"#utility.yul\":3702:3722   */\n      calldataload\n        /* \"#utility.yul\":3693:3722   */\n      swap1\n      pop\n        /* \"#utility.yul\":3731:3764   */\n      tag_326\n        /* \"#utility.yul\":3758:3763   */\n      dup2\n        /* \"#utility.yul\":3731:3764   */\n      tag_232\n      jump\t// in\n    tag_326:\n        /* \"#utility.yul\":3631:3770   */\n      swap3\n      swap2\n      pop\n      pop\n      jump\t// out\n        /* \"#utility.yul\":3776:4105   */\n    tag_25:\n        /* \"#utility.yul\":3835:3841   */\n      0x00\n        /* \"#utility.yul\":3884:3886   */\n      0x20\n        /* \"#utility.yul\":3872:3881   */\n      dup3\n        /* \"#utility.yul\":3863:3870   */\n      dup5\n        /* \"#utility.yul\":3859:3882   */\n      sub\n        /* \"#utility.yul\":3855:3887   */\n      slt\n        /* \"#utility.yul\":3852:3971   */\n      iszero\n      tag_328\n      jumpi\n        /* \"#utility.yul\":3890:3969   */\n      tag_329\n      tag_220\n      jump\t// in\n    tag_329:\n        /* \"#utility.yul\":3852:3971   */\n    tag_328:\n        /* \"#utility.yul\":4010:4011   */\n      0x00\n        /* \"#utility.yul\":4035:4088   */\n      tag_330\n        /* \"#utility.yul\":4080:4087   */\n      dup5\n        /* \"#utility.yul\":4071:4077   */\n      dup3\n        /* \"#utility.yul\":4060:4069   */\n      dup6\n        /* \"#utility.yul\":4056:4078   */\n      add\n        /* \"#utility.yul\":4035:4088   */\n      tag_233\n      jump\t// in\n    tag_330:\n        /* \"#utility.yul\":4025:4088   */\n      swap2\n      pop\n        /* \"#utility.yul\":3981:4098   */\n      pop\n        /* \"#utility.yul\":3776:4105   */\n      swap3\n      swap2\n      pop\n      pop\n      jump\t// out\n        /* \"#utility.yul\":4111:4210   */\n    tag_234:\n        /* \"#utility.yul\":4163:4169   */\n      0x00\n        /* \"#utility.yul\":4197:4202   */\n      dup2\n        /* \"#utility.yul\":4191:4203   */\n      mload\n        /* \"#utility.yul\":4181:4203   */\n      swap1\n      pop\n        /* \"#utility.yul\":4111:4210   */\n      swap2\n      swap1\n      pop\n      jump\t// out\n        /* \"#utility.yul\":4216:4385   */\n    tag_235:\n        /* \"#utility.yul\":4300:4311   */\n      0x00\n        /* \"#utility.yul\":4334:4340   */\n      dup3\n        /* \"#utility.yul\":4329:4332   */\n      dup3\n        /* \"#utility.yul\":4322:4341   */\n      mstore\n        /* \"#utility.yul\":4374:4378   */\n      0x20\n        /* \"#utility.yul\":4369:4372   */\n      dup3\n        /* \"#utility.yul\":4365:4379   */\n      add\n        /* \"#utility.yul\":4350:4379   */\n      swap1\n      pop\n        /* \"#utility.yul\":4216:4385   */\n      swap3\n      swap2\n      pop\n      pop\n      jump\t// out\n        /* \"#utility.yul\":4391:4637   */\n    tag_236:\n        /* \"#utility.yul\":4472:4473   */\n      0x00\n        /* \"#utility.yul\":4482:4595   */\n    tag_334:\n        /* \"#utility.yul\":4496:4502   */\n      dup4\n        /* \"#utility.yul\":4493:4494   */\n      dup2\n        /* \"#utility.yul\":4490:4503   */\n      lt\n        /* \"#utility.yul\":4482:4595   */\n      iszero\n      tag_336\n      jumpi\n        /* \"#utility.yul\":4581:4582   */\n      dup1\n        /* \"#utility.yul\":4576:4579   */\n      dup3\n        /* \"#utility.yul\":4572:4583   */\n      add\n        /* \"#utility.yul\":4566:4584   */\n      mload\n        /* \"#utility.yul\":4562:4563   */\n      dup2\n        /* \"#utility.yul\":4557:4560   */\n      dup5\n        /* \"#utility.yul\":4553:4564   */\n      add\n        /* \"#utility.yul\":4546:4585   */\n      mstore\n        /* \"#utility.yul\":4518:4520   */\n      0x20\n        /* \"#utility.yul\":4515:4516   */\n      dup2\n        /* \"#utility.yul\":4511:4521   */\n      add\n        /* \"#utility.yul\":4506:4521   */\n      swap1\n      pop\n        /* \"#utility.yul\":4482:4595   */\n      jump(tag_334)\n    tag_336:\n        /* \"#utility.yul\":4629:4630   */\n      0x00\n        /* \"#utility.yul\":4620:4626   */\n      dup5\n        /* \"#utility.yul\":4615:4618   */\n      dup5\n        /* \"#utility.yul\":4611:4627   */\n      add\n        /* \"#utility.yul\":4604:4631   */\n      mstore\n        /* \"#utility.yul\":4453:4637   */\n      pop\n        /* \"#utility.yul\":4391:4637   */\n      pop\n      pop\n      pop\n      jump\t// out\n        /* \"#utility.yul\":4643:5020   */\n    tag_237:\n        /* \"#utility.yul\":4731:4734   */\n      0x00\n        /* \"#utility.yul\":4759:4798   */\n      tag_338\n        /* \"#utility.yul\":4792:4797   */\n      dup3\n        /* \"#utility.yul\":4759:4798   */\n      tag_234\n      jump\t// in\n    tag_338:\n        /* \"#utility.yul\":4814:4885   */\n      tag_339\n        /* \"#utility.yul\":4878:4884   */\n      dup2\n        /* \"#utility.yul\":4873:4876   */\n      dup6\n        /* \"#utility.yul\":4814:4885   */\n      tag_235\n      jump\t// in\n    tag_339:\n        /* \"#utility.yul\":4807:4885   */\n      swap4\n      pop\n        /* \"#utility.yul\":4894:4959   */\n      tag_340\n        /* \"#utility.yul\":4952:4958   */\n      dup2\n        /* \"#utility.yul\":4947:4950   */\n      dup6\n        /* \"#utility.yul\":4940:4944   */\n      0x20\n        /* \"#utility.yul\":4933:4938   */\n      dup7\n        /* \"#utility.yul\":4929:4945   */\n      add\n        /* \"#utility.yul\":4894:4959   */\n      tag_236\n      jump\t// in\n    tag_340:\n        /* \"#utility.yul\":4984:5013   */\n      tag_341\n        /* \"#utility.yul\":5006:5012   */\n      dup2\n        /* \"#utility.yul\":4984:5013   */\n      tag_224\n      jump\t// in\n    tag_341:\n        /* \"#utility.yul\":4979:4982   */\n      dup5\n        /* \"#utility.yul\":4975:5014   */\n      add\n        /* \"#utility.yul\":4968:5014   */\n      swap2\n      pop\n        /* \"#utility.yul\":4735:5020   */\n      pop\n        /* \"#utility.yul\":4643:5020   */\n      swap3\n      swap2\n      pop\n      pop\n      jump\t// out\n        /* \"#utility.yul\":5026:5339   */\n    tag_28:\n        /* \"#utility.yul\":5139:5143   */\n      0x00\n        /* \"#utility.yul\":5177:5179   */\n      0x20\n        /* \"#utility.yul\":5166:5175   */\n      dup3\n        /* \"#utility.yul\":5162:5180   */\n      add\n        /* \"#utility.yul\":5154:5180   */\n      swap1\n      pop\n        /* \"#utility.yul\":5226:5235   */\n      dup2\n        /* \"#utility.yul\":5220:5224   */\n      dup2\n        /* \"#utility.yul\":5216:5236   */\n      sub\n        /* \"#utility.yul\":5212:5213   */\n      0x00\n        /* \"#utility.yul\":5201:5210   */\n      dup4\n        /* \"#utility.yul\":5197:5214   */\n      add\n        /* \"#utility.yul\":5190:5237   */\n      mstore\n        /* \"#utility.yul\":5254:5332   */\n      tag_343\n        /* \"#utility.yul\":5327:5331   */\n      dup2\n        /* \"#utility.yul\":5318:5324   */\n      dup5\n        /* \"#utility.yul\":5254:5332   */\n      tag_237\n      jump\t// in\n    tag_343:\n        /* \"#utility.yul\":5246:5332   */\n      swap1\n      pop\n        /* \"#utility.yul\":5026:5339   */\n      swap3\n      swap2\n      pop\n      pop\n      jump\t// out\n        /* \"#utility.yul\":5345:5482   */\n    tag_238:\n        /* \"#utility.yul\":5435:5441   */\n      0x00\n        /* \"#utility.yul\":5469:5474   */\n      dup2\n        /* \"#utility.yul\":5463:5475   */\n      mload\n        /* \"#utility.yul\":5453:5475   */\n      swap1\n      pop\n        /* \"#utility.yul\":5345:5482   */\n      swap2\n      swap1\n      pop\n      jump\t// out\n        /* \"#utility.yul\":5488:5695   */\n    tag_239:\n        /* \"#utility.yul\":5610:5621   */\n      0x00\n        /* \"#utility.yul\":5644:5650   */\n      dup3\n        /* \"#utility.yul\":5639:5642   */\n      dup3\n        /* \"#utility.yul\":5632:5651   */\n      mstore\n        /* \"#utility.yul\":5684:5688   */\n      0x20\n        /* \"#utility.yul\":5679:5682   */\n      dup3\n        /* \"#utility.yul\":5675:5689   */\n      add\n        /* \"#utility.yul\":5660:5689   */\n      swap1\n      pop\n        /* \"#utility.yul\":5488:5695   */\n      swap3\n      swap2\n      pop\n      pop\n      jump\t// out\n        /* \"#utility.yul\":5701:5856   */\n    tag_240:\n        /* \"#utility.yul\":5791:5795   */\n      0x00\n        /* \"#utility.yul\":5814:5817   */\n      dup2\n        /* \"#utility.yul\":5806:5817   */\n      swap1\n      pop\n        /* \"#utility.yul\":5844:5848   */\n      0x20\n        /* \"#utility.yul\":5839:5842   */\n      dup3\n        /* \"#utility.yul\":5835:5849   */\n      add\n        /* \"#utility.yul\":5827:5849   */\n      swap1\n      pop\n        /* \"#utility.yul\":5701:5856   */\n      swap2\n      swap1\n      pop\n      jump\t// out\n        /* \"#utility.yul\":5862:6021   */\n    tag_241:\n        /* \"#utility.yul\":5936:5947   */\n      0x00\n        /* \"#utility.yul\":5970:5976   */\n      dup3\n        /* \"#utility.yul\":5965:5968   */\n      dup3\n        /* \"#utility.yul\":5958:5977   */\n      mstore\n        /* \"#utility.yul\":6010:6014   */\n      0x20\n        /* \"#utility.yul\":6005:6008   */\n      dup3\n        /* \"#utility.yul\":6001:6015   */\n      add\n        /* \"#utility.yul\":5986:6015   */\n      swap1\n      pop\n        /* \"#utility.yul\":5862:6021   */\n      swap3\n      swap2\n      pop\n      pop\n      jump\t// out\n        /* \"#utility.yul\":6027:6384   */\n    tag_242:\n        /* \"#utility.yul\":6105:6108   */\n      0x00\n        /* \"#utility.yul\":6133:6172   */\n      tag_349\n        /* \"#utility.yul\":6166:6171   */\n      dup3\n        /* \"#utility.yul\":6133:6172   */\n      tag_234\n      jump\t// in\n    tag_349:\n        /* \"#utility.yul\":6188:6249   */\n      tag_350\n        /* \"#utility.yul\":6242:6248   */\n      dup2\n        /* \"#utility.yul\":6237:6240   */\n      dup6\n        /* \"#utility.yul\":6188:6249   */\n      tag_241\n      jump\t// in\n    tag_350:\n        /* \"#utility.yul\":6181:6249   */\n      swap4\n      pop\n        /* \"#utility.yul\":6258:6323   */\n      tag_351\n        /* \"#utility.yul\":6316:6322   */\n      dup2\n        /* \"#utility.yul\":6311:6314   */\n      dup6\n        /* \"#utility.yul\":6304:6308   */\n      0x20\n        /* \"#utility.yul\":6297:6302   */\n      dup7\n        /* \"#utility.yul\":6293:6309   */\n      add\n        /* \"#utility.yul\":6258:6323   */\n      tag_236\n      jump\t// in\n    tag_351:\n        /* \"#utility.yul\":6348:6377   */\n      tag_352\n        /* \"#utility.yul\":6370:6376   */\n      dup2\n        /* \"#utility.yul\":6348:6377   */\n      tag_224\n      jump\t// in\n    tag_352:\n        /* \"#utility.yul\":6343:6346   */\n      dup5\n        /* \"#utility.yul\":6339:6378   */\n      add\n        /* \"#utility.yul\":6332:6378   */\n      swap2\n      pop\n        /* \"#utility.yul\":6109:6384   */\n      pop\n        /* \"#utility.yul\":6027:6384   */\n      swap3\n      swap2\n      pop\n      pop\n      jump\t// out\n        /* \"#utility.yul\":6390:6498   */\n    tag_243:\n        /* \"#utility.yul\":6467:6491   */\n      tag_354\n        /* \"#utility.yul\":6485:6490   */\n      dup2\n        /* \"#utility.yul\":6467:6491   */\n      tag_217\n      jump\t// in\n    tag_354:\n        /* \"#utility.yul\":6462:6465   */\n      dup3\n        /* \"#utility.yul\":6455:6492   */\n      mstore\n        /* \"#utility.yul\":6390:6498   */\n      pop\n      pop\n      jump\t// out\n        /* \"#utility.yul\":6504:6628   */\n    tag_244:\n        /* \"#utility.yul\":6581:6587   */\n      0x00\n        /* \"#utility.yul\":6615:6620   */\n      dup2\n        /* \"#utility.yul\":6609:6621   */\n      mload\n        /* \"#utility.yul\":6599:6621   */\n      swap1\n      pop\n        /* \"#utility.yul\":6504:6628   */\n      swap2\n      swap1\n      pop\n      jump\t// out\n        /* \"#utility.yul\":6634:6818   */\n    tag_245:\n        /* \"#utility.yul\":6733:6744   */\n      0x00\n        /* \"#utility.yul\":6767:6773   */\n      dup3\n        /* \"#utility.yul\":6762:6765   */\n      dup3\n        /* \"#utility.yul\":6755:6774   */\n      mstore\n        /* \"#utility.yul\":6807:6811   */\n      0x20\n        /* \"#utility.yul\":6802:6805   */\n      dup3\n        /* \"#utility.yul\":6798:6812   */\n      add\n        /* \"#utility.yul\":6783:6812   */\n      swap1\n      pop\n        /* \"#utility.yul\":6634:6818   */\n      swap3\n      swap2\n      pop\n      pop\n      jump\t// out\n        /* \"#utility.yul\":6824:6966   */\n    tag_246:\n        /* \"#utility.yul\":6901:6905   */\n      0x00\n        /* \"#utility.yul\":6924:6927   */\n      dup2\n        /* \"#utility.yul\":6916:6927   */\n      swap1\n      pop\n        /* \"#utility.yul\":6954:6958   */\n      0x20\n        /* \"#utility.yul\":6949:6952   */\n      dup3\n        /* \"#utility.yul\":6945:6959   */\n      add\n        /* \"#utility.yul\":6937:6959   */\n      swap1\n      pop\n        /* \"#utility.yul\":6824:6966   */\n      swap2\n      swap1\n      pop\n      jump\t// out\n        /* \"#utility.yul\":6972:7168   */\n    tag_247:\n        /* \"#utility.yul\":7061:7071   */\n      0x00\n        /* \"#utility.yul\":7096:7162   */\n      tag_359\n        /* \"#utility.yul\":7158:7161   */\n      dup4\n        /* \"#utility.yul\":7150:7156   */\n      dup4\n        /* \"#utility.yul\":7096:7162   */\n      tag_242\n      jump\t// in\n    tag_359:\n        /* \"#utility.yul\":7082:7162   */\n      swap1\n      pop\n        /* \"#utility.yul\":6972:7168   */\n      swap3\n      swap2\n      pop\n      pop\n      jump\t// out\n        /* \"#utility.yul\":7174:7297   */\n    tag_248:\n        /* \"#utility.yul\":7254:7258   */\n      0x00\n        /* \"#utility.yul\":7286:7290   */\n      0x20\n        /* \"#utility.yul\":7281:7284   */\n      dup3\n        /* \"#utility.yul\":7277:7291   */\n      add\n        /* \"#utility.yul\":7269:7291   */\n      swap1\n      pop\n        /* \"#utility.yul\":7174:7297   */\n      swap2\n      swap1\n      pop\n      jump\t// out\n        /* \"#utility.yul\":7331:8302   */\n    tag_249:\n        /* \"#utility.yul\":7460:7463   */\n      0x00\n        /* \"#utility.yul\":7489:7553   */\n      tag_362\n        /* \"#utility.yul\":7547:7552   */\n      dup3\n        /* \"#utility.yul\":7489:7553   */\n      tag_244\n      jump\t// in\n    tag_362:\n        /* \"#utility.yul\":7569:7655   */\n      tag_363\n        /* \"#utility.yul\":7648:7654   */\n      dup2\n        /* \"#utility.yul\":7643:7646   */\n      dup6\n        /* \"#utility.yul\":7569:7655   */\n      tag_245\n      jump\t// in\n    tag_363:\n        /* \"#utility.yul\":7562:7655   */\n      swap4\n      pop\n        /* \"#utility.yul\":7681:7684   */\n      dup4\n        /* \"#utility.yul\":7726:7730   */\n      0x20\n        /* \"#utility.yul\":7718:7724   */\n      dup3\n        /* \"#utility.yul\":7714:7731   */\n      mul\n        /* \"#utility.yul\":7709:7712   */\n      dup6\n        /* \"#utility.yul\":7705:7732   */\n      add\n        /* \"#utility.yul\":7756:7822   */\n      tag_364\n        /* \"#utility.yul\":7816:7821   */\n      dup6\n        /* \"#utility.yul\":7756:7822   */\n      tag_246\n      jump\t// in\n    tag_364:\n        /* \"#utility.yul\":7845:7852   */\n      dup1\n        /* \"#utility.yul\":7876:7877   */\n      0x00\n        /* \"#utility.yul\":7861:8257   */\n    tag_365:\n        /* \"#utility.yul\":7886:7892   */\n      dup6\n        /* \"#utility.yul\":7883:7884   */\n      dup2\n        /* \"#utility.yul\":7880:7893   */\n      lt\n        /* \"#utility.yul\":7861:8257   */\n      iszero\n      tag_367\n      jumpi\n        /* \"#utility.yul\":7957:7966   */\n      dup5\n        /* \"#utility.yul\":7951:7955   */\n      dup5\n        /* \"#utility.yul\":7947:7967   */\n      sub\n        /* \"#utility.yul\":7942:7945   */\n      dup10\n        /* \"#utility.yul\":7935:7968   */\n      mstore\n        /* \"#utility.yul\":8008:8014   */\n      dup2\n        /* \"#utility.yul\":8002:8015   */\n      mload\n        /* \"#utility.yul\":8036:8120   */\n      tag_368\n        /* \"#utility.yul\":8115:8119   */\n      dup6\n        /* \"#utility.yul\":8100:8113   */\n      dup3\n        /* \"#utility.yul\":8036:8120   */\n      tag_247\n      jump\t// in\n    tag_368:\n        /* \"#utility.yul\":8028:8120   */\n      swap5\n      pop\n        /* \"#utility.yul\":8143:8213   */\n      tag_369\n        /* \"#utility.yul\":8206:8212   */\n      dup4\n        /* \"#utility.yul\":8143:8213   */\n      tag_248\n      jump\t// in\n    tag_369:\n        /* \"#utility.yul\":8133:8213   */\n      swap3\n      pop\n        /* \"#utility.yul\":8242:8246   */\n      0x20\n        /* \"#utility.yul\":8237:8240   */\n      dup11\n        /* \"#utility.yul\":8233:8247   */\n      add\n        /* \"#utility.yul\":8226:8247   */\n      swap10\n      pop\n        /* \"#utility.yul\":7921:8257   */\n      pop\n        /* \"#utility.yul\":7908:7909   */\n      0x01\n        /* \"#utility.yul\":7905:7906   */\n      dup2\n        /* \"#utility.yul\":7901:7910   */\n      add\n        /* \"#utility.yul\":7896:7910   */\n      swap1\n      pop\n        /* \"#utility.yul\":7861:8257   */\n      jump(tag_365)\n    tag_367:\n        /* \"#utility.yul\":7865:7879   */\n      pop\n        /* \"#utility.yul\":8273:8277   */\n      dup3\n        /* \"#utility.yul\":8266:8277   */\n      swap8\n      pop\n        /* \"#utility.yul\":8293:8296   */\n      dup8\n        /* \"#utility.yul\":8286:8296   */\n      swap6\n      pop\n        /* \"#utility.yul\":7465:8302   */\n      pop\n      pop\n      pop\n      pop\n      pop\n        /* \"#utility.yul\":7331:8302   */\n      swap3\n      swap2\n      pop\n      pop\n      jump\t// out\n        /* \"#utility.yul\":8358:9671   */\n    tag_250:\n        /* \"#utility.yul\":8463:8466   */\n      0x00\n        /* \"#utility.yul\":8499:8503   */\n      0xa0\n        /* \"#utility.yul\":8494:8497   */\n      dup4\n        /* \"#utility.yul\":8490:8504   */\n      add\n        /* \"#utility.yul\":8586:8590   */\n      0x00\n        /* \"#utility.yul\":8579:8584   */\n      dup4\n        /* \"#utility.yul\":8575:8591   */\n      add\n        /* \"#utility.yul\":8569:8592   */\n      mload\n        /* \"#utility.yul\":8639:8642   */\n      dup5\n        /* \"#utility.yul\":8633:8637   */\n      dup3\n        /* \"#utility.yul\":8629:8643   */\n      sub\n        /* \"#utility.yul\":8622:8626   */\n      0x00\n        /* \"#utility.yul\":8617:8620   */\n      dup7\n        /* \"#utility.yul\":8613:8627   */\n      add\n        /* \"#utility.yul\":8606:8644   */\n      mstore\n        /* \"#utility.yul\":8665:8738   */\n      tag_371\n        /* \"#utility.yul\":8733:8737   */\n      dup3\n        /* \"#utility.yul\":8719:8731   */\n      dup3\n        /* \"#utility.yul\":8665:8738   */\n      tag_242\n      jump\t// in\n    tag_371:\n        /* \"#utility.yul\":8657:8738   */\n      swap2\n      pop\n        /* \"#utility.yul\":8514:8749   */\n      pop\n        /* \"#utility.yul\":8833:8837   */\n      0x20\n        /* \"#utility.yul\":8826:8831   */\n      dup4\n        /* \"#utility.yul\":8822:8838   */\n      add\n        /* \"#utility.yul\":8816:8839   */\n      mload\n        /* \"#utility.yul\":8852:8915   */\n      tag_372\n        /* \"#utility.yul\":8909:8913   */\n      0x20\n        /* \"#utility.yul\":8904:8907   */\n      dup7\n        /* \"#utility.yul\":8900:8914   */\n      add\n        /* \"#utility.yul\":8886:8898   */\n      dup3\n        /* \"#utility.yul\":8852:8915   */\n      tag_243\n      jump\t// in\n    tag_372:\n        /* \"#utility.yul\":8759:8925   */\n      pop\n        /* \"#utility.yul\":9008:9012   */\n      0x40\n        /* \"#utility.yul\":9001:9006   */\n      dup4\n        /* \"#utility.yul\":8997:9013   */\n      add\n        /* \"#utility.yul\":8991:9014   */\n      mload\n        /* \"#utility.yul\":9027:9090   */\n      tag_373\n        /* \"#utility.yul\":9084:9088   */\n      0x40\n        /* \"#utility.yul\":9079:9082   */\n      dup7\n        /* \"#utility.yul\":9075:9089   */\n      add\n        /* \"#utility.yul\":9061:9073   */\n      dup3\n        /* \"#utility.yul\":9027:9090   */\n      tag_243\n      jump\t// in\n    tag_373:\n        /* \"#utility.yul\":8935:9100   */\n      pop\n        /* \"#utility.yul\":9183:9187   */\n      0x60\n        /* \"#utility.yul\":9176:9181   */\n      dup4\n        /* \"#utility.yul\":9172:9188   */\n      add\n        /* \"#utility.yul\":9166:9189   */\n      mload\n        /* \"#utility.yul\":9236:9239   */\n      dup5\n        /* \"#utility.yul\":9230:9234   */\n      dup3\n        /* \"#utility.yul\":9226:9240   */\n      sub\n        /* \"#utility.yul\":9219:9223   */\n      0x60\n        /* \"#utility.yul\":9214:9217   */\n      dup7\n        /* \"#utility.yul\":9210:9224   */\n      add\n        /* \"#utility.yul\":9203:9241   */\n      mstore\n        /* \"#utility.yul\":9262:9335   */\n      tag_374\n        /* \"#utility.yul\":9330:9334   */\n      dup3\n        /* \"#utility.yul\":9316:9328   */\n      dup3\n        /* \"#utility.yul\":9262:9335   */\n      tag_242\n      jump\t// in\n    tag_374:\n        /* \"#utility.yul\":9254:9335   */\n      swap2\n      pop\n        /* \"#utility.yul\":9110:9346   */\n      pop\n        /* \"#utility.yul\":9431:9435   */\n      0x80\n        /* \"#utility.yul\":9424:9429   */\n      dup4\n        /* \"#utility.yul\":9420:9436   */\n      add\n        /* \"#utility.yul\":9414:9437   */\n      mload\n        /* \"#utility.yul\":9484:9487   */\n      dup5\n        /* \"#utility.yul\":9478:9482   */\n      dup3\n        /* \"#utility.yul\":9474:9488   */\n      sub\n        /* \"#utility.yul\":9467:9471   */\n      0x80\n        /* \"#utility.yul\":9462:9465   */\n      dup7\n        /* \"#utility.yul\":9458:9472   */\n      add\n        /* \"#utility.yul\":9451:9489   */\n      mstore\n        /* \"#utility.yul\":9510:9633   */\n      tag_375\n        /* \"#utility.yul\":9628:9632   */\n      dup3\n        /* \"#utility.yul\":9614:9626   */\n      dup3\n        /* \"#utility.yul\":9510:9633   */\n      tag_249\n      jump\t// in\n    tag_375:\n        /* \"#utility.yul\":9502:9633   */\n      swap2\n      pop\n        /* \"#utility.yul\":9356:9644   */\n      pop\n        /* \"#utility.yul\":9661:9665   */\n      dup1\n        /* \"#utility.yul\":9654:9665   */\n      swap2\n      pop\n        /* \"#utility.yul\":8468:9671   */\n      pop\n        /* \"#utility.yul\":8358:9671   */\n      swap3\n      swap2\n      pop\n      pop\n      jump\t// out\n        /* \"#utility.yul\":9677:9925   */\n    tag_251:\n        /* \"#utility.yul\":9792:9802   */\n      0x00\n        /* \"#utility.yul\":9827:9919   */\n      tag_377\n        /* \"#utility.yul\":9915:9918   */\n      dup4\n        /* \"#utility.yul\":9907:9913   */\n      dup4\n        /* \"#utility.yul\":9827:9919   */\n      tag_250\n      jump\t// in\n    tag_377:\n        /* \"#utility.yul\":9813:9919   */\n      swap1\n      pop\n        /* \"#utility.yul\":9677:9925   */\n      swap3\n      swap2\n      pop\n      pop\n      jump\t// out\n        /* \"#utility.yul\":9931:10067   */\n    tag_252:\n        /* \"#utility.yul\":10024:10028   */\n      0x00\n        /* \"#utility.yul\":10056:10060   */\n      0x20\n        /* \"#utility.yul\":10051:10054   */\n      dup3\n        /* \"#utility.yul\":10047:10061   */\n      add\n        /* \"#utility.yul\":10039:10061   */\n      swap1\n      pop\n        /* \"#utility.yul\":9931:10067   */\n      swap2\n      swap1\n      pop\n      jump\t// out\n        /* \"#utility.yul\":10127:11222   */\n    tag_253:\n        /* \"#utility.yul\":10292:10295   */\n      0x00\n        /* \"#utility.yul\":10321:10398   */\n      tag_380\n        /* \"#utility.yul\":10392:10397   */\n      dup3\n        /* \"#utility.yul\":10321:10398   */\n      tag_238\n      jump\t// in\n    tag_380:\n        /* \"#utility.yul\":10414:10523   */\n      tag_381\n        /* \"#utility.yul\":10516:10522   */\n      dup2\n        /* \"#utility.yul\":10511:10514   */\n      dup6\n        /* \"#utility.yul\":10414:10523   */\n      tag_239\n      jump\t// in\n    tag_381:\n        /* \"#utility.yul\":10407:10523   */\n      swap4\n      pop\n        /* \"#utility.yul\":10549:10552   */\n      dup4\n        /* \"#utility.yul\":10594:10598   */\n      0x20\n        /* \"#utility.yul\":10586:10592   */\n      dup3\n        /* \"#utility.yul\":10582:10599   */\n      mul\n        /* \"#utility.yul\":10577:10580   */\n      dup6\n        /* \"#utility.yul\":10573:10600   */\n      add\n        /* \"#utility.yul\":10624:10703   */\n      tag_382\n        /* \"#utility.yul\":10697:10702   */\n      dup6\n        /* \"#utility.yul\":10624:10703   */\n      tag_240\n      jump\t// in\n    tag_382:\n        /* \"#utility.yul\":10726:10733   */\n      dup1\n        /* \"#utility.yul\":10757:10758   */\n      0x00\n        /* \"#utility.yul\":10742:11177   */\n    tag_383:\n        /* \"#utility.yul\":10767:10773   */\n      dup6\n        /* \"#utility.yul\":10764:10765   */\n      dup2\n        /* \"#utility.yul\":10761:10774   */\n      lt\n        /* \"#utility.yul\":10742:11177   */\n      iszero\n      tag_385\n      jumpi\n        /* \"#utility.yul\":10838:10847   */\n      dup5\n        /* \"#utility.yul\":10832:10836   */\n      dup5\n        /* \"#utility.yul\":10828:10848   */\n      sub\n        /* \"#utility.yul\":10823:10826   */\n      dup10\n        /* \"#utility.yul\":10816:10849   */\n      mstore\n        /* \"#utility.yul\":10889:10895   */\n      dup2\n        /* \"#utility.yul\":10883:10896   */\n      mload\n        /* \"#utility.yul\":10917:11027   */\n      tag_386\n        /* \"#utility.yul\":11022:11026   */\n      dup6\n        /* \"#utility.yul\":11007:11020   */\n      dup3\n        /* \"#utility.yul\":10917:11027   */\n      tag_251\n      jump\t// in\n    tag_386:\n        /* \"#utility.yul\":10909:11027   */\n      swap5\n      pop\n        /* \"#utility.yul\":11050:11133   */\n      tag_387\n        /* \"#utility.yul\":11126:11132   */\n      dup4\n        /* \"#utility.yul\":11050:11133   */\n      tag_252\n      jump\t// in\n    tag_387:\n        /* \"#utility.yul\":11040:11133   */\n      swap3\n      pop\n        /* \"#utility.yul\":11162:11166   */\n      0x20\n        /* \"#utility.yul\":11157:11160   */\n      dup11\n        /* \"#utility.yul\":11153:11167   */\n      add\n        /* \"#utility.yul\":11146:11167   */\n      swap10\n      pop\n        /* \"#utility.yul\":10802:11177   */\n      pop\n        /* \"#utility.yul\":10789:10790   */\n      0x01\n        /* \"#utility.yul\":10786:10787   */\n      dup2\n        /* \"#utility.yul\":10782:10791   */\n      add\n        /* \"#utility.yul\":10777:10791   */\n      swap1\n      pop\n        /* \"#utility.yul\":10742:11177   */\n      jump(tag_383)\n    tag_385:\n        /* \"#utility.yul\":10746:10760   */\n      pop\n        /* \"#utility.yul\":11193:11197   */\n      dup3\n        /* \"#utility.yul\":11186:11197   */\n      swap8\n      pop\n        /* \"#utility.yul\":11213:11216   */\n      dup8\n        /* \"#utility.yul\":11206:11216   */\n      swap6\n      pop\n        /* \"#utility.yul\":10297:11222   */\n      pop\n      pop\n      pop\n      pop\n      pop\n        /* \"#utility.yul\":10127:11222   */\n      swap3\n      swap2\n      pop\n      pop\n      jump\t// out\n        /* \"#utility.yul\":11228:11803   */\n    tag_32:\n        /* \"#utility.yul\":11445:11449   */\n      0x00\n        /* \"#utility.yul\":11483:11485   */\n      0x40\n        /* \"#utility.yul\":11472:11481   */\n      dup3\n        /* \"#utility.yul\":11468:11486   */\n      add\n        /* \"#utility.yul\":11460:11486   */\n      swap1\n      pop\n        /* \"#utility.yul\":11496:11567   */\n      tag_389\n        /* \"#utility.yul\":11564:11565   */\n      0x00\n        /* \"#utility.yul\":11553:11562   */\n      dup4\n        /* \"#utility.yul\":11549:11566   */\n      add\n        /* \"#utility.yul\":11540:11546   */\n      dup6\n        /* \"#utility.yul\":11496:11567   */\n      tag_218\n      jump\t// in\n    tag_389:\n        /* \"#utility.yul\":11614:11623   */\n      dup2\n        /* \"#utility.yul\":11608:11612   */\n      dup2\n        /* \"#utility.yul\":11604:11624   */\n      sub\n        /* \"#utility.yul\":11599:11601   */\n      0x20\n        /* \"#utility.yul\":11588:11597   */\n      dup4\n        /* \"#utility.yul\":11584:11602   */\n      add\n        /* \"#utility.yul\":11577:11625   */\n      mstore\n        /* \"#utility.yul\":11642:11796   */\n      tag_390\n        /* \"#utility.yul\":11791:11795   */\n      dup2\n        /* \"#utility.yul\":11782:11788   */\n      dup5\n        /* \"#utility.yul\":11642:11796   */\n      tag_253\n      jump\t// in\n    tag_390:\n        /* \"#utility.yul\":11634:11796   */\n      swap1\n      pop\n        /* \"#utility.yul\":11228:11803   */\n      swap4\n      swap3\n      pop\n      pop\n      pop\n      jump\t// out\n        /* \"#utility.yul\":11859:13182   */\n    tag_254:\n        /* \"#utility.yul\":11974:11977   */\n      0x00\n        /* \"#utility.yul\":12010:12014   */\n      0xa0\n        /* \"#utility.yul\":12005:12008   */\n      dup4\n        /* \"#utility.yul\":12001:12015   */\n      add\n        /* \"#utility.yul\":12097:12101   */\n      0x00\n        /* \"#utility.yul\":12090:12095   */\n      dup4\n        /* \"#utility.yul\":12086:12102   */\n      add\n        /* \"#utility.yul\":12080:12103   */\n      mload\n        /* \"#utility.yul\":12150:12153   */\n      dup5\n        /* \"#utility.yul\":12144:12148   */\n      dup3\n        /* \"#utility.yul\":12140:12154   */\n      sub\n        /* \"#utility.yul\":12133:12137   */\n      0x00\n        /* \"#utility.yul\":12128:12131   */\n      dup7\n        /* \"#utility.yul\":12124:12138   */\n      add\n        /* \"#utility.yul\":12117:12155   */\n      mstore\n        /* \"#utility.yul\":12176:12249   */\n      tag_392\n        /* \"#utility.yul\":12244:12248   */\n      dup3\n        /* \"#utility.yul\":12230:12242   */\n      dup3\n        /* \"#utility.yul\":12176:12249   */\n      tag_242\n      jump\t// in\n    tag_392:\n        /* \"#utility.yul\":12168:12249   */\n      swap2\n      pop\n        /* \"#utility.yul\":12025:12260   */\n      pop\n        /* \"#utility.yul\":12344:12348   */\n      0x20\n        /* \"#utility.yul\":12337:12342   */\n      dup4\n        /* \"#utility.yul\":12333:12349   */\n      add\n        /* \"#utility.yul\":12327:12350   */\n      mload\n        /* \"#utility.yul\":12363:12426   */\n      tag_393\n        /* \"#utility.yul\":12420:12424   */\n      0x20\n        /* \"#utility.yul\":12415:12418   */\n      dup7\n        /* \"#utility.yul\":12411:12425   */\n      add\n        /* \"#utility.yul\":12397:12409   */\n      dup3\n        /* \"#utility.yul\":12363:12426   */\n      tag_243\n      jump\t// in\n    tag_393:\n        /* \"#utility.yul\":12270:12436   */\n      pop\n        /* \"#utility.yul\":12519:12523   */\n      0x40\n        /* \"#utility.yul\":12512:12517   */\n      dup4\n        /* \"#utility.yul\":12508:12524   */\n      add\n        /* \"#utility.yul\":12502:12525   */\n      mload\n        /* \"#utility.yul\":12538:12601   */\n      tag_394\n        /* \"#utility.yul\":12595:12599   */\n      0x40\n        /* \"#utility.yul\":12590:12593   */\n      dup7\n        /* \"#utility.yul\":12586:12600   */\n      add\n        /* \"#utility.yul\":12572:12584   */\n      dup3\n        /* \"#utility.yul\":12538:12601   */\n      tag_243\n      jump\t// in\n    tag_394:\n        /* \"#utility.yul\":12446:12611   */\n      pop\n        /* \"#utility.yul\":12694:12698   */\n      0x60\n        /* \"#utility.yul\":12687:12692   */\n      dup4\n        /* \"#utility.yul\":12683:12699   */\n      add\n        /* \"#utility.yul\":12677:12700   */\n      mload\n        /* \"#utility.yul\":12747:12750   */\n      dup5\n        /* \"#utility.yul\":12741:12745   */\n      dup3\n        /* \"#utility.yul\":12737:12751   */\n      sub\n        /* \"#utility.yul\":12730:12734   */\n      0x60\n        /* \"#utility.yul\":12725:12728   */\n      dup7\n        /* \"#utility.yul\":12721:12735   */\n      add\n        /* \"#utility.yul\":12714:12752   */\n      mstore\n        /* \"#utility.yul\":12773:12846   */\n      tag_395\n        /* \"#utility.yul\":12841:12845   */\n      dup3\n        /* \"#utility.yul\":12827:12839   */\n      dup3\n        /* \"#utility.yul\":12773:12846   */\n      tag_242\n      jump\t// in\n    tag_395:\n        /* \"#utility.yul\":12765:12846   */\n      swap2\n      pop\n        /* \"#utility.yul\":12621:12857   */\n      pop\n        /* \"#utility.yul\":12942:12946   */\n      0x80\n        /* \"#utility.yul\":12935:12940   */\n      dup4\n        /* \"#utility.yul\":12931:12947   */\n      add\n        /* \"#utility.yul\":12925:12948   */\n      mload\n        /* \"#utility.yul\":12995:12998   */\n      dup5\n        /* \"#utility.yul\":12989:12993   */\n      dup3\n        /* \"#utility.yul\":12985:12999   */\n      sub\n        /* \"#utility.yul\":12978:12982   */\n      0x80\n        /* \"#utility.yul\":12973:12976   */\n      dup7\n        /* \"#utility.yul\":12969:12983   */\n      add\n        /* \"#utility.yul\":12962:13000   */\n      mstore\n        /* \"#utility.yul\":13021:13144   */\n      tag_396\n        /* \"#utility.yul\":13139:13143   */\n      dup3\n        /* \"#utility.yul\":13125:13137   */\n      dup3\n        /* \"#utility.yul\":13021:13144   */\n      tag_249\n      jump\t// in\n    tag_396:\n        /* \"#utility.yul\":13013:13144   */\n      swap2\n      pop\n        /* \"#utility.yul\":12867:13155   */\n      pop\n        /* \"#utility.yul\":13172:13176   */\n      dup1\n        /* \"#utility.yul\":13165:13176   */\n      swap2\n      pop\n        /* \"#utility.yul\":11979:13182   */\n      pop\n        /* \"#utility.yul\":11859:13182   */\n      swap3\n      swap2\n      pop\n      pop\n      jump\t// out\n        /* \"#utility.yul\":13188:13553   */\n    tag_37:\n        /* \"#utility.yul\":13327:13331   */\n      0x00\n        /* \"#utility.yul\":13365:13367   */\n      0x20\n        /* \"#utility.yul\":13354:13363   */\n      dup3\n        /* \"#utility.yul\":13350:13368   */\n      add\n        /* \"#utility.yul\":13342:13368   */\n      swap1\n      pop\n        /* \"#utility.yul\":13414:13423   */\n      dup2\n        /* \"#utility.yul\":13408:13412   */\n      dup2\n        /* \"#utility.yul\":13404:13424   */\n      sub\n        /* \"#utility.yul\":13400:13401   */\n      0x00\n        /* \"#utility.yul\":13389:13398   */\n      dup4\n        /* \"#utility.yul\":13385:13402   */\n      add\n        /* \"#utility.yul\":13378:13425   */\n      mstore\n        /* \"#utility.yul\":13442:13546   */\n      tag_398\n        /* \"#utility.yul\":13541:13545   */\n      dup2\n        /* \"#utility.yul\":13532:13538   */\n      dup5\n        /* \"#utility.yul\":13442:13546   */\n      tag_254\n      jump\t// in\n    tag_398:\n        /* \"#utility.yul\":13434:13546   */\n      swap1\n      pop\n        /* \"#utility.yul\":13188:13553   */\n      swap3\n      swap2\n      pop\n      pop\n      jump\t// out\n        /* \"#utility.yul\":13559:13649   */\n    tag_255:\n        /* \"#utility.yul\":13593:13600   */\n      0x00\n        /* \"#utility.yul\":13636:13641   */\n      dup2\n        /* \"#utility.yul\":13629:13642   */\n      iszero\n        /* \"#utility.yul\":13622:13643   */\n      iszero\n        /* \"#utility.yul\":13611:13643   */\n      swap1\n      pop\n        /* \"#utility.yul\":13559:13649   */\n      swap2\n      swap1\n      pop\n      jump\t// out\n        /* \"#utility.yul\":13655:13764   */\n    tag_256:\n        /* \"#utility.yul\":13736:13757   */\n      tag_401\n        /* \"#utility.yul\":13751:13756   */\n      dup2\n        /* \"#utility.yul\":13736:13757   */\n      tag_255\n      jump\t// in\n    tag_401:\n        /* \"#utility.yul\":13731:13734   */\n      dup3\n        /* \"#utility.yul\":13724:13758   */\n      mstore\n        /* \"#utility.yul\":13655:13764   */\n      pop\n      pop\n      jump\t// out\n        /* \"#utility.yul\":13770:13980   */\n    tag_41:\n        /* \"#utility.yul\":13857:13861   */\n      0x00\n        /* \"#utility.yul\":13895:13897   */\n      0x20\n        /* \"#utility.yul\":13884:13893   */\n      dup3\n        /* \"#utility.yul\":13880:13898   */\n      add\n        /* \"#utility.yul\":13872:13898   */\n      swap1\n      pop\n        /* \"#utility.yul\":13908:13973   */\n      tag_403\n        /* \"#utility.yul\":13970:13971   */\n      0x00\n        /* \"#utility.yul\":13959:13968   */\n      dup4\n        /* \"#utility.yul\":13955:13972   */\n      add\n        /* \"#utility.yul\":13946:13952   */\n      dup5\n        /* \"#utility.yul\":13908:13973   */\n      tag_256\n      jump\t// in\n    tag_403:\n        /* \"#utility.yul\":13770:13980   */\n      swap3\n      swap2\n      pop\n      pop\n      jump\t// out\n        /* \"#utility.yul\":13986:14307   */\n    tag_257:\n        /* \"#utility.yul\":14073:14077   */\n      0x00\n        /* \"#utility.yul\":14163:14181   */\n      0xffffffffffffffff\n        /* \"#utility.yul\":14155:14161   */\n      dup3\n        /* \"#utility.yul\":14152:14182   */\n      gt\n        /* \"#utility.yul\":14149:14205   */\n      iszero\n      tag_405\n      jumpi\n        /* \"#utility.yul\":14185:14203   */\n      tag_406\n      tag_225\n      jump\t// in\n    tag_406:\n        /* \"#utility.yul\":14149:14205   */\n    tag_405:\n        /* \"#utility.yul\":14235:14239   */\n      0x20\n        /* \"#utility.yul\":14227:14233   */\n      dup3\n        /* \"#utility.yul\":14223:14240   */\n      mul\n        /* \"#utility.yul\":14215:14240   */\n      swap1\n      pop\n        /* \"#utility.yul\":14295:14299   */\n      0x20\n        /* \"#utility.yul\":14289:14293   */\n      dup2\n        /* \"#utility.yul\":14285:14300   */\n      add\n        /* \"#utility.yul\":14277:14300   */\n      swap1\n      pop\n        /* \"#utility.yul\":13986:14307   */\n      swap2\n      swap1\n      pop\n      jump\t// out\n        /* \"#utility.yul\":14313:14430   */\n    tag_258:\n        /* \"#utility.yul\":14422:14423   */\n      0x00\n        /* \"#utility.yul\":14419:14420   */\n      dup1\n        /* \"#utility.yul\":14412:14424   */\n      revert\n        /* \"#utility.yul\":14452:15397   */\n    tag_259:\n        /* \"#utility.yul\":14558:14563   */\n      0x00\n        /* \"#utility.yul\":14583:14674   */\n      tag_409\n        /* \"#utility.yul\":14599:14673   */\n      tag_410\n        /* \"#utility.yul\":14666:14672   */\n      dup5\n        /* \"#utility.yul\":14599:14673   */\n      tag_257\n      jump\t// in\n    tag_410:\n        /* \"#utility.yul\":14583:14674   */\n      tag_227\n      jump\t// in\n    tag_409:\n        /* \"#utility.yul\":14574:14674   */\n      swap1\n      pop\n        /* \"#utility.yul\":14694:14699   */\n      dup1\n        /* \"#utility.yul\":14723:14729   */\n      dup4\n        /* \"#utility.yul\":14716:14721   */\n      dup3\n        /* \"#utility.yul\":14709:14730   */\n      mstore\n        /* \"#utility.yul\":14757:14761   */\n      0x20\n        /* \"#utility.yul\":14750:14755   */\n      dup3\n        /* \"#utility.yul\":14746:14762   */\n      add\n        /* \"#utility.yul\":14739:14762   */\n      swap1\n      pop\n        /* \"#utility.yul\":14810:14814   */\n      0x20\n        /* \"#utility.yul\":14802:14808   */\n      dup5\n        /* \"#utility.yul\":14798:14815   */\n      mul\n        /* \"#utility.yul\":14790:14796   */\n      dup4\n        /* \"#utility.yul\":14786:14816   */\n      add\n        /* \"#utility.yul\":14839:14842   */\n      dup6\n        /* \"#utility.yul\":14831:14837   */\n      dup2\n        /* \"#utility.yul\":14828:14843   */\n      gt\n        /* \"#utility.yul\":14825:14947   */\n      iszero\n      tag_411\n      jumpi\n        /* \"#utility.yul\":14858:14937   */\n      tag_412\n      tag_258\n      jump\t// in\n    tag_412:\n        /* \"#utility.yul\":14825:14947   */\n    tag_411:\n        /* \"#utility.yul\":14973:14979   */\n      dup4\n        /* \"#utility.yul\":14956:15391   */\n    tag_413:\n        /* \"#utility.yul\":14990:14996   */\n      dup2\n        /* \"#utility.yul\":14985:14988   */\n      dup2\n        /* \"#utility.yul\":14982:14997   */\n      lt\n        /* \"#utility.yul\":14956:15391   */\n      iszero\n      tag_415\n      jumpi\n        /* \"#utility.yul\":15079:15082   */\n      dup1\n        /* \"#utility.yul\":15066:15083   */\n      calldataload\n        /* \"#utility.yul\":15115:15133   */\n      0xffffffffffffffff\n        /* \"#utility.yul\":15102:15113   */\n      dup2\n        /* \"#utility.yul\":15099:15134   */\n      gt\n        /* \"#utility.yul\":15096:15218   */\n      iszero\n      tag_416\n      jumpi\n        /* \"#utility.yul\":15137:15216   */\n      tag_417\n      tag_222\n      jump\t// in\n    tag_417:\n        /* \"#utility.yul\":15096:15218   */\n    tag_416:\n        /* \"#utility.yul\":15261:15272   */\n      dup1\n        /* \"#utility.yul\":15253:15259   */\n      dup7\n        /* \"#utility.yul\":15249:15273   */\n      add\n        /* \"#utility.yul\":15299:15346   */\n      tag_418\n        /* \"#utility.yul\":15342:15345   */\n      dup10\n        /* \"#utility.yul\":15330:15340   */\n      dup3\n        /* \"#utility.yul\":15299:15346   */\n      tag_231\n      jump\t// in\n    tag_418:\n        /* \"#utility.yul\":15294:15297   */\n      dup6\n        /* \"#utility.yul\":15287:15347   */\n      mstore\n        /* \"#utility.yul\":15376:15380   */\n      0x20\n        /* \"#utility.yul\":15371:15374   */\n      dup6\n        /* \"#utility.yul\":15367:15381   */\n      add\n        /* \"#utility.yul\":15360:15381   */\n      swap5\n      pop\n        /* \"#utility.yul\":15032:15391   */\n      pop\n      pop\n        /* \"#utility.yul\":15016:15020   */\n      0x20\n        /* \"#utility.yul\":15011:15014   */\n      dup2\n        /* \"#utility.yul\":15007:15021   */\n      add\n        /* \"#utility.yul\":15000:15021   */\n      swap1\n      pop\n        /* \"#utility.yul\":14956:15391   */\n      jump(tag_413)\n    tag_415:\n        /* \"#utility.yul\":14960:14981   */\n      pop\n        /* \"#utility.yul\":14564:15397   */\n      pop\n      pop\n        /* \"#utility.yul\":14452:15397   */\n      swap4\n      swap3\n      pop\n      pop\n      pop\n      jump\t// out\n        /* \"#utility.yul\":15419:15809   */\n    tag_260:\n        /* \"#utility.yul\":15500:15505   */\n      0x00\n        /* \"#utility.yul\":15549:15552   */\n      dup3\n        /* \"#utility.yul\":15542:15546   */\n      0x1f\n        /* \"#utility.yul\":15534:15540   */\n      dup4\n        /* \"#utility.yul\":15530:15547   */\n      add\n        /* \"#utility.yul\":15526:15553   */\n      slt\n        /* \"#utility.yul\":15516:15638   */\n      tag_420\n      jumpi\n        /* \"#utility.yul\":15557:15636   */\n      tag_421\n      tag_222\n      jump\t// in\n    tag_421:\n        /* \"#utility.yul\":15516:15638   */\n    tag_420:\n        /* \"#utility.yul\":15674:15680   */\n      dup2\n        /* \"#utility.yul\":15661:15681   */\n      calldataload\n        /* \"#utility.yul\":15699:15803   */\n      tag_422\n        /* \"#utility.yul\":15799:15802   */\n      dup5\n        /* \"#utility.yul\":15791:15797   */\n      dup3\n        /* \"#utility.yul\":15784:15788   */\n      0x20\n        /* \"#utility.yul\":15776:15782   */\n      dup7\n        /* \"#utility.yul\":15772:15789   */\n      add\n        /* \"#utility.yul\":15699:15803   */\n      tag_259\n      jump\t// in\n    tag_422:\n        /* \"#utility.yul\":15690:15803   */\n      swap2\n      pop\n        /* \"#utility.yul\":15506:15809   */\n      pop\n        /* \"#utility.yul\":15419:15809   */\n      swap3\n      swap2\n      pop\n      pop\n      jump\t// out\n        /* \"#utility.yul\":15815:16844   */\n    tag_48:\n        /* \"#utility.yul\":15937:15943   */\n      0x00\n        /* \"#utility.yul\":15945:15951   */\n      dup1\n        /* \"#utility.yul\":15953:15959   */\n      0x00\n        /* \"#utility.yul\":16002:16004   */\n      0x60\n        /* \"#utility.yul\":15990:15999   */\n      dup5\n        /* \"#utility.yul\":15981:15988   */\n      dup7\n        /* \"#utility.yul\":15977:16000   */\n      sub\n        /* \"#utility.yul\":15973:16005   */\n      slt\n        /* \"#utility.yul\":15970:16089   */\n      iszero\n      tag_424\n      jumpi\n        /* \"#utility.yul\":16008:16087   */\n      tag_425\n      tag_220\n      jump\t// in\n    tag_425:\n        /* \"#utility.yul\":15970:16089   */\n    tag_424:\n        /* \"#utility.yul\":16156:16157   */\n      0x00\n        /* \"#utility.yul\":16145:16154   */\n      dup5\n        /* \"#utility.yul\":16141:16158   */\n      add\n        /* \"#utility.yul\":16128:16159   */\n      calldataload\n        /* \"#utility.yul\":16186:16204   */\n      0xffffffffffffffff\n        /* \"#utility.yul\":16178:16184   */\n      dup2\n        /* \"#utility.yul\":16175:16205   */\n      gt\n        /* \"#utility.yul\":16172:16289   */\n      iszero\n      tag_426\n      jumpi\n        /* \"#utility.yul\":16208:16287   */\n      tag_427\n      tag_221\n      jump\t// in\n    tag_427:\n        /* \"#utility.yul\":16172:16289   */\n    tag_426:\n        /* \"#utility.yul\":16313:16376   */\n      tag_428\n        /* \"#utility.yul\":16368:16375   */\n      dup7\n        /* \"#utility.yul\":16359:16365   */\n      dup3\n        /* \"#utility.yul\":16348:16357   */\n      dup8\n        /* \"#utility.yul\":16344:16366   */\n      add\n        /* \"#utility.yul\":16313:16376   */\n      tag_231\n      jump\t// in\n    tag_428:\n        /* \"#utility.yul\":16303:16376   */\n      swap4\n      pop\n        /* \"#utility.yul\":16099:16386   */\n      pop\n        /* \"#utility.yul\":16425:16427   */\n      0x20\n        /* \"#utility.yul\":16451:16504   */\n      tag_429\n        /* \"#utility.yul\":16496:16503   */\n      dup7\n        /* \"#utility.yul\":16487:16493   */\n      dup3\n        /* \"#utility.yul\":16476:16485   */\n      dup8\n        /* \"#utility.yul\":16472:16494   */\n      add\n        /* \"#utility.yul\":16451:16504   */\n      tag_233\n      jump\t// in\n    tag_429:\n        /* \"#utility.yul\":16441:16504   */\n      swap3\n      pop\n        /* \"#utility.yul\":16396:16514   */\n      pop\n        /* \"#utility.yul\":16581:16583   */\n      0x40\n        /* \"#utility.yul\":16570:16579   */\n      dup5\n        /* \"#utility.yul\":16566:16584   */\n      add\n        /* \"#utility.yul\":16553:16585   */\n      calldataload\n        /* \"#utility.yul\":16612:16630   */\n      0xffffffffffffffff\n        /* \"#utility.yul\":16604:16610   */\n      dup2\n        /* \"#utility.yul\":16601:16631   */\n      gt\n        /* \"#utility.yul\":16598:16715   */\n      iszero\n      tag_430\n      jumpi\n        /* \"#utility.yul\":16634:16713   */\n      tag_431\n      tag_221\n      jump\t// in\n    tag_431:\n        /* \"#utility.yul\":16598:16715   */\n    tag_430:\n        /* \"#utility.yul\":16739:16827   */\n      tag_432\n        /* \"#utility.yul\":16819:16826   */\n      dup7\n        /* \"#utility.yul\":16810:16816   */\n      dup3\n        /* \"#utility.yul\":16799:16808   */\n      dup8\n        /* \"#utility.yul\":16795:16817   */\n      add\n        /* \"#utility.yul\":16739:16827   */\n      tag_260\n      jump\t// in\n    tag_432:\n        /* \"#utility.yul\":16729:16827   */\n      swap2\n      pop\n        /* \"#utility.yul\":16524:16837   */\n      pop\n        /* \"#utility.yul\":15815:16844   */\n      swap3\n      pop\n      swap3\n      pop\n      swap3\n      jump\t// out\n        /* \"#utility.yul\":16850:17315   */\n    tag_56:\n        /* \"#utility.yul\":17039:17043   */\n      0x00\n        /* \"#utility.yul\":17077:17079   */\n      0x20\n        /* \"#utility.yul\":17066:17075   */\n      dup3\n        /* \"#utility.yul\":17062:17080   */\n      add\n        /* \"#utility.yul\":17054:17080   */\n      swap1\n      pop\n        /* \"#utility.yul\":17126:17135   */\n      dup2\n        /* \"#utility.yul\":17120:17124   */\n      dup2\n        /* \"#utility.yul\":17116:17136   */\n      sub\n        /* \"#utility.yul\":17112:17113   */\n      0x00\n        /* \"#utility.yul\":17101:17110   */\n      dup4\n        /* \"#utility.yul\":17097:17114   */\n      add\n        /* \"#utility.yul\":17090:17137   */\n      mstore\n        /* \"#utility.yul\":17154:17308   */\n      tag_434\n        /* \"#utility.yul\":17303:17307   */\n      dup2\n        /* \"#utility.yul\":17294:17300   */\n      dup5\n        /* \"#utility.yul\":17154:17308   */\n      tag_253\n      jump\t// in\n    tag_434:\n        /* \"#utility.yul\":17146:17308   */\n      swap1\n      pop\n        /* \"#utility.yul\":16850:17315   */\n      swap3\n      swap2\n      pop\n      pop\n      jump\t// out\n        /* \"#utility.yul\":17321:17469   */\n    tag_261:\n        /* \"#utility.yul\":17423:17434   */\n      0x00\n        /* \"#utility.yul\":17460:17463   */\n      dup2\n        /* \"#utility.yul\":17445:17463   */\n      swap1\n      pop\n        /* \"#utility.yul\":17321:17469   */\n      swap3\n      swap2\n      pop\n      pop\n      jump\t// out\n        /* \"#utility.yul\":17475:17865   */\n    tag_262:\n        /* \"#utility.yul\":17581:17584   */\n      0x00\n        /* \"#utility.yul\":17609:17648   */\n      tag_437\n        /* \"#utility.yul\":17642:17647   */\n      dup3\n        /* \"#utility.yul\":17609:17648   */\n      tag_234\n      jump\t// in\n    tag_437:\n        /* \"#utility.yul\":17664:17753   */\n      tag_438\n        /* \"#utility.yul\":17746:17752   */\n      dup2\n        /* \"#utility.yul\":17741:17744   */\n      dup6\n        /* \"#utility.yul\":17664:17753   */\n      tag_261\n      jump\t// in\n    tag_438:\n        /* \"#utility.yul\":17657:17753   */\n      swap4\n      pop\n        /* \"#utility.yul\":17762:17827   */\n      tag_439\n        /* \"#utility.yul\":17820:17826   */\n      dup2\n        /* \"#utility.yul\":17815:17818   */\n      dup6\n        /* \"#utility.yul\":17808:17812   */\n      0x20\n        /* \"#utility.yul\":17801:17806   */\n      dup7\n        /* \"#utility.yul\":17797:17813   */\n      add\n        /* \"#utility.yul\":17762:17827   */\n      tag_236\n      jump\t// in\n    tag_439:\n        /* \"#utility.yul\":17852:17858   */\n      dup1\n        /* \"#utility.yul\":17847:17850   */\n      dup5\n        /* \"#utility.yul\":17843:17859   */\n      add\n        /* \"#utility.yul\":17836:17859   */\n      swap2\n      pop\n        /* \"#utility.yul\":17585:17865   */\n      pop\n        /* \"#utility.yul\":17475:17865   */\n      swap3\n      swap2\n      pop\n      pop\n      jump\t// out\n        /* \"#utility.yul\":17871:18146   */\n    tag_60:\n        /* \"#utility.yul\":18003:18006   */\n      0x00\n        /* \"#utility.yul\":18025:18120   */\n      tag_441\n        /* \"#utility.yul\":18116:18119   */\n      dup3\n        /* \"#utility.yul\":18107:18113   */\n      dup5\n        /* \"#utility.yul\":18025:18120   */\n      tag_262\n      jump\t// in\n    tag_441:\n        /* \"#utility.yul\":18018:18120   */\n      swap2\n      pop\n        /* \"#utility.yul\":18137:18140   */\n      dup2\n        /* \"#utility.yul\":18130:18140   */\n      swap1\n      pop\n        /* \"#utility.yul\":17871:18146   */\n      swap3\n      swap2\n      pop\n      pop\n      jump\t// out\n        /* \"#utility.yul\":18152:18332   */\n    tag_263:\n        /* \"#utility.yul\":18200:18277   */\n      0x4e487b7100000000000000000000000000000000000000000000000000000000\n        /* \"#utility.yul\":18197:18198   */\n      0x00\n        /* \"#utility.yul\":18190:18278   */\n      mstore\n        /* \"#utility.yul\":18297:18301   */\n      0x22\n        /* \"#utility.yul\":18294:18295   */\n      0x04\n        /* \"#utility.yul\":18287:18302   */\n      mstore\n        /* \"#utility.yul\":18321:18325   */\n      0x24\n        /* \"#utility.yul\":18318:18319   */\n      0x00\n        /* \"#utility.yul\":18311:18326   */\n      revert\n        /* \"#utility.yul\":18338:18658   */\n    tag_75:\n        /* \"#utility.yul\":18382:18388   */\n      0x00\n        /* \"#utility.yul\":18419:18420   */\n      0x02\n        /* \"#utility.yul\":18413:18417   */\n      dup3\n        /* \"#utility.yul\":18409:18421   */\n      div\n        /* \"#utility.yul\":18399:18421   */\n      swap1\n      pop\n        /* \"#utility.yul\":18466:18467   */\n      0x01\n        /* \"#utility.yul\":18460:18464   */\n      dup3\n        /* \"#utility.yul\":18456:18468   */\n      and\n        /* \"#utility.yul\":18487:18505   */\n      dup1\n        /* \"#utility.yul\":18477:18558   */\n      tag_444\n      jumpi\n        /* \"#utility.yul\":18543:18547   */\n      0x7f\n        /* \"#utility.yul\":18535:18541   */\n      dup3\n        /* \"#utility.yul\":18531:18548   */\n      and\n        /* \"#utility.yul\":18521:18548   */\n      swap2\n      pop\n        /* \"#utility.yul\":18477:18558   */\n    tag_444:\n        /* \"#utility.yul\":18605:18607   */\n      0x20\n        /* \"#utility.yul\":18597:18603   */\n      dup3\n        /* \"#utility.yul\":18594:18608   */\n      lt\n        /* \"#utility.yul\":18574:18592   */\n      dup2\n        /* \"#utility.yul\":18571:18609   */\n      sub\n        /* \"#utility.yul\":18568:18652   */\n      tag_445\n      jumpi\n        /* \"#utility.yul\":18624:18642   */\n      tag_446\n      tag_263\n      jump\t// in\n    tag_446:\n        /* \"#utility.yul\":18568:18652   */\n    tag_445:\n        /* \"#utility.yul\":18389:18658   */\n      pop\n        /* \"#utility.yul\":18338:18658   */\n      swap2\n      swap1\n      pop\n      jump\t// out\n        /* \"#utility.yul\":18664:18844   */\n    tag_264:\n        /* \"#utility.yul\":18712:18789   */\n      0x4e487b7100000000000000000000000000000000000000000000000000000000\n        /* \"#utility.yul\":18709:18710   */\n      0x00\n        /* \"#utility.yul\":18702:18790   */\n      mstore\n        /* \"#utility.yul\":18809:18813   */\n      0x11\n        /* \"#utility.yul\":18806:18807   */\n      0x04\n        /* \"#utility.yul\":18799:18814   */\n      mstore\n        /* \"#utility.yul\":18833:18837   */\n      0x24\n        /* \"#utility.yul\":18830:18831   */\n      0x00\n        /* \"#utility.yul\":18823:18838   */\n      revert\n        /* \"#utility.yul\":18850:19044   */\n    tag_122:\n        /* \"#utility.yul\":18890:18894   */\n      0x00\n        /* \"#utility.yul\":18910:18930   */\n      tag_449\n        /* \"#utility.yul\":18928:18929   */\n      dup3\n        /* \"#utility.yul\":18910:18930   */\n      tag_217\n      jump\t// in\n    tag_449:\n        /* \"#utility.yul\":18905:18930   */\n      swap2\n      pop\n        /* \"#utility.yul\":18944:18964   */\n      tag_450\n        /* \"#utility.yul\":18962:18963   */\n      dup4\n        /* \"#utility.yul\":18944:18964   */\n      tag_217\n      jump\t// in\n    tag_450:\n        /* \"#utility.yul\":18939:18964   */\n      swap3\n      pop\n        /* \"#utility.yul\":18988:18989   */\n      dup3\n        /* \"#utility.yul\":18985:18986   */\n      dup3\n        /* \"#utility.yul\":18981:18990   */\n      sub\n        /* \"#utility.yul\":18973:18990   */\n      swap1\n      pop\n        /* \"#utility.yul\":19012:19013   */\n      dup2\n        /* \"#utility.yul\":19006:19010   */\n      dup2\n        /* \"#utility.yul\":19003:19014   */\n      gt\n        /* \"#utility.yul\":19000:19037   */\n      iszero\n      tag_451\n      jumpi\n        /* \"#utility.yul\":19017:19035   */\n      tag_452\n      tag_264\n      jump\t// in\n    tag_452:\n        /* \"#utility.yul\":19000:19037   */\n    tag_451:\n        /* \"#utility.yul\":18850:19044   */\n      swap3\n      swap2\n      pop\n      pop\n      jump\t// out\n        /* \"#utility.yul\":19050:19230   */\n    tag_125:\n        /* \"#utility.yul\":19098:19175   */\n      0x4e487b7100000000000000000000000000000000000000000000000000000000\n        /* \"#utility.yul\":19095:19096   */\n      0x00\n        /* \"#utility.yul\":19088:19176   */\n      mstore\n        /* \"#utility.yul\":19195:19199   */\n      0x32\n        /* \"#utility.yul\":19192:19193   */\n      0x04\n        /* \"#utility.yul\":19185:19200   */\n      mstore\n        /* \"#utility.yul\":19219:19223   */\n      0x24\n        /* \"#utility.yul\":19216:19217   */\n      0x00\n        /* \"#utility.yul\":19209:19224   */\n      revert\n        /* \"#utility.yul\":19236:19427   */\n    tag_147:\n        /* \"#utility.yul\":19276:19279   */\n      0x00\n        /* \"#utility.yul\":19295:19315   */\n      tag_455\n        /* \"#utility.yul\":19313:19314   */\n      dup3\n        /* \"#utility.yul\":19295:19315   */\n      tag_217\n      jump\t// in\n    tag_455:\n        /* \"#utility.yul\":19290:19315   */\n      swap2\n      pop\n        /* \"#utility.yul\":19329:19349   */\n      tag_456\n        /* \"#utility.yul\":19347:19348   */\n      dup4\n        /* \"#utility.yul\":19329:19349   */\n      tag_217\n      jump\t// in\n    tag_456:\n        /* \"#utility.yul\":19324:19349   */\n      swap3\n      pop\n        /* \"#utility.yul\":19372:19373   */\n      dup3\n        /* \"#utility.yul\":19369:19370   */\n      dup3\n        /* \"#utility.yul\":19365:19374   */\n      add\n        /* \"#utility.yul\":19358:19374   */\n      swap1\n      pop\n        /* \"#utility.yul\":19393:19396   */\n      dup1\n        /* \"#utility.yul\":19390:19391   */\n      dup3\n        /* \"#utility.yul\":19387:19397   */\n      gt\n        /* \"#utility.yul\":19384:19420   */\n      iszero\n      tag_457\n      jumpi\n        /* \"#utility.yul\":19400:19418   */\n      tag_458\n      tag_264\n      jump\t// in\n    tag_458:\n        /* \"#utility.yul\":19384:19420   */\n    tag_457:\n        /* \"#utility.yul\":19236:19427   */\n      swap3\n      swap2\n      pop\n      pop\n      jump\t// out\n        /* \"#utility.yul\":19433:19574   */\n    tag_265:\n        /* \"#utility.yul\":19482:19486   */\n      0x00\n        /* \"#utility.yul\":19505:19508   */\n      dup2\n        /* \"#utility.yul\":19497:19508   */\n      swap1\n      pop\n        /* \"#utility.yul\":19528:19531   */\n      dup2\n        /* \"#utility.yul\":19525:19526   */\n      0x00\n        /* \"#utility.yul\":19518:19532   */\n      mstore\n        /* \"#utility.yul\":19562:19566   */\n      0x20\n        /* \"#utility.yul\":19559:19560   */\n      0x00\n        /* \"#utility.yul\":19549:19567   */\n      keccak256\n        /* \"#utility.yul\":19541:19567   */\n      swap1\n      pop\n        /* \"#utility.yul\":19433:19574   */\n      swap2\n      swap1\n      pop\n      jump\t// out\n        /* \"#utility.yul\":19580:19673   */\n    tag_266:\n        /* \"#utility.yul\":19617:19623   */\n      0x00\n        /* \"#utility.yul\":19664:19666   */\n      0x20\n        /* \"#utility.yul\":19659:19661   */\n      0x1f\n        /* \"#utility.yul\":19652:19657   */\n      dup4\n        /* \"#utility.yul\":19648:19662   */\n      add\n        /* \"#utility.yul\":19644:19667   */\n      div\n        /* \"#utility.yul\":19634:19667   */\n      swap1\n      pop\n        /* \"#utility.yul\":19580:19673   */\n      swap2\n      swap1\n      pop\n      jump\t// out\n        /* \"#utility.yul\":19679:19786   */\n    tag_267:\n        /* \"#utility.yul\":19723:19731   */\n      0x00\n        /* \"#utility.yul\":19773:19778   */\n      dup3\n        /* \"#utility.yul\":19767:19771   */\n      dup3\n        /* \"#utility.yul\":19763:19779   */\n      shl\n        /* \"#utility.yul\":19742:19779   */\n      swap1\n      pop\n        /* \"#utility.yul\":19679:19786   */\n      swap3\n      swap2\n      pop\n      pop\n      jump\t// out\n        /* \"#utility.yul\":19792:20185   */\n    tag_268:\n        /* \"#utility.yul\":19861:19867   */\n      0x00\n        /* \"#utility.yul\":19911:19912   */\n      0x08\n        /* \"#utility.yul\":19899:19909   */\n      dup4\n        /* \"#utility.yul\":19895:19913   */\n      mul\n        /* \"#utility.yul\":19934:20031   */\n      tag_463\n        /* \"#utility.yul\":19964:20030   */\n      0xffffffffffffffffffffffffffffffffffffffffffffffffffffffffffffffff\n        /* \"#utility.yul\":19953:19962   */\n      dup3\n        /* \"#utility.yul\":19934:20031   */\n      tag_267\n      jump\t// in\n    tag_463:\n        /* \"#utility.yul\":20052:20091   */\n      tag_464\n        /* \"#utility.yul\":20082:20090   */\n      dup7\n        /* \"#utility.yul\":20071:20080   */\n      dup4\n        /* \"#utility.yul\":20052:20091   */\n      tag_267\n      jump\t// in\n    tag_464:\n        /* \"#utility.yul\":20040:20091   */\n      swap6\n      pop\n        /* \"#utility.yul\":20124:20128   */\n      dup1\n        /* \"#utility.yul\":20120:20129   */\n      not\n        /* \"#utility.yul\":20113:20118   */\n      dup5\n        /* \"#utility.yul\":20109:20130   */\n      and\n        /* \"#utility.yul\":20100:20130   */\n      swap4\n      pop\n        /* \"#utility.yul\":20173:20177   */\n      dup1\n        /* \"#utility.yul\":20163:20171   */\n      dup7\n        /* \"#utility.yul\":20159:20178   */\n      and\n        /* \"#utility.yul\":20152:20157   */\n      dup5\n        /* \"#utility.yul\":20149:20179   */\n      or\n        /* \"#utility.yul\":20139:20179   */\n      swap3\n      pop\n        /* \"#utility.yul\":19868:20185   */\n      pop\n      pop\n        /* \"#utility.yul\":19792:20185   */\n      swap4\n      swap3\n      pop\n      pop\n      pop\n      jump\t// out\n        /* \"#utility.yul\":20191:20251   */\n    tag_269:\n        /* \"#utility.yul\":20219:20222   */\n      0x00\n        /* \"#utility.yul\":20240:20245   */\n      dup2\n        /* \"#utility.yul\":20233:20245   */\n      swap1\n      pop\n        /* \"#utility.yul\":20191:20251   */\n      swap2\n      swap1\n      pop\n      jump\t// out\n        /* \"#utility.yul\":20257:20399   */\n    tag_270:\n        /* \"#utility.yul\":20307:20316   */\n      0x00\n        /* \"#utility.yul\":20340:20393   */\n      tag_467\n        /* \"#utility.yul\":20358:20392   */\n      tag_468\n        /* \"#utility.yul\":20367:20391   */\n      tag_469\n        /* \"#utility.yul\":20385:20390   */\n      dup5\n        /* \"#utility.yul\":20367:20391   */\n      tag_217\n      jump\t// in\n    tag_469:\n        /* \"#utility.yul\":20358:20392   */\n      tag_269\n      jump\t// in\n    tag_468:\n        /* \"#utility.yul\":20340:20393   */\n      tag_217\n      jump\t// in\n    tag_467:\n        /* \"#utility.yul\":20327:20393   */\n      swap1\n      pop\n        /* \"#utility.yul\":20257:20399   */\n      swap2\n      swap1\n      pop\n      jump\t// out\n        /* \"#utility.yul\":20405:20480   */\n    tag_271:\n        /* \"#utility.yul\":20448:20451   */\n      0x00\n        /* \"#utility.yul\":20469:20474   */\n      dup2\n        /* \"#utility.yul\":20462:20474   */\n      swap1\n      pop\n        /* \"#utility.yul\":20405:20480   */\n      swap2\n      swap1\n      pop\n      jump\t// out\n        /* \"#utility.yul\":20486:20755   */\n    tag_272:\n        /* \"#utility.yul\":20596:20635   */\n      tag_472\n        /* \"#utility.yul\":20627:20634   */\n      dup4\n        /* \"#utility.yul\":20596:20635   */\n      tag_270\n      jump\t// in\n    tag_472:\n        /* \"#utility.yul\":20657:20748   */\n      tag_473\n        /* \"#utility.yul\":20706:20747   */\n      tag_474\n        /* \"#utility.yul\":20730:20746   */\n      dup3\n        /* \"#utility.yul\":20706:20747   */\n      tag_271\n      jump\t// in\n    tag_474:\n        /* \"#utility.yul\":20698:20704   */\n      dup5\n        /* \"#utility.yul\":20691:20695   */\n      dup5\n        /* \"#utility.yul\":20685:20696   */\n      sload\n        /* \"#utility.yul\":20657:20748   */\n      tag_268\n      jump\t// in\n    tag_473:\n        /* \"#utility.yul\":20651:20655   */\n      dup3\n        /* \"#utility.yul\":20644:20749   */\n      sstore\n        /* \"#utility.yul\":20562:20755   */\n      pop\n        /* \"#utility.yul\":20486:20755   */\n      pop\n      pop\n      pop\n      jump\t// out\n        /* \"#utility.yul\":20761:20834   */\n    tag_273:\n        /* \"#utility.yul\":20806:20809   */\n      0x00\n        /* \"#utility.yul\":20761:20834   */\n      swap1\n      jump\t// out\n        /* \"#utility.yul\":20840:21029   */\n    tag_274:\n        /* \"#utility.yul\":20917:20949   */\n      tag_477\n      tag_273\n      jump\t// in\n    tag_477:\n        /* \"#utility.yul\":20958:21023   */\n      tag_478\n        /* \"#utility.yul\":21016:21022   */\n      dup2\n        /* \"#utility.yul\":21008:21014   */\n      dup5\n        /* \"#utility.yul\":21002:21006   */\n      dup5\n        /* \"#utility.yul\":20958:21023   */\n      tag_272\n      jump\t// in\n    tag_478:\n        /* \"#utility.yul\":20893:21029   */\n      pop\n        /* \"#utility.yul\":20840:21029   */\n      pop\n      pop\n      jump\t// out\n        /* \"#utility.yul\":21035:21221   */\n    tag_275:\n        /* \"#utility.yul\":21095:21215   */\n    tag_480:\n        /* \"#utility.yul\":21112:21115   */\n      dup2\n        /* \"#utility.yul\":21105:21110   */\n      dup2\n        /* \"#utility.yul\":21102:21116   */\n      lt\n        /* \"#utility.yul\":21095:21215   */\n      iszero\n      tag_482\n      jumpi\n        /* \"#utility.yul\":21166:21205   */\n      tag_483\n        /* \"#utility.yul\":21203:21204   */\n      0x00\n        /* \"#utility.yul\":21196:21201   */\n      dup3\n        /* \"#utility.yul\":21166:21205   */\n      tag_274\n      jump\t// in\n    tag_483:\n        /* \"#utility.yul\":21139:21140   */\n      0x01\n        /* \"#utility.yul\":21132:21137   */\n      dup2\n        /* \"#utility.yul\":21128:21141   */\n      add\n        /* \"#utility.yul\":21119:21141   */\n      swap1\n      pop\n        /* \"#utility.yul\":21095:21215   */\n      jump(tag_480)\n    tag_482:\n        /* \"#utility.yul\":21035:21221   */\n      pop\n      pop\n      jump\t// out\n        /* \"#utility.yul\":21227:21770   */\n    tag_276:\n        /* \"#utility.yul\":21328:21330   */\n      0x1f\n        /* \"#utility.yul\":21323:21326   */\n      dup3\n        /* \"#utility.yul\":21320:21331   */\n      gt\n        /* \"#utility.yul\":21317:21763   */\n      iszero\n      tag_485\n      jumpi\n        /* \"#utility.yul\":21362:21400   */\n      tag_486\n        /* \"#utility.yul\":21394:21399   */\n      dup2\n        /* \"#utility.yul\":21362:21400   */\n      tag_265\n      jump\t// in\n    tag_486:\n        /* \"#utility.yul\":21446:21475   */\n      tag_487\n        /* \"#utility.yul\":21464:21474   */\n      dup5\n        /* \"#utility.yul\":21446:21475   */\n      tag_266\n      jump\t// in\n    tag_487:\n        /* \"#utility.yul\":21436:21444   */\n      dup2\n        /* \"#utility.yul\":21432:21476   */\n      add\n        /* \"#utility.yul\":21629:21631   */\n      0x20\n        /* \"#utility.yul\":21617:21627   */\n      dup6\n        /* \"#utility.yul\":21614:21632   */\n      lt\n        /* \"#utility.yul\":21611:21660   */\n      iszero\n      tag_488\n      jumpi\n        /* \"#utility.yul\":21650:21658   */\n      dup2\n        /* \"#utility.yul\":21635:21658   */\n      swap1\n      pop\n        /* \"#utility.yul\":21611:21660   */\n    tag_488:\n        /* \"#utility.yul\":21673:21753   */\n      tag_489\n        /* \"#utility.yul\":21729:21751   */\n      tag_490\n        /* \"#utility.yul\":21747:21750   */\n      dup6\n        /* \"#utility.yul\":21729:21751   */\n      tag_266\n      jump\t// in\n    tag_490:\n        /* \"#utility.yul\":21719:21727   */\n      dup4\n        /* \"#utility.yul\":21715:21752   */\n      add\n        /* \"#utility.yul\":21702:21713   */\n      dup3\n        /* \"#utility.yul\":21673:21753   */\n      tag_275\n      jump\t// in\n    tag_489:\n        /* \"#utility.yul\":21332:21763   */\n      pop\n      pop\n        /* \"#utility.yul\":21317:21763   */\n    tag_485:\n        /* \"#utility.yul\":21227:21770   */\n      pop\n      pop\n      pop\n      jump\t// out\n        /* \"#utility.yul\":21776:21893   */\n    tag_277:\n        /* \"#utility.yul\":21830:21838   */\n      0x00\n        /* \"#utility.yul\":21880:21885   */\n      dup3\n        /* \"#utility.yul\":21874:21878   */\n      dup3\n        /* \"#utility.yul\":21870:21886   */\n      shr\n        /* \"#utility.yul\":21849:21886   */\n      swap1\n      pop\n        /* \"#utility.yul\":21776:21893   */\n      swap3\n      swap2\n      pop\n      pop\n      jump\t// out\n        /* \"#utility.yul\":21899:22068   */\n    tag_278:\n        /* \"#utility.yul\":21943:21949   */\n      0x00\n        /* \"#utility.yul\":21976:22027   */\n      tag_493\n        /* \"#utility.yul\":22024:22025   */\n      0x00\n        /* \"#utility.yul\":22020:22026   */\n      not\n        /* \"#utility.yul\":22012:22017   */\n      dup5\n        /* \"#utility.yul\":22009:22010   */\n      0x08\n        /* \"#utility.yul\":22005:22018   */\n      mul\n        /* \"#utility.yul\":21976:22027   */\n      tag_277\n      jump\t// in\n    tag_493:\n        /* \"#utility.yul\":21972:22028   */\n      not\n        /* \"#utility.yul\":22057:22061   */\n      dup1\n        /* \"#utility.yul\":22051:22055   */\n      dup4\n        /* \"#utility.yul\":22047:22062   */\n      and\n        /* \"#utility.yul\":22037:22062   */\n      swap2\n      pop\n        /* \"#utility.yul\":21950:22068   */\n      pop\n        /* \"#utility.yul\":21899:22068   */\n      swap3\n      swap2\n      pop\n      pop\n      jump\t// out\n        /* \"#utility.yul\":22073:22368   */\n    tag_279:\n        /* \"#utility.yul\":22149:22153   */\n      0x00\n        /* \"#utility.yul\":22295:22324   */\n      tag_495\n        /* \"#utility.yul\":22320:22323   */\n      dup4\n        /* \"#utility.yul\":22314:22318   */\n      dup4\n        /* \"#utility.yul\":22295:22324   */\n      tag_278\n      jump\t// in\n    tag_495:\n        /* \"#utility.yul\":22287:22324   */\n      swap2\n      pop\n        /* \"#utility.yul\":22357:22360   */\n      dup3\n        /* \"#utility.yul\":22354:22355   */\n      0x02\n        /* \"#utility.yul\":22350:22361   */\n      mul\n        /* \"#utility.yul\":22344:22348   */\n      dup3\n        /* \"#utility.yul\":22341:22362   */\n      or\n        /* \"#utility.yul\":22333:22362   */\n      swap1\n      pop\n        /* \"#utility.yul\":22073:22368   */\n      swap3\n      swap2\n      pop\n      pop\n      jump\t// out\n        /* \"#utility.yul\":22373:23768   */\n    tag_151:\n        /* \"#utility.yul\":22490:22527   */\n      tag_497\n        /* \"#utility.yul\":22523:22526   */\n      dup3\n        /* \"#utility.yul\":22490:22527   */\n      tag_234\n      jump\t// in\n    tag_497:\n        /* \"#utility.yul\":22592:22610   */\n      0xffffffffffffffff\n        /* \"#utility.yul\":22584:22590   */\n      dup2\n        /* \"#utility.yul\":22581:22611   */\n      gt\n        /* \"#utility.yul\":22578:22634   */\n      iszero\n      tag_498\n      jumpi\n        /* \"#utility.yul\":22614:22632   */\n      tag_499\n      tag_225\n      jump\t// in\n    tag_499:\n        /* \"#utility.yul\":22578:22634   */\n    tag_498:\n        /* \"#utility.yul\":22658:22696   */\n      tag_500\n        /* \"#utility.yul\":22690:22694   */\n      dup3\n        /* \"#utility.yul\":22684:22695   */\n      sload\n        /* \"#utility.yul\":22658:22696   */\n      tag_75\n      jump\t// in\n    tag_500:\n        /* \"#utility.yul\":22743:22810   */\n      tag_501\n        /* \"#utility.yul\":22803:22809   */\n      dup3\n        /* \"#utility.yul\":22795:22801   */\n      dup3\n        /* \"#utility.yul\":22789:22793   */\n      dup6\n        /* \"#utility.yul\":22743:22810   */\n      tag_276\n      jump\t// in\n    tag_501:\n        /* \"#utility.yul\":22837:22838   */\n      0x00\n        /* \"#utility.yul\":22861:22865   */\n      0x20\n        /* \"#utility.yul\":22848:22865   */\n      swap1\n      pop\n        /* \"#utility.yul\":22893:22895   */\n      0x1f\n        /* \"#utility.yul\":22885:22891   */\n      dup4\n        /* \"#utility.yul\":22882:22896   */\n      gt\n        /* \"#utility.yul\":22910:22911   */\n      0x01\n        /* \"#utility.yul\":22905:23523   */\n      dup2\n      eq\n      tag_503\n      jumpi\n        /* \"#utility.yul\":23567:23568   */\n      0x00\n        /* \"#utility.yul\":23584:23590   */\n      dup5\n        /* \"#utility.yul\":23581:23658   */\n      iszero\n      tag_504\n      jumpi\n        /* \"#utility.yul\":23633:23642   */\n      dup3\n        /* \"#utility.yul\":23628:23631   */\n      dup8\n        /* \"#utility.yul\":23624:23643   */\n      add\n        /* \"#utility.yul\":23618:23644   */\n      mload\n        /* \"#utility.yul\":23609:23644   */\n      swap1\n      pop\n        /* \"#utility.yul\":23581:23658   */\n    tag_504:\n        /* \"#utility.yul\":23684:23751   */\n      tag_505\n        /* \"#utility.yul\":23744:23750   */\n      dup6\n        /* \"#utility.yul\":23737:23742   */\n      dup3\n        /* \"#utility.yul\":23684:23751   */\n      tag_279\n      jump\t// in\n    tag_505:\n        /* \"#utility.yul\":23678:23682   */\n      dup7\n        /* \"#utility.yul\":23671:23752   */\n      sstore\n        /* \"#utility.yul\":23540:23762   */\n      pop\n        /* \"#utility.yul\":22875:23762   */\n      jump(tag_502)\n        /* \"#utility.yul\":22905:23523   */\n    tag_503:\n        /* \"#utility.yul\":22957:22961   */\n      0x1f\n        /* \"#utility.yul\":22953:22962   */\n      not\n        /* \"#utility.yul\":22945:22951   */\n      dup5\n        /* \"#utility.yul\":22941:22963   */\n      and\n        /* \"#utility.yul\":22991:23028   */\n      tag_506\n        /* \"#utility.yul\":23023:23027   */\n      dup7\n        /* \"#utility.yul\":22991:23028   */\n      tag_265\n      jump\t// in\n    tag_506:\n        /* \"#utility.yul\":23050:23051   */\n      0x00\n        /* \"#utility.yul\":23064:23272   */\n    tag_507:\n        /* \"#utility.yul\":23078:23085   */\n      dup3\n        /* \"#utility.yul\":23075:23076   */\n      dup2\n        /* \"#utility.yul\":23072:23086   */\n      lt\n        /* \"#utility.yul\":23064:23272   */\n      iszero\n      tag_509\n      jumpi\n        /* \"#utility.yul\":23157:23166   */\n      dup5\n        /* \"#utility.yul\":23152:23155   */\n      dup10\n        /* \"#utility.yul\":23148:23167   */\n      add\n        /* \"#utility.yul\":23142:23168   */\n      mload\n        /* \"#utility.yul\":23134:23140   */\n      dup3\n        /* \"#utility.yul\":23127:23169   */\n      sstore\n        /* \"#utility.yul\":23208:23209   */\n      0x01\n        /* \"#utility.yul\":23200:23206   */\n      dup3\n        /* \"#utility.yul\":23196:23210   */\n      add\n        /* \"#utility.yul\":23186:23210   */\n      swap2\n      pop\n        /* \"#utility.yul\":23255:23257   */\n      0x20\n        /* \"#utility.yul\":23244:23253   */\n      dup6\n        /* \"#utility.yul\":23240:23258   */\n      add\n        /* \"#utility.yul\":23227:23258   */\n      swap5\n      pop\n        /* \"#utility.yul\":23101:23105   */\n      0x20\n        /* \"#utility.yul\":23098:23099   */\n      dup2\n        /* \"#utility.yul\":23094:23106   */\n      add\n        /* \"#utility.yul\":23089:23106   */\n      swap1\n      pop\n        /* \"#utility.yul\":23064:23272   */\n      jump(tag_507)\n    tag_509:\n        /* \"#utility.yul\":23300:23306   */\n      dup7\n        /* \"#utility.yul\":23291:23298   */\n      dup4\n        /* \"#utility.yul\":23288:23307   */\n      lt\n        /* \"#utility.yul\":23285:23464   */\n      iszero\n      tag_510\n      jumpi\n        /* \"#utility.yul\":23358:23367   */\n      dup5\n        /* \"#utility.yul\":23353:23356   */\n      dup10\n        /* \"#utility.yul\":23349:23368   */\n      add\n        /* \"#utility.yul\":23343:23369   */\n      mload\n        /* \"#utility.yul\":23401:23449   */\n      tag_511\n        /* \"#utility.yul\":23443:23447   */\n      0x1f\n        /* \"#utility.yul\":23435:23441   */\n      dup10\n        /* \"#utility.yul\":23431:23448   */\n      and\n        /* \"#utility.yul\":23420:23429   */\n      dup3\n        /* \"#utility.yul\":23401:23449   */\n      tag_278\n      jump\t// in\n    tag_511:\n        /* \"#utility.yul\":23393:23399   */\n      dup4\n        /* \"#utility.yul\":23386:23450   */\n      sstore\n        /* \"#utility.yul\":23308:23464   */\n      pop\n        /* \"#utility.yul\":23285:23464   */\n    tag_510:\n        /* \"#utility.yul\":23510:23511   */\n      0x01\n        /* \"#utility.yul\":23506:23507   */\n      0x02\n        /* \"#utility.yul\":23498:23504   */\n      dup9\n        /* \"#utility.yul\":23494:23508   */\n      mul\n        /* \"#utility.yul\":23490:23512   */\n      add\n        /* \"#utility.yul\":23484:23488   */\n      dup9\n        /* \"#utility.yul\":23477:23513   */\n      sstore\n        /* \"#utility.yul\":22912:23523   */\n      pop\n      pop\n      pop\n        /* \"#utility.yul\":22875:23762   */\n    tag_502:\n      pop\n        /* \"#utility.yul\":22465:23768   */\n      pop\n      pop\n      pop\n        /* \"#utility.yul\":22373:23768   */\n      pop\n      pop\n      jump\t// out\n        /* \"#utility.yul\":23774:23954   */\n    tag_280:\n        /* \"#utility.yul\":23822:23899   */\n      0x4e487b7100000000000000000000000000000000000000000000000000000000\n        /* \"#utility.yul\":23819:23820   */\n      0x00\n        /* \"#utility.yul\":23812:23900   */\n      mstore\n        /* \"#utility.yul\":23919:23923   */\n      0x12\n        /* \"#utility.yul\":23916:23917   */\n      0x04\n        /* \"#utility.yul\":23909:23924   */\n      mstore\n        /* \"#utility.yul\":23943:23947   */\n      0x24\n        /* \"#utility.yul\":23940:23941   */\n      0x00\n        /* \"#utility.yul\":23933:23948   */\n      revert\n        /* \"#utility.yul\":23960:24145   */\n    tag_177:\n        /* \"#utility.yul\":24000:24001   */\n      0x00\n        /* \"#utility.yul\":24017:24037   */\n      tag_514\n        /* \"#utility.yul\":24035:24036   */\n      dup3\n        /* \"#utility.yul\":24017:24037   */\n      tag_217\n      jump\t// in\n    tag_514:\n        /* \"#utility.yul\":24012:24037   */\n      swap2\n      pop\n        /* \"#utility.yul\":24051:24071   */\n      tag_515\n        /* \"#utility.yul\":24069:24070   */\n      dup4\n        /* \"#utility.yul\":24051:24071   */\n      tag_217\n      jump\t// in\n    tag_515:\n        /* \"#utility.yul\":24046:24071   */\n      swap3\n      pop\n        /* \"#utility.yul\":24090:24091   */\n      dup3\n        /* \"#utility.yul\":24080:24115   */\n      tag_516\n      jumpi\n        /* \"#utility.yul\":24095:24113   */\n      tag_517\n      tag_280\n      jump\t// in\n    tag_517:\n        /* \"#utility.yul\":24080:24115   */\n    tag_516:\n        /* \"#utility.yul\":24137:24138   */\n      dup3\n        /* \"#utility.yul\":24134:24135   */\n      dup3\n        /* \"#utility.yul\":24130:24139   */\n      div\n        /* \"#utility.yul\":24125:24139   */\n      swap1\n      pop\n        /* \"#utility.yul\":23960:24145   */\n      swap3\n      swap2\n      pop\n      pop\n      jump\t// out\n\n    auxdata: 0xa2646970667358221220706e3cf46cf09a8a0cb24606dd6421e04d7ba25f4c12dd90cf2b1b42a74ede5664736f6c63430008170033\n}\n",
				"bytecode": {
					"linkReferences": {},
					"object": "608060405234801561000f575f80fd5b50611ccd8061001d5f395ff3fe608060405234801561000f575f80fd5b506004361061009c575f3560e01c80639b57ee3d116100645780639b57ee3d1461016d578063a41f985e1461018b578063c7e56ae3146101bb578063df72cdbf146101d7578063f1d064b3146101f55761009c565b8063140f6b29146100a05780632c78ec94146100be578063674271cd146100ee5780636a76bf661461011e57806383b41ad81461013d575b5f80fd5b6100a8610213565b6040516100b591906110eb565b60405180910390f35b6100d860048036038101906100d39190611251565b61021f565b6040516100e591906110eb565b60405180910390f35b610108600480360381019061010391906112c2565b610248565b6040516101159190611367565b60405180910390f35b61012661039c565b6040516101349291906115d5565b60405180910390f35b61015760048036038101906101529190611251565b61060c565b6040516101649190611684565b60405180910390f35b61017561084a565b60405161018291906116be565b60405180910390f35b6101a560048036038101906101a091906112c2565b61086a565b6040516101b29190611684565b60405180910390f35b6101d560048036038101906101d091906117b9565b610ab6565b005b6101df610d07565b6040516101ec91906110eb565b60405180910390f35b6101fd610d71565b60405161020a9190611841565b60405180910390f35b5f600180549050905090565b5f808260405161022f919061189b565b9081526020016040518091039020600201549050919050565b6060605a821061028f576040518060400160405280600181526020017f41000000000000000000000000000000000000000000000000000000000000008152509050610397565b605082106102d4576040518060400160405280600181526020017f42000000000000000000000000000000000000000000000000000000000000008152509050610397565b60468210610319576040518060400160405280600181526020017f43000000000000000000000000000000000000000000000000000000000000008152509050610397565b603c821061035e576040518060400160405280600181526020017f44000000000000000000000000000000000000000000000000000000000000008152509050610397565b6040518060400160405280600181526020017f460000000000000000000000000000000000000000000000000000000000000081525090505b919050565b5f6060600280549050600280805480602002602001604051908101604052809291908181526020015f905b828210156105fe578382905f5260205f2090600502016040518060a00160405290815f820180546103f7906118de565b80601f0160208091040260200160405190810160405280929190818152602001828054610423906118de565b801561046e5780601f106104455761010080835404028352916020019161046e565b820191905f5260205f20905b81548152906001019060200180831161045157829003601f168201915b50505050508152602001600182015481526020016002820154815260200160038201805461049b906118de565b80601f01602080910402602001604051908101604052809291908181526020018280546104c7906118de565b80156105125780601f106104e957610100808354040283529160200191610512565b820191905f5260205f20905b8154815290600101906020018083116104f557829003601f168201915b5050505050815260200160048201805480602002602001604051908101604052809291908181526020015f905b828210156105e7578382905f5260205f2001805461055c906118de565b80601f0160208091040260200160405190810160405280929190818152602001828054610588906118de565b80156105d35780601f106105aa576101008083540402835291602001916105d3565b820191905f5260205f20905b8154815290600101906020018083116105b657829003601f168201915b50505050508152602001906001019061053f565b5050505081525050815260200190600101906103c7565b505050509050915091509091565b610614610fd4565b5f82604051610623919061189b565b90815260200160405180910390206040518060a00160405290815f8201805461064b906118de565b80601f0160208091040260200160405190810160405280929190818152602001828054610677906118de565b80156106c25780601f10610699576101008083540402835291602001916106c2565b820191905f5260205f20905b8154815290600101906020018083116106a557829003601f168201915b5050505050815260200160018201548152602001600282015481526020016003820180546106ef906118de565b80601f016020809104026020016040519081016040528092919081815260200182805461071b906118de565b80156107665780601f1061073d57610100808354040283529160200191610766565b820191905f5260205f20905b81548152906001019060200180831161074957829003601f168201915b5050505050815260200160048201805480602002602001604051908101604052809291908181526020015f905b8282101561083b578382905f5260205f200180546107b0906118de565b80601f01602080910402602001604051908101604052809291908181526020018280546107dc906118de565b80156108275780601f106107fe57610100808354040283529160200191610827565b820191905f5260205f20905b81548152906001019060200180831161080a57829003601f168201915b505050505081526020019060010190610793565b50505050815250509050919050565b5f6046610855610d07565b106108635760019050610867565b5f90505b90565b610872610fd4565b60018083610880919061193b565b815481106108915761089061196e565b5b905f5260205f2090600502016040518060a00160405290815f820180546108b7906118de565b80601f01602080910402602001604051908101604052809291908181526020018280546108e3906118de565b801561092e5780601f106109055761010080835404028352916020019161092e565b820191905f5260205f20905b81548152906001019060200180831161091157829003601f168201915b50505050508152602001600182015481526020016002820154815260200160038201805461095b906118de565b80601f0160208091040260200160405190810160405280929190818152602001828054610987906118de565b80156109d25780601f106109a9576101008083540402835291602001916109d2565b820191905f5260205f20905b8154815290600101906020018083116109b557829003601f168201915b5050505050815260200160048201805480602002602001604051908101604052809291908181526020015f905b82821015610aa7578382905f5260205f20018054610a1c906118de565b80601f0160208091040260200160405190810160405280929190818152602001828054610a48906118de565b8015610a935780601f10610a6a57610100808354040283529160200191610a93565b820191905f5260205f20905b815481529060010190602001808311610a7657829003601f168201915b5050505050815260200190600101906109ff565b50505050815250509050919050565b60016040518060a0016040528085815260200160018080549050610ada919061199b565b8152602001848152602001610aee85610248565b815260200183815250908060018154018082558091505060019003905f5260205f2090600502015f909190919091505f820151815f019081610b309190611b6b565b5060208201518160010155604082015181600201556060820151816003019081610b5a9190611b6b565b506080820151816004019080519060200190610b77929190611001565b5050506040518060a0016040528084815260200160018080549050610b9c919061199b565b8152602001838152602001610bb084610248565b8152602001828152505f84604051610bc8919061189b565b90815260200160405180910390205f820151815f019081610be99190611b6b565b5060208201518160010155604082015181600201556060820151816003019081610c139190611b6b565b506080820151816004019080519060200190610c30929190611001565b50905050603c821015610d025760026040518060a0016040528085815260200160018080549050610c61919061199b565b8152602001848152602001610c7585610248565b815260200183815250908060018154018082558091505060019003905f5260205f2090600502015f909190919091505f820151815f019081610cb79190611b6b565b5060208201518160010155604082015181600201556060820151816003019081610ce19190611b6b565b506080820151816004019080519060200190610cfe929190611001565b5050505b505050565b5f805f90505f5b600180549050811015610d595760018181548110610d2f57610d2e61196e565b5b905f5260205f2090600502016002015482610d4a919061199b565b91508080600101915050610d0e565b5060018054905081610d6b9190611c67565b91505090565b60606001805480602002602001604051908101604052809291908181526020015f905b82821015610fcb578382905f5260205f2090600502016040518060a00160405290815f82018054610dc4906118de565b80601f0160208091040260200160405190810160405280929190818152602001828054610df0906118de565b8015610e3b5780601f10610e1257610100808354040283529160200191610e3b565b820191905f5260205f20905b815481529060010190602001808311610e1e57829003601f168201915b505050505081526020016001820154815260200160028201548152602001600382018054610e68906118de565b80601f0160208091040260200160405190810160405280929190818152602001828054610e94906118de565b8015610edf5780601f10610eb657610100808354040283529160200191610edf565b820191905f5260205f20905b815481529060010190602001808311610ec257829003601f168201915b5050505050815260200160048201805480602002602001604051908101604052809291908181526020015f905b82821015610fb4578382905f5260205f20018054610f29906118de565b80601f0160208091040260200160405190810160405280929190818152602001828054610f55906118de565b8015610fa05780601f10610f7757610100808354040283529160200191610fa0565b820191905f5260205f20905b815481529060010190602001808311610f8357829003601f168201915b505050505081526020019060010190610f0c565b505050508152505081526020019060010190610d94565b50505050905090565b6040518060a00160405280606081526020015f81526020015f815260200160608152602001606081525090565b828054828255905f5260205f20908101928215611047579160200282015b828111156110465782518290816110369190611b6b565b509160200191906001019061101f565b5b5090506110549190611058565b5090565b5b80821115611077575f818161106e919061107b565b50600101611059565b5090565b508054611087906118de565b5f825580601f1061109857506110b5565b601f0160209004905f5260205f20908101906110b491906110b8565b5b50565b5b808211156110cf575f815f9055506001016110b9565b5090565b5f819050919050565b6110e5816110d3565b82525050565b5f6020820190506110fe5f8301846110dc565b92915050565b5f604051905090565b5f80fd5b5f80fd5b5f80fd5b5f80fd5b5f601f19601f8301169050919050565b7f4e487b71000000000000000000000000000000000000000000000000000000005f52604160045260245ffd5b6111638261111d565b810181811067ffffffffffffffff821117156111825761118161112d565b5b80604052505050565b5f611194611104565b90506111a0828261115a565b919050565b5f67ffffffffffffffff8211156111bf576111be61112d565b5b6111c88261111d565b9050602081019050919050565b828183375f83830152505050565b5f6111f56111f0846111a5565b61118b565b90508281526020810184848401111561121157611210611119565b5b61121c8482856111d5565b509392505050565b5f82601f83011261123857611237611115565b5b81356112488482602086016111e3565b91505092915050565b5f602082840312156112665761126561110d565b5b5f82013567ffffffffffffffff81111561128357611282611111565b5b61128f84828501611224565b91505092915050565b6112a1816110d3565b81146112ab575f80fd5b50565b5f813590506112bc81611298565b92915050565b5f602082840312156112d7576112d661110d565b5b5f6112e4848285016112ae565b91505092915050565b5f81519050919050565b5f82825260208201905092915050565b5f5b83811015611324578082015181840152602081019050611309565b5f8484015250505050565b5f611339826112ed565b61134381856112f7565b9350611353818560208601611307565b61135c8161111d565b840191505092915050565b5f6020820190508181035f83015261137f818461132f565b905092915050565b5f81519050919050565b5f82825260208201905092915050565b5f819050602082019050919050565b5f82825260208201905092915050565b5f6113ca826112ed565b6113d481856113b0565b93506113e4818560208601611307565b6113ed8161111d565b840191505092915050565b611401816110d3565b82525050565b5f81519050919050565b5f82825260208201905092915050565b5f819050602082019050919050565b5f61143b83836113c0565b905092915050565b5f602082019050919050565b5f61145982611407565b6114638185611411565b93508360208202850161147585611421565b805f5b858110156114b057848403895281516114918582611430565b945061149c83611443565b925060208a01995050600181019050611478565b50829750879550505050505092915050565b5f60a083015f8301518482035f8601526114dc82826113c0565b91505060208301516114f160208601826113f8565b50604083015161150460408601826113f8565b506060830151848203606086015261151c82826113c0565b91505060808301518482036080860152611536828261144f565b9150508091505092915050565b5f61154e83836114c2565b905092915050565b5f602082019050919050565b5f61156c82611387565b6115768185611391565b935083602082028501611588856113a1565b805f5b858110156115c357848403895281516115a48582611543565b94506115af83611556565b925060208a0199505060018101905061158b565b50829750879550505050505092915050565b5f6040820190506115e85f8301856110dc565b81810360208301526115fa8184611562565b90509392505050565b5f60a083015f8301518482035f86015261161d82826113c0565b915050602083015161163260208601826113f8565b50604083015161164560408601826113f8565b506060830151848203606086015261165d82826113c0565b91505060808301518482036080860152611677828261144f565b9150508091505092915050565b5f6020820190508181035f83015261169c8184611603565b905092915050565b5f8115159050919050565b6116b8816116a4565b82525050565b5f6020820190506116d15f8301846116af565b92915050565b5f67ffffffffffffffff8211156116f1576116f061112d565b5b602082029050602081019050919050565b5f80fd5b5f611718611713846116d7565b61118b565b9050808382526020820190506020840283018581111561173b5761173a611702565b5b835b8181101561178257803567ffffffffffffffff8111156117605761175f611115565b5b80860161176d8982611224565b8552602085019450505060208101905061173d565b5050509392505050565b5f82601f8301126117a05761179f611115565b5b81356117b0848260208601611706565b91505092915050565b5f805f606084860312156117d0576117cf61110d565b5b5f84013567ffffffffffffffff8111156117ed576117ec611111565b5b6117f986828701611224565b935050602061180a868287016112ae565b925050604084013567ffffffffffffffff81111561182b5761182a611111565b5b6118378682870161178c565b9150509250925092565b5f6020820190508181035f8301526118598184611562565b905092915050565b5f81905092915050565b5f611875826112ed565b61187f8185611861565b935061188f818560208601611307565b80840191505092915050565b5f6118a6828461186b565b915081905092915050565b7f4e487b71000000000000000000000000000000000000000000000000000000005f52602260045260245ffd5b5f60028204905060018216806118f557607f821691505b602082108103611908576119076118b1565b5b50919050565b7f4e487b71000000000000000000000000000000000000000000000000000000005f52601160045260245ffd5b5f611945826110d3565b9150611950836110d3565b92508282039050818111156119685761196761190e565b5b92915050565b7f4e487b71000000000000000000000000000000000000000000000000000000005f52603260045260245ffd5b5f6119a5826110d3565b91506119b0836110d3565b92508282019050808211156119c8576119c761190e565b5b92915050565b5f819050815f5260205f209050919050565b5f6020601f8301049050919050565b5f82821b905092915050565b5f60088302611a2a7fffffffffffffffffffffffffffffffffffffffffffffffffffffffffffffffff826119ef565b611a3486836119ef565b95508019841693508086168417925050509392505050565b5f819050919050565b5f611a6f611a6a611a65846110d3565b611a4c565b6110d3565b9050919050565b5f819050919050565b611a8883611a55565b611a9c611a9482611a76565b8484546119fb565b825550505050565b5f90565b611ab0611aa4565b611abb818484611a7f565b505050565b5b81811015611ade57611ad35f82611aa8565b600181019050611ac1565b5050565b601f821115611b2357611af4816119ce565b611afd846119e0565b81016020851015611b0c578190505b611b20611b18856119e0565b830182611ac0565b50505b505050565b5f82821c905092915050565b5f611b435f1984600802611b28565b1980831691505092915050565b5f611b5b8383611b34565b9150826002028217905092915050565b611b74826112ed565b67ffffffffffffffff811115611b8d57611b8c61112d565b5b611b9782546118de565b611ba2828285611ae2565b5f60209050601f831160018114611bd3575f8415611bc1578287015190505b611bcb8582611b50565b865550611c32565b601f198416611be1866119ce565b5f5b82811015611c0857848901518255600182019150602085019450602081019050611be3565b86831015611c255784890151611c21601f891682611b34565b8355505b6001600288020188555050505b505050505050565b7f4e487b71000000000000000000000000000000000000000000000000000000005f52601260045260245ffd5b5f611c71826110d3565b9150611c7c836110d3565b925082611c8c57611c8b611c3a565b5b82820490509291505056fea2646970667358221220706e3cf46cf09a8a0cb24606dd6421e04d7ba25f4c12dd90cf2b1b42a74ede5664736f6c63430008170033",
					"opcodes": "PUSH1 0x80 PUSH1 0x40 MSTORE CALLVALUE DUP1 ISZERO PUSH2 0xF JUMPI PUSH0 DUP1 REVERT JUMPDEST POP PUSH2 0x1CCD DUP1 PUSH2 0x1D PUSH0 CODECOPY PUSH0 RETURN INVALID PUSH1 0x80 PUSH1 0x40 MSTORE CALLVALUE DUP1 ISZERO PUSH2 0xF JUMPI PUSH0 DUP1 REVERT JUMPDEST POP PUSH1 0x4 CALLDATASIZE LT PUSH2 0x9C JUMPI PUSH0 CALLDATALOAD PUSH1 0xE0 SHR DUP1 PUSH4 0x9B57EE3D GT PUSH2 0x64 JUMPI DUP1 PUSH4 0x9B57EE3D EQ PUSH2 0x16D JUMPI DUP1 PUSH4 0xA41F985E EQ PUSH2 0x18B JUMPI DUP1 PUSH4 0xC7E56AE3 EQ PUSH2 0x1BB JUMPI DUP1 PUSH4 0xDF72CDBF EQ PUSH2 0x1D7 JUMPI DUP1 PUSH4 0xF1D064B3 EQ PUSH2 0x1F5 JUMPI PUSH2 0x9C JUMP JUMPDEST DUP1 PUSH4 0x140F6B29 EQ PUSH2 0xA0 JUMPI DUP1 PUSH4 0x2C78EC94 EQ PUSH2 0xBE JUMPI DUP1 PUSH4 0x674271CD EQ PUSH2 0xEE JUMPI DUP1 PUSH4 0x6A76BF66 EQ PUSH2 0x11E JUMPI DUP1 PUSH4 0x83B41AD8 EQ PUSH2 0x13D JUMPI JUMPDEST PUSH0 DUP1 REVERT JUMPDEST PUSH2 0xA8 PUSH2 0x213 JUMP JUMPDEST PUSH1 0x40 MLOAD PUSH2 0xB5 SWAP2 SWAP1 PUSH2 0x10EB JUMP JUMPDEST PUSH1 0x40 MLOAD DUP1 SWAP2 SUB SWAP1 RETURN JUMPDEST PUSH2 0xD8 PUSH1 0x4 DUP1 CALLDATASIZE SUB DUP2 ADD SWAP1 PUSH2 0xD3 SWAP2 SWAP1 PUSH2 0x1251 JUMP JUMPDEST PUSH2 0x21F JUMP JUMPDEST PUSH1 0x40 MLOAD PUSH2 0xE5 SWAP2 SWAP1 PUSH2 0x10EB JUMP JUMPDEST PUSH1 0x40 MLOAD DUP1 SWAP2 SUB SWAP1 RETURN JUMPDEST PUSH2 0x108 PUSH1 0x4 DUP1 CALLDATASIZE SUB DUP2 ADD SWAP1 PUSH2 0x103 SWAP2 SWAP1 PUSH2 0x12C2 JUMP JUMPDEST PUSH2 0x248 JUMP JUMPDEST PUSH1 0x40 MLOAD PUSH2 0x115 SWAP2 SWAP1 PUSH2 0x1367 JUMP JUMPDEST PUSH1 0x40 MLOAD DUP1 SWAP2 SUB SWAP1 RETURN JUMPDEST PUSH2 0x126 PUSH2 0x39C JUMP JUMPDEST PUSH1 0x40 MLOAD PUSH2 0x134 SWAP3 SWAP2 SWAP1 PUSH2 0x15D5 JUMP JUMPDEST PUSH1 0x40 MLOAD DUP1 SWAP2 SUB SWAP1 RETURN JUMPDEST PUSH2 0x157 PUSH1 0x4 DUP1 CALLDATASIZE SUB DUP2 ADD SWAP1 PUSH2 0x152 SWAP2 SWAP1 PUSH2 0x1251 JUMP JUMPDEST PUSH2 0x60C JUMP JUMPDEST PUSH1 0x40 MLOAD PUSH2 0x164 SWAP2 SWAP1 PUSH2 0x1684 JUMP JUMPDEST PUSH1 0x40 MLOAD DUP1 SWAP2 SUB SWAP1 RETURN JUMPDEST PUSH2 0x175 PUSH2 0x84A JUMP JUMPDEST PUSH1 0x40 MLOAD PUSH2 0x182 SWAP2 SWAP1 PUSH2 0x16BE JUMP JUMPDEST PUSH1 0x40 MLOAD DUP1 SWAP2 SUB SWAP1 RETURN JUMPDEST PUSH2 0x1A5 PUSH1 0x4 DUP1 CALLDATASIZE SUB DUP2 ADD SWAP1 PUSH2 0x1A0 SWAP2 SWAP1 PUSH2 0x12C2 JUMP JUMPDEST PUSH2 0x86A JUMP JUMPDEST PUSH1 0x40 MLOAD PUSH2 0x1B2 SWAP2 SWAP1 PUSH2 0x1684 JUMP JUMPDEST PUSH1 0x40 MLOAD DUP1 SWAP2 SUB SWAP1 RETURN JUMPDEST PUSH2 0x1D5 PUSH1 0x4 DUP1 CALLDATASIZE SUB DUP2 ADD SWAP1 PUSH2 0x1D0 SWAP2 SWAP1 PUSH2 0x17B9 JUMP JUMPDEST PUSH2 0xAB6 JUMP JUMPDEST STOP JUMPDEST PUSH2 0x1DF PUSH2 0xD07 JUMP JUMPDEST PUSH1 0x40 MLOAD PUSH2 0x1EC SWAP2 SWAP1 PUSH2 0x10EB JUMP JUMPDEST PUSH1 0x40 MLOAD DUP1 SWAP2 SUB SWAP1 RETURN JUMPDEST PUSH2 0x1FD PUSH2 0xD71 JUMP JUMPDEST PUSH1 0x40 MLOAD PUSH2 0x20A SWAP2 SWAP1 PUSH2 0x1841 JUMP JUMPDEST PUSH1 0x40 MLOAD DUP1 SWAP2 SUB SWAP1 RETURN JUMPDEST PUSH0 PUSH1 0x1 DUP1 SLOAD SWAP1 POP SWAP1 POP SWAP1 JUMP JUMPDEST PUSH0 DUP1 DUP3 PUSH1 0x40 MLOAD PUSH2 0x22F SWAP2 SWAP1 PUSH2 0x189B JUMP JUMPDEST SWAP1 DUP2 MSTORE PUSH1 0x20 ADD PUSH1 0x40 MLOAD DUP1 SWAP2 SUB SWAP1 KECCAK256 PUSH1 0x2 ADD SLOAD SWAP1 POP SWAP2 SWAP1 POP JUMP JUMPDEST PUSH1 0x60 PUSH1 0x5A DUP3 LT PUSH2 0x28F JUMPI PUSH1 0x40 MLOAD DUP1 PUSH1 0x40 ADD PUSH1 0x40 MSTORE DUP1 PUSH1 0x1 DUP2 MSTORE PUSH1 0x20 ADD PUSH32 0x4100000000000000000000000000000000000000000000000000000000000000 DUP2 MSTORE POP SWAP1 POP PUSH2 0x397 JUMP JUMPDEST PUSH1 0x50 DUP3 LT PUSH2 0x2D4 JUMPI PUSH1 0x40 MLOAD DUP1 PUSH1 0x40 ADD PUSH1 0x40 MSTORE DUP1 PUSH1 0x1 DUP2 MSTORE PUSH1 0x20 ADD PUSH32 0x4200000000000000000000000000000000000000000000000000000000000000 DUP2 MSTORE POP SWAP1 POP PUSH2 0x397 JUMP JUMPDEST PUSH1 0x46 DUP3 LT PUSH2 0x319 JUMPI PUSH1 0x40 MLOAD DUP1 PUSH1 0x40 ADD PUSH1 0x40 MSTORE DUP1 PUSH1 0x1 DUP2 MSTORE PUSH1 0x20 ADD PUSH32 0x4300000000000000000000000000000000000000000000000000000000000000 DUP2 MSTORE POP SWAP1 POP PUSH2 0x397 JUMP JUMPDEST PUSH1 0x3C DUP3 LT PUSH2 0x35E JUMPI PUSH1 0x40 MLOAD DUP1 PUSH1 0x40 ADD PUSH1 0x40 MSTORE DUP1 PUSH1 0x1 DUP2 MSTORE PUSH1 0x20 ADD PUSH32 0x4400000000000000000000000000000000000000000000000000000000000000 DUP2 MSTORE POP SWAP1 POP PUSH2 0x397 JUMP JUMPDEST PUSH1 0x40 MLOAD DUP1 PUSH1 0x40 ADD PUSH1 0x40 MSTORE DUP1 PUSH1 0x1 DUP2 MSTORE PUSH1 0x20 ADD PUSH32 0x4600000000000000000000000000000000000000000000000000000000000000 DUP2 MSTORE POP SWAP1 POP JUMPDEST SWAP2 SWAP1 POP JUMP JUMPDEST PUSH0 PUSH1 0x60 PUSH1 0x2 DUP1 SLOAD SWAP1 POP PUSH1 0x2 DUP1 DUP1 SLOAD DUP1 PUSH1 0x20 MUL PUSH1 0x20 ADD PUSH1 0x40 MLOAD SWAP1 DUP2 ADD PUSH1 0x40 MSTORE DUP1 SWAP3 SWAP2 SWAP1 DUP2 DUP2 MSTORE PUSH1 0x20 ADD PUSH0 SWAP1 JUMPDEST DUP3 DUP3 LT ISZERO PUSH2 0x5FE JUMPI DUP4 DUP3 SWAP1 PUSH0 MSTORE PUSH1 0x20 PUSH0 KECCAK256 SWAP1 PUSH1 0x5 MUL ADD PUSH1 0x40 MLOAD DUP1 PUSH1 0xA0 ADD PUSH1 0x40 MSTORE SWAP1 DUP2 PUSH0 DUP3 ADD DUP1 SLOAD PUSH2 0x3F7 SWAP1 PUSH2 0x18DE JUMP JUMPDEST DUP1 PUSH1 0x1F ADD PUSH1 0x20 DUP1 SWAP2 DIV MUL PUSH1 0x20 ADD PUSH1 0x40 MLOAD SWAP1 DUP2 ADD PUSH1 0x40 MSTORE DUP1 SWAP3 SWAP2 SWAP1 DUP2 DUP2 MSTORE PUSH1 0x20 ADD DUP3 DUP1 SLOAD PUSH2 0x423 SWAP1 PUSH2 0x18DE JUMP JUMPDEST DUP1 ISZERO PUSH2 0x46E JUMPI DUP1 PUSH1 0x1F LT PUSH2 0x445 JUMPI PUSH2 0x100 DUP1 DUP4 SLOAD DIV MUL DUP4 MSTORE SWAP2 PUSH1 0x20 ADD SWAP2 PUSH2 0x46E JUMP JUMPDEST DUP3 ADD SWAP2 SWAP1 PUSH0 MSTORE PUSH1 0x20 PUSH0 KECCAK256 SWAP1 JUMPDEST DUP2 SLOAD DUP2 MSTORE SWAP1 PUSH1 0x1 ADD SWAP1 PUSH1 0x20 ADD DUP1 DUP4 GT PUSH2 0x451 JUMPI DUP3 SWAP1 SUB PUSH1 0x1F AND DUP3 ADD SWAP2 JUMPDEST POP POP POP POP POP DUP2 MSTORE PUSH1 0x20 ADD PUSH1 0x1 DUP3 ADD SLOAD DUP2 MSTORE PUSH1 0x20 ADD PUSH1 0x2 DUP3 ADD SLOAD DUP2 MSTORE PUSH1 0x20 ADD PUSH1 0x3 DUP3 ADD DUP1 SLOAD PUSH2 0x49B SWAP1 PUSH2 0x18DE JUMP JUMPDEST DUP1 PUSH1 0x1F ADD PUSH1 0x20 DUP1 SWAP2 DIV MUL PUSH1 0x20 ADD PUSH1 0x40 MLOAD SWAP1 DUP2 ADD PUSH1 0x40 MSTORE DUP1 SWAP3 SWAP2 SWAP1 DUP2 DUP2 MSTORE PUSH1 0x20 ADD DUP3 DUP1 SLOAD PUSH2 0x4C7 SWAP1 PUSH2 0x18DE JUMP JUMPDEST DUP1 ISZERO PUSH2 0x512 JUMPI DUP1 PUSH1 0x1F LT PUSH2 0x4E9 JUMPI PUSH2 0x100 DUP1 DUP4 SLOAD DIV MUL DUP4 MSTORE SWAP2 PUSH1 0x20 ADD SWAP2 PUSH2 0x512 JUMP JUMPDEST DUP3 ADD SWAP2 SWAP1 PUSH0 MSTORE PUSH1 0x20 PUSH0 KECCAK256 SWAP1 JUMPDEST DUP2 SLOAD DUP2 MSTORE SWAP1 PUSH1 0x1 ADD SWAP1 PUSH1 0x20 ADD DUP1 DUP4 GT PUSH2 0x4F5 JUMPI DUP3 SWAP1 SUB PUSH1 0x1F AND DUP3 ADD SWAP2 JUMPDEST POP POP POP POP POP DUP2 MSTORE PUSH1 0x20 ADD PUSH1 0x4 DUP3 ADD DUP1 SLOAD DUP1 PUSH1 0x20 MUL PUSH1 0x20 ADD PUSH1 0x40 MLOAD SWAP1 DUP2 ADD PUSH1 0x40 MSTORE DUP1 SWAP3 SWAP2 SWAP1 DUP2 DUP2 MSTORE PUSH1 0x20 ADD PUSH0 SWAP1 JUMPDEST DUP3 DUP3 LT ISZERO PUSH2 0x5E7 JUMPI DUP4 DUP3 SWAP1 PUSH0 MSTORE PUSH1 0x20 PUSH0 KECCAK256 ADD DUP1 SLOAD PUSH2 0x55C SWAP1 PUSH2 0x18DE JUMP JUMPDEST DUP1 PUSH1 0x1F ADD PUSH1 0x20 DUP1 SWAP2 DIV MUL PUSH1 0x20 ADD PUSH1 0x40 MLOAD SWAP1 DUP2 ADD PUSH1 0x40 MSTORE DUP1 SWAP3 SWAP2 SWAP1 DUP2 DUP2 MSTORE PUSH1 0x20 ADD DUP3 DUP1 SLOAD PUSH2 0x588 SWAP1 PUSH2 0x18DE JUMP JUMPDEST DUP1 ISZERO PUSH2 0x5D3 JUMPI DUP1 PUSH1 0x1F LT PUSH2 0x5AA JUMPI PUSH2 0x100 DUP1 DUP4 SLOAD DIV MUL DUP4 MSTORE SWAP2 PUSH1 0x20 ADD SWAP2 PUSH2 0x5D3 JUMP JUMPDEST DUP3 ADD SWAP2 SWAP1 PUSH0 MSTORE PUSH1 0x20 PUSH0 KECCAK256 SWAP1 JUMPDEST DUP2 SLOAD DUP2 MSTORE SWAP1 PUSH1 0x1 ADD SWAP1 PUSH1 0x20 ADD DUP1 DUP4 GT PUSH2 0x5B6 JUMPI DUP3 SWAP1 SUB PUSH1 0x1F AND DUP3 ADD SWAP2 JUMPDEST POP POP POP POP POP DUP2 MSTORE PUSH1 0x20 ADD SWAP1 PUSH1 0x1 ADD SWAP1 PUSH2 0x53F JUMP JUMPDEST POP POP POP POP DUP2 MSTORE POP POP DUP2 MSTORE PUSH1 0x20 ADD SWAP1 PUSH1 0x1 ADD SWAP1 PUSH2 0x3C7 JUMP JUMPDEST POP POP POP POP SWAP1 POP SWAP2 POP SWAP2 POP SWAP1 SWAP2 JUMP JUMPDEST PUSH2 0x614 PUSH2 0xFD4 JUMP JUMPDEST PUSH0 DUP3 PUSH1 0x40 MLOAD PUSH2 0x623 SWAP2 SWAP1 PUSH2 0x189B JUMP JUMPDEST SWAP1 DUP2 MSTORE PUSH1 0x20 ADD PUSH1 0x40 MLOAD DUP1 SWAP2 SUB SWAP1 KECCAK256 PUSH1 0x40 MLOAD DUP1 PUSH1 0xA0 ADD PUSH1 0x40 MSTORE SWAP1 DUP2 PUSH0 DUP3 ADD DUP1 SLOAD PUSH2 0x64B SWAP1 PUSH2 0x18DE JUMP JUMPDEST DUP1 PUSH1 0x1F ADD PUSH1 0x20 DUP1 SWAP2 DIV MUL PUSH1 0x20 ADD PUSH1 0x40 MLOAD SWAP1 DUP2 ADD PUSH1 0x40 MSTORE DUP1 SWAP3 SWAP2 SWAP1 DUP2 DUP2 MSTORE PUSH1 0x20 ADD DUP3 DUP1 SLOAD PUSH2 0x677 SWAP1 PUSH2 0x18DE JUMP JUMPDEST DUP1 ISZERO PUSH2 0x6C2 JUMPI DUP1 PUSH1 0x1F LT PUSH2 0x699 JUMPI PUSH2 0x100 DUP1 DUP4 SLOAD DIV MUL DUP4 MSTORE SWAP2 PUSH1 0x20 ADD SWAP2 PUSH2 0x6C2 JUMP JUMPDEST DUP3 ADD SWAP2 SWAP1 PUSH0 MSTORE PUSH1 0x20 PUSH0 KECCAK256 SWAP1 JUMPDEST DUP2 SLOAD DUP2 MSTORE SWAP1 PUSH1 0x1 ADD SWAP1 PUSH1 0x20 ADD DUP1 DUP4 GT PUSH2 0x6A5 JUMPI DUP3 SWAP1 SUB PUSH1 0x1F AND DUP3 ADD SWAP2 JUMPDEST POP POP POP POP POP DUP2 MSTORE PUSH1 0x20 ADD PUSH1 0x1 DUP3 ADD SLOAD DUP2 MSTORE PUSH1 0x20 ADD PUSH1 0x2 DUP3 ADD SLOAD DUP2 MSTORE PUSH1 0x20 ADD PUSH1 0x3 DUP3 ADD DUP1 SLOAD PUSH2 0x6EF SWAP1 PUSH2 0x18DE JUMP JUMPDEST DUP1 PUSH1 0x1F ADD PUSH1 0x20 DUP1 SWAP2 DIV MUL PUSH1 0x20 ADD PUSH1 0x40 MLOAD SWAP1 DUP2 ADD PUSH1 0x40 MSTORE DUP1 SWAP3 SWAP2 SWAP1 DUP2 DUP2 MSTORE PUSH1 0x20 ADD DUP3 DUP1 SLOAD PUSH2 0x71B SWAP1 PUSH2 0x18DE JUMP JUMPDEST DUP1 ISZERO PUSH2 0x766 JUMPI DUP1 PUSH1 0x1F LT PUSH2 0x73D JUMPI PUSH2 0x100 DUP1 DUP4 SLOAD DIV MUL DUP4 MSTORE SWAP2 PUSH1 0x20 ADD SWAP2 PUSH2 0x766 JUMP JUMPDEST DUP3 ADD SWAP2 SWAP1 PUSH0 MSTORE PUSH1 0x20 PUSH0 KECCAK256 SWAP1 JUMPDEST DUP2 SLOAD DUP2 MSTORE SWAP1 PUSH1 0x1 ADD SWAP1 PUSH1 0x20 ADD DUP1 DUP4 GT PUSH2 0x749 JUMPI DUP3 SWAP1 SUB PUSH1 0x1F AND DUP3 ADD SWAP2 JUMPDEST POP POP POP POP POP DUP2 MSTORE PUSH1 0x20 ADD PUSH1 0x4 DUP3 ADD DUP1 SLOAD DUP1 PUSH1 0x20 MUL PUSH1 0x20 ADD PUSH1 0x40 MLOAD SWAP1 DUP2 ADD PUSH1 0x40 MSTORE DUP1 SWAP3 SWAP2 SWAP1 DUP2 DUP2 MSTORE PUSH1 0x20 ADD PUSH0 SWAP1 JUMPDEST DUP3 DUP3 LT ISZERO PUSH2 0x83B JUMPI DUP4 DUP3 SWAP1 PUSH0 MSTORE PUSH1 0x20 PUSH0 KECCAK256 ADD DUP1 SLOAD PUSH2 0x7B0 SWAP1 PUSH2 0x18DE JUMP JUMPDEST DUP1 PUSH1 0x1F ADD PUSH1 0x20 DUP1 SWAP2 DIV MUL PUSH1 0x20 ADD PUSH1 0x40 MLOAD SWAP1 DUP2 ADD PUSH1 0x40 MSTORE DUP1 SWAP3 SWAP2 SWAP1 DUP2 DUP2 MSTORE PUSH1 0x20 ADD DUP3 DUP1 SLOAD PUSH2 0x7DC SWAP1 PUSH2 0x18DE JUMP JUMPDEST DUP1 ISZERO PUSH2 0x827 JUMPI DUP1 PUSH1 0x1F LT PUSH2 0x7FE JUMPI PUSH2 0x100 DUP1 DUP4 SLOAD DIV MUL DUP4 MSTORE SWAP2 PUSH1 0x20 ADD SWAP2 PUSH2 0x827 JUMP JUMPDEST DUP3 ADD SWAP2 SWAP1 PUSH0 MSTORE PUSH1 0x20 PUSH0 KECCAK256 SWAP1 JUMPDEST DUP2 SLOAD DUP2 MSTORE SWAP1 PUSH1 0x1 ADD SWAP1 PUSH1 0x20 ADD DUP1 DUP4 GT PUSH2 0x80A JUMPI DUP3 SWAP1 SUB PUSH1 0x1F AND DUP3 ADD SWAP2 JUMPDEST POP POP POP POP POP DUP2 MSTORE PUSH1 0x20 ADD SWAP1 PUSH1 0x1 ADD SWAP1 PUSH2 0x793 JUMP JUMPDEST POP POP POP POP DUP2 MSTORE POP POP SWAP1 POP SWAP2 SWAP1 POP JUMP JUMPDEST PUSH0 PUSH1 0x46 PUSH2 0x855 PUSH2 0xD07 JUMP JUMPDEST LT PUSH2 0x863 JUMPI PUSH1 0x1 SWAP1 POP PUSH2 0x867 JUMP JUMPDEST PUSH0 SWAP1 POP JUMPDEST SWAP1 JUMP JUMPDEST PUSH2 0x872 PUSH2 0xFD4 JUMP JUMPDEST PUSH1 0x1 DUP1 DUP4 PUSH2 0x880 SWAP2 SWAP1 PUSH2 0x193B JUMP JUMPDEST DUP2 SLOAD DUP2 LT PUSH2 0x891 JUMPI PUSH2 0x890 PUSH2 0x196E JUMP JUMPDEST JUMPDEST SWAP1 PUSH0 MSTORE PUSH1 0x20 PUSH0 KECCAK256 SWAP1 PUSH1 0x5 MUL ADD PUSH1 0x40 MLOAD DUP1 PUSH1 0xA0 ADD PUSH1 0x40 MSTORE SWAP1 DUP2 PUSH0 DUP3 ADD DUP1 SLOAD PUSH2 0x8B7 SWAP1 PUSH2 0x18DE JUMP JUMPDEST DUP1 PUSH1 0x1F ADD PUSH1 0x20 DUP1 SWAP2 DIV MUL PUSH1 0x20 ADD PUSH1 0x40 MLOAD SWAP1 DUP2 ADD PUSH1 0x40 MSTORE DUP1 SWAP3 SWAP2 SWAP1 DUP2 DUP2 MSTORE PUSH1 0x20 ADD DUP3 DUP1 SLOAD PUSH2 0x8E3 SWAP1 PUSH2 0x18DE JUMP JUMPDEST DUP1 ISZERO PUSH2 0x92E JUMPI DUP1 PUSH1 0x1F LT PUSH2 0x905 JUMPI PUSH2 0x100 DUP1 DUP4 SLOAD DIV MUL DUP4 MSTORE SWAP2 PUSH1 0x20 ADD SWAP2 PUSH2 0x92E JUMP JUMPDEST DUP3 ADD SWAP2 SWAP1 PUSH0 MSTORE PUSH1 0x20 PUSH0 KECCAK256 SWAP1 JUMPDEST DUP2 SLOAD DUP2 MSTORE SWAP1 PUSH1 0x1 ADD SWAP1 PUSH1 0x20 ADD DUP1 DUP4 GT PUSH2 0x911 JUMPI DUP3 SWAP1 SUB PUSH1 0x1F AND DUP3 ADD SWAP2 JUMPDEST POP POP POP POP POP DUP2 MSTORE PUSH1 0x20 ADD PUSH1 0x1 DUP3 ADD SLOAD DUP2 MSTORE PUSH1 0x20 ADD PUSH1 0x2 DUP3 ADD SLOAD DUP2 MSTORE PUSH1 0x20 ADD PUSH1 0x3 DUP3 ADD DUP1 SLOAD PUSH2 0x95B SWAP1 PUSH2 0x18DE JUMP JUMPDEST DUP1 PUSH1 0x1F ADD PUSH1 0x20 DUP1 SWAP2 DIV MUL PUSH1 0x20 ADD PUSH1 0x40 MLOAD SWAP1 DUP2 ADD PUSH1 0x40 MSTORE DUP1 SWAP3 SWAP2 SWAP1 DUP2 DUP2 MSTORE PUSH1 0x20 ADD DUP3 DUP1 SLOAD PUSH2 0x987 SWAP1 PUSH2 0x18DE JUMP JUMPDEST DUP1 ISZERO PUSH2 0x9D2 JUMPI DUP1 PUSH1 0x1F LT PUSH2 0x9A9 JUMPI PUSH2 0x100 DUP1 DUP4 SLOAD DIV MUL DUP4 MSTORE SWAP2 PUSH1 0x20 ADD SWAP2 PUSH2 0x9D2 JUMP JUMPDEST DUP3 ADD SWAP2 SWAP1 PUSH0 MSTORE PUSH1 0x20 PUSH0 KECCAK256 SWAP1 JUMPDEST DUP2 SLOAD DUP2 MSTORE SWAP1 PUSH1 0x1 ADD SWAP1 PUSH1 0x20 ADD DUP1 DUP4 GT PUSH2 0x9B5 JUMPI DUP3 SWAP1 SUB PUSH1 0x1F AND DUP3 ADD SWAP2 JUMPDEST POP POP POP POP POP DUP2 MSTORE PUSH1 0x20 ADD PUSH1 0x4 DUP3 ADD DUP1 SLOAD DUP1 PUSH1 0x20 MUL PUSH1 0x20 ADD PUSH1 0x40 MLOAD SWAP1 DUP2 ADD PUSH1 0x40 MSTORE DUP1 SWAP3 SWAP2 SWAP1 DUP2 DUP2 MSTORE PUSH1 0x20 ADD PUSH0 SWAP1 JUMPDEST DUP3 DUP3 LT ISZERO PUSH2 0xAA7 JUMPI DUP4 DUP3 SWAP1 PUSH0 MSTORE PUSH1 0x20 PUSH0 KECCAK256 ADD DUP1 SLOAD PUSH2 0xA1C SWAP1 PUSH2 0x18DE JUMP JUMPDEST DUP1 PUSH1 0x1F ADD PUSH1 0x20 DUP1 SWAP2 DIV MUL PUSH1 0x20 ADD PUSH1 0x40 MLOAD SWAP1 DUP2 ADD PUSH1 0x40 MSTORE DUP1 SWAP3 SWAP2 SWAP1 DUP2 DUP2 MSTORE PUSH1 0x20 ADD DUP3 DUP1 SLOAD PUSH2 0xA48 SWAP1 PUSH2 0x18DE JUMP JUMPDEST DUP1 ISZERO PUSH2 0xA93 JUMPI DUP1 PUSH1 0x1F LT PUSH2 0xA6A JUMPI PUSH2 0x100 DUP1 DUP4 SLOAD DIV MUL DUP4 MSTORE SWAP2 PUSH1 0x20 ADD SWAP2 PUSH2 0xA93 JUMP JUMPDEST DUP3 ADD SWAP2 SWAP1 PUSH0 MSTORE PUSH1 0x20 PUSH0 KECCAK256 SWAP1 JUMPDEST DUP2 SLOAD DUP2 MSTORE SWAP1 PUSH1 0x1 ADD SWAP1 PUSH1 0x20 ADD DUP1 DUP4 GT PUSH2 0xA76 JUMPI DUP3 SWAP1 SUB PUSH1 0x1F AND DUP3 ADD SWAP2 JUMPDEST POP POP POP POP POP DUP2 MSTORE PUSH1 0x20 ADD SWAP1 PUSH1 0x1 ADD SWAP1 PUSH2 0x9FF JUMP JUMPDEST POP POP POP POP DUP2 MSTORE POP POP SWAP1 POP SWAP2 SWAP1 POP JUMP JUMPDEST PUSH1 0x1 PUSH1 0x40 MLOAD DUP1 PUSH1 0xA0 ADD PUSH1 0x40 MSTORE DUP1 DUP6 DUP2 MSTORE PUSH1 0x20 ADD PUSH1 0x1 DUP1 DUP1 SLOAD SWAP1 POP PUSH2 0xADA SWAP2 SWAP1 PUSH2 0x199B JUMP JUMPDEST DUP2 MSTORE PUSH1 0x20 ADD DUP5 DUP2 MSTORE PUSH1 0x20 ADD PUSH2 0xAEE DUP6 PUSH2 0x248 JUMP JUMPDEST DUP2 MSTORE PUSH1 0x20 ADD DUP4 DUP2 MSTORE POP SWAP1 DUP1 PUSH1 0x1 DUP2 SLOAD ADD DUP1 DUP3 SSTORE DUP1 SWAP2 POP POP PUSH1 0x1 SWAP1 SUB SWAP1 PUSH0 MSTORE PUSH1 0x20 PUSH0 KECCAK256 SWAP1 PUSH1 0x5 MUL ADD PUSH0 SWAP1 SWAP2 SWAP1 SWAP2 SWAP1 SWAP2 POP PUSH0 DUP3 ADD MLOAD DUP2 PUSH0 ADD SWAP1 DUP2 PUSH2 0xB30 SWAP2 SWAP1 PUSH2 0x1B6B JUMP JUMPDEST POP PUSH1 0x20 DUP3 ADD MLOAD DUP2 PUSH1 0x1 ADD SSTORE PUSH1 0x40 DUP3 ADD MLOAD DUP2 PUSH1 0x2 ADD SSTORE PUSH1 0x60 DUP3 ADD MLOAD DUP2 PUSH1 0x3 ADD SWAP1 DUP2 PUSH2 0xB5A SWAP2 SWAP1 PUSH2 0x1B6B JUMP JUMPDEST POP PUSH1 0x80 DUP3 ADD MLOAD DUP2 PUSH1 0x4 ADD SWAP1 DUP1 MLOAD SWAP1 PUSH1 0x20 ADD SWAP1 PUSH2 0xB77 SWAP3 SWAP2 SWAP1 PUSH2 0x1001 JUMP JUMPDEST POP POP POP PUSH1 0x40 MLOAD DUP1 PUSH1 0xA0 ADD PUSH1 0x40 MSTORE DUP1 DUP5 DUP2 MSTORE PUSH1 0x20 ADD PUSH1 0x1 DUP1 DUP1 SLOAD SWAP1 POP PUSH2 0xB9C SWAP2 SWAP1 PUSH2 0x199B JUMP JUMPDEST DUP2 MSTORE PUSH1 0x20 ADD DUP4 DUP2 MSTORE PUSH1 0x20 ADD PUSH2 0xBB0 DUP5 PUSH2 0x248 JUMP JUMPDEST DUP2 MSTORE PUSH1 0x20 ADD DUP3 DUP2 MSTORE POP PUSH0 DUP5 PUSH1 0x40 MLOAD PUSH2 0xBC8 SWAP2 SWAP1 PUSH2 0x189B JUMP JUMPDEST SWAP1 DUP2 MSTORE PUSH1 0x20 ADD PUSH1 0x40 MLOAD DUP1 SWAP2 SUB SWAP1 KECCAK256 PUSH0 DUP3 ADD MLOAD DUP2 PUSH0 ADD SWAP1 DUP2 PUSH2 0xBE9 SWAP2 SWAP1 PUSH2 0x1B6B JUMP JUMPDEST POP PUSH1 0x20 DUP3 ADD MLOAD DUP2 PUSH1 0x1 ADD SSTORE PUSH1 0x40 DUP3 ADD MLOAD DUP2 PUSH1 0x2 ADD SSTORE PUSH1 0x60 DUP3 ADD MLOAD DUP2 PUSH1 0x3 ADD SWAP1 DUP2 PUSH2 0xC13 SWAP2 SWAP1 PUSH2 0x1B6B JUMP JUMPDEST POP PUSH1 0x80 DUP3 ADD MLOAD DUP2 PUSH1 0x4 ADD SWAP1 DUP1 MLOAD SWAP1 PUSH1 0x20 ADD SWAP1 PUSH2 0xC30 SWAP3 SWAP2 SWAP1 PUSH2 0x1001 JUMP JUMPDEST POP SWAP1 POP POP PUSH1 0x3C DUP3 LT ISZERO PUSH2 0xD02 JUMPI PUSH1 0x2 PUSH1 0x40 MLOAD DUP1 PUSH1 0xA0 ADD PUSH1 0x40 MSTORE DUP1 DUP6 DUP2 MSTORE PUSH1 0x20 ADD PUSH1 0x1 DUP1 DUP1 SLOAD SWAP1 POP PUSH2 0xC61 SWAP2 SWAP1 PUSH2 0x199B JUMP JUMPDEST DUP2 MSTORE PUSH1 0x20 ADD DUP5 DUP2 MSTORE PUSH1 0x20 ADD PUSH2 0xC75 DUP6 PUSH2 0x248 JUMP JUMPDEST DUP2 MSTORE PUSH1 0x20 ADD DUP4 DUP2 MSTORE POP SWAP1 DUP1 PUSH1 0x1 DUP2 SLOAD ADD DUP1 DUP3 SSTORE DUP1 SWAP2 POP POP PUSH1 0x1 SWAP1 SUB SWAP1 PUSH0 MSTORE PUSH1 0x20 PUSH0 KECCAK256 SWAP1 PUSH1 0x5 MUL ADD PUSH0 SWAP1 SWAP2 SWAP1 SWAP2 SWAP1 SWAP2 POP PUSH0 DUP3 ADD MLOAD DUP2 PUSH0 ADD SWAP1 DUP2 PUSH2 0xCB7 SWAP2 SWAP1 PUSH2 0x1B6B JUMP JUMPDEST POP PUSH1 0x20 DUP3 ADD MLOAD DUP2 PUSH1 0x1 ADD SSTORE PUSH1 0x40 DUP3 ADD MLOAD DUP2 PUSH1 0x2 ADD SSTORE PUSH1 0x60 DUP3 ADD MLOAD DUP2 PUSH1 0x3 ADD SWAP1 DUP2 PUSH2 0xCE1 SWAP2 SWAP1 PUSH2 0x1B6B JUMP JUMPDEST POP PUSH1 0x80 DUP3 ADD MLOAD DUP2 PUSH1 0x4 ADD SWAP1 DUP1 MLOAD SWAP1 PUSH1 0x20 ADD SWAP1 PUSH2 0xCFE SWAP3 SWAP2 SWAP1 PUSH2 0x1001 JUMP JUMPDEST POP POP POP JUMPDEST POP POP POP JUMP JUMPDEST PUSH0 DUP1 PUSH0 SWAP1 POP PUSH0 JUMPDEST PUSH1 0x1 DUP1 SLOAD SWAP1 POP DUP2 LT ISZERO PUSH2 0xD59 JUMPI PUSH1 0x1 DUP2 DUP2 SLOAD DUP2 LT PUSH2 0xD2F JUMPI PUSH2 0xD2E PUSH2 0x196E JUMP JUMPDEST JUMPDEST SWAP1 PUSH0 MSTORE PUSH1 0x20 PUSH0 KECCAK256 SWAP1 PUSH1 0x5 MUL ADD PUSH1 0x2 ADD SLOAD DUP3 PUSH2 0xD4A SWAP2 SWAP1 PUSH2 0x199B JUMP JUMPDEST SWAP2 POP DUP1 DUP1 PUSH1 0x1 ADD SWAP2 POP POP PUSH2 0xD0E JUMP JUMPDEST POP PUSH1 0x1 DUP1 SLOAD SWAP1 POP DUP2 PUSH2 0xD6B SWAP2 SWAP1 PUSH2 0x1C67 JUMP JUMPDEST SWAP2 POP POP SWAP1 JUMP JUMPDEST PUSH1 0x60 PUSH1 0x1 DUP1 SLOAD DUP1 PUSH1 0x20 MUL PUSH1 0x20 ADD PUSH1 0x40 MLOAD SWAP1 DUP2 ADD PUSH1 0x40 MSTORE DUP1 SWAP3 SWAP2 SWAP1 DUP2 DUP2 MSTORE PUSH1 0x20 ADD PUSH0 SWAP1 JUMPDEST DUP3 DUP3 LT ISZERO PUSH2 0xFCB JUMPI DUP4 DUP3 SWAP1 PUSH0 MSTORE PUSH1 0x20 PUSH0 KECCAK256 SWAP1 PUSH1 0x5 MUL ADD PUSH1 0x40 MLOAD DUP1 PUSH1 0xA0 ADD PUSH1 0x40 MSTORE SWAP1 DUP2 PUSH0 DUP3 ADD DUP1 SLOAD PUSH2 0xDC4 SWAP1 PUSH2 0x18DE JUMP JUMPDEST DUP1 PUSH1 0x1F ADD PUSH1 0x20 DUP1 SWAP2 DIV MUL PUSH1 0x20 ADD PUSH1 0x40 MLOAD SWAP1 DUP2 ADD PUSH1 0x40 MSTORE DUP1 SWAP3 SWAP2 SWAP1 DUP2 DUP2 MSTORE PUSH1 0x20 ADD DUP3 DUP1 SLOAD PUSH2 0xDF0 SWAP1 PUSH2 0x18DE JUMP JUMPDEST DUP1 ISZERO PUSH2 0xE3B JUMPI DUP1 PUSH1 0x1F LT PUSH2 0xE12 JUMPI PUSH2 0x100 DUP1 DUP4 SLOAD DIV MUL DUP4 MSTORE SWAP2 PUSH1 0x20 ADD SWAP2 PUSH2 0xE3B JUMP JUMPDEST DUP3 ADD SWAP2 SWAP1 PUSH0 MSTORE PUSH1 0x20 PUSH0 KECCAK256 SWAP1 JUMPDEST DUP2 SLOAD DUP2 MSTORE SWAP1 PUSH1 0x1 ADD SWAP1 PUSH1 0x20 ADD DUP1 DUP4 GT PUSH2 0xE1E JUMPI DUP3 SWAP1 SUB PUSH1 0x1F AND DUP3 ADD SWAP2 JUMPDEST POP POP POP POP POP DUP2 MSTORE PUSH1 0x20 ADD PUSH1 0x1 DUP3 ADD SLOAD DUP2 MSTORE PUSH1 0x20 ADD PUSH1 0x2 DUP3 ADD SLOAD DUP2 MSTORE PUSH1 0x20 ADD PUSH1 0x3 DUP3 ADD DUP1 SLOAD PUSH2 0xE68 SWAP1 PUSH2 0x18DE JUMP JUMPDEST DUP1 PUSH1 0x1F ADD PUSH1 0x20 DUP1 SWAP2 DIV MUL PUSH1 0x20 ADD PUSH1 0x40 MLOAD SWAP1 DUP2 ADD PUSH1 0x40 MSTORE DUP1 SWAP3 SWAP2 SWAP1 DUP2 DUP2 MSTORE PUSH1 0x20 ADD DUP3 DUP1 SLOAD PUSH2 0xE94 SWAP1 PUSH2 0x18DE JUMP JUMPDEST DUP1 ISZERO PUSH2 0xEDF JUMPI DUP1 PUSH1 0x1F LT PUSH2 0xEB6 JUMPI PUSH2 0x100 DUP1 DUP4 SLOAD DIV MUL DUP4 MSTORE SWAP2 PUSH1 0x20 ADD SWAP2 PUSH2 0xEDF JUMP JUMPDEST DUP3 ADD SWAP2 SWAP1 PUSH0 MSTORE PUSH1 0x20 PUSH0 KECCAK256 SWAP1 JUMPDEST DUP2 SLOAD DUP2 MSTORE SWAP1 PUSH1 0x1 ADD SWAP1 PUSH1 0x20 ADD DUP1 DUP4 GT PUSH2 0xEC2 JUMPI DUP3 SWAP1 SUB PUSH1 0x1F AND DUP3 ADD SWAP2 JUMPDEST POP POP POP POP POP DUP2 MSTORE PUSH1 0x20 ADD PUSH1 0x4 DUP3 ADD DUP1 SLOAD DUP1 PUSH1 0x20 MUL PUSH1 0x20 ADD PUSH1 0x40 MLOAD SWAP1 DUP2 ADD PUSH1 0x40 MSTORE DUP1 SWAP3 SWAP2 SWAP1 DUP2 DUP2 MSTORE PUSH1 0x20 ADD PUSH0 SWAP1 JUMPDEST DUP3 DUP3 LT ISZERO PUSH2 0xFB4 JUMPI DUP4 DUP3 SWAP1 PUSH0 MSTORE PUSH1 0x20 PUSH0 KECCAK256 ADD DUP1 SLOAD PUSH2 0xF29 SWAP1 PUSH2 0x18DE JUMP JUMPDEST DUP1 PUSH1 0x1F ADD PUSH1 0x20 DUP1 SWAP2 DIV MUL PUSH1 0x20 ADD PUSH1 0x40 MLOAD SWAP1 DUP2 ADD PUSH1 0x40 MSTORE DUP1 SWAP3 SWAP2 SWAP1 DUP2 DUP2 MSTORE PUSH1 0x20 ADD DUP3 DUP1 SLOAD PUSH2 0xF55 SWAP1 PUSH2 0x18DE JUMP JUMPDEST DUP1 ISZERO PUSH2 0xFA0 JUMPI DUP1 PUSH1 0x1F LT PUSH2 0xF77 JUMPI PUSH2 0x100 DUP1 DUP4 SLOAD DIV MUL DUP4 MSTORE SWAP2 PUSH1 0x20 ADD SWAP2 PUSH2 0xFA0 JUMP JUMPDEST DUP3 ADD SWAP2 SWAP1 PUSH0 MSTORE PUSH1 0x20 PUSH0 KECCAK256 SWAP1 JUMPDEST DUP2 SLOAD DUP2 MSTORE SWAP1 PUSH1 0x1 ADD SWAP1 PUSH1 0x20 ADD DUP1 DUP4 GT PUSH2 0xF83 JUMPI DUP3 SWAP1 SUB PUSH1 0x1F AND DUP3 ADD SWAP2 JUMPDEST POP POP POP POP POP DUP2 MSTORE PUSH1 0x20 ADD SWAP1 PUSH1 0x1 ADD SWAP1 PUSH2 0xF0C JUMP JUMPDEST POP POP POP POP DUP2 MSTORE POP POP DUP2 MSTORE PUSH1 0x20 ADD SWAP1 PUSH1 0x1 ADD SWAP1 PUSH2 0xD94 JUMP JUMPDEST POP POP POP POP SWAP1 POP SWAP1 JUMP JUMPDEST PUSH1 0x40 MLOAD DUP1 PUSH1 0xA0 ADD PUSH1 0x40 MSTORE DUP1 PUSH1 0x60 DUP2 MSTORE PUSH1 0x20 ADD PUSH0 DUP2 MSTORE PUSH1 0x20 ADD PUSH0 DUP2 MSTORE PUSH1 0x20 ADD PUSH1 0x60 DUP2 MSTORE PUSH1 0x20 ADD PUSH1 0x60 DUP2 MSTORE POP SWAP1 JUMP JUMPDEST DUP3 DUP1 SLOAD DUP3 DUP3 SSTORE SWAP1 PUSH0 MSTORE PUSH1 0x20 PUSH0 KECCAK256 SWAP1 DUP2 ADD SWAP3 DUP3 ISZERO PUSH2 0x1047 JUMPI SWAP2 PUSH1 0x20 MUL DUP3 ADD JUMPDEST DUP3 DUP2 GT ISZERO PUSH2 0x1046 JUMPI DUP3 MLOAD DUP3 SWAP1 DUP2 PUSH2 0x1036 SWAP2 SWAP1 PUSH2 0x1B6B JUMP JUMPDEST POP SWAP2 PUSH1 0x20 ADD SWAP2 SWAP1 PUSH1 0x1 ADD SWAP1 PUSH2 0x101F JUMP JUMPDEST JUMPDEST POP SWAP1 POP PUSH2 0x1054 SWAP2 SWAP1 PUSH2 0x1058 JUMP JUMPDEST POP SWAP1 JUMP JUMPDEST JUMPDEST DUP1 DUP3 GT ISZERO PUSH2 0x1077 JUMPI PUSH0 DUP2 DUP2 PUSH2 0x106E SWAP2 SWAP1 PUSH2 0x107B JUMP JUMPDEST POP PUSH1 0x1 ADD PUSH2 0x1059 JUMP JUMPDEST POP SWAP1 JUMP JUMPDEST POP DUP1 SLOAD PUSH2 0x1087 SWAP1 PUSH2 0x18DE JUMP JUMPDEST PUSH0 DUP3 SSTORE DUP1 PUSH1 0x1F LT PUSH2 0x1098 JUMPI POP PUSH2 0x10B5 JUMP JUMPDEST PUSH1 0x1F ADD PUSH1 0x20 SWAP1 DIV SWAP1 PUSH0 MSTORE PUSH1 0x20 PUSH0 KECCAK256 SWAP1 DUP2 ADD SWAP1 PUSH2 0x10B4 SWAP2 SWAP1 PUSH2 0x10B8 JUMP JUMPDEST JUMPDEST POP JUMP JUMPDEST JUMPDEST DUP1 DUP3 GT ISZERO PUSH2 0x10CF JUMPI PUSH0 DUP2 PUSH0 SWAP1 SSTORE POP PUSH1 0x1 ADD PUSH2 0x10B9 JUMP JUMPDEST POP SWAP1 JUMP JUMPDEST PUSH0 DUP2 SWAP1 POP SWAP2 SWAP1 POP JUMP JUMPDEST PUSH2 0x10E5 DUP2 PUSH2 0x10D3 JUMP JUMPDEST DUP3 MSTORE POP POP JUMP JUMPDEST PUSH0 PUSH1 0x20 DUP3 ADD SWAP1 POP PUSH2 0x10FE PUSH0 DUP4 ADD DUP5 PUSH2 0x10DC JUMP JUMPDEST SWAP3 SWAP2 POP POP JUMP JUMPDEST PUSH0 PUSH1 0x40 MLOAD SWAP1 POP SWAP1 JUMP JUMPDEST PUSH0 DUP1 REVERT JUMPDEST PUSH0 DUP1 REVERT JUMPDEST PUSH0 DUP1 REVERT JUMPDEST PUSH0 DUP1 REVERT JUMPDEST PUSH0 PUSH1 0x1F NOT PUSH1 0x1F DUP4 ADD AND SWAP1 POP SWAP2 SWAP1 POP JUMP JUMPDEST PUSH32 0x4E487B7100000000000000000000000000000000000000000000000000000000 PUSH0 MSTORE PUSH1 0x41 PUSH1 0x4 MSTORE PUSH1 0x24 PUSH0 REVERT JUMPDEST PUSH2 0x1163 DUP3 PUSH2 0x111D JUMP JUMPDEST DUP2 ADD DUP2 DUP2 LT PUSH8 0xFFFFFFFFFFFFFFFF DUP3 GT OR ISZERO PUSH2 0x1182 JUMPI PUSH2 0x1181 PUSH2 0x112D JUMP JUMPDEST JUMPDEST DUP1 PUSH1 0x40 MSTORE POP POP POP JUMP JUMPDEST PUSH0 PUSH2 0x1194 PUSH2 0x1104 JUMP JUMPDEST SWAP1 POP PUSH2 0x11A0 DUP3 DUP3 PUSH2 0x115A JUMP JUMPDEST SWAP2 SWAP1 POP JUMP JUMPDEST PUSH0 PUSH8 0xFFFFFFFFFFFFFFFF DUP3 GT ISZERO PUSH2 0x11BF JUMPI PUSH2 0x11BE PUSH2 0x112D JUMP JUMPDEST JUMPDEST PUSH2 0x11C8 DUP3 PUSH2 0x111D JUMP JUMPDEST SWAP1 POP PUSH1 0x20 DUP2 ADD SWAP1 POP SWAP2 SWAP1 POP JUMP JUMPDEST DUP3 DUP2 DUP4 CALLDATACOPY PUSH0 DUP4 DUP4 ADD MSTORE POP POP POP JUMP JUMPDEST PUSH0 PUSH2 0x11F5 PUSH2 0x11F0 DUP5 PUSH2 0x11A5 JUMP JUMPDEST PUSH2 0x118B JUMP JUMPDEST SWAP1 POP DUP3 DUP2 MSTORE PUSH1 0x20 DUP2 ADD DUP5 DUP5 DUP5 ADD GT ISZERO PUSH2 0x1211 JUMPI PUSH2 0x1210 PUSH2 0x1119 JUMP JUMPDEST JUMPDEST PUSH2 0x121C DUP5 DUP3 DUP6 PUSH2 0x11D5 JUMP JUMPDEST POP SWAP4 SWAP3 POP POP POP JUMP JUMPDEST PUSH0 DUP3 PUSH1 0x1F DUP4 ADD SLT PUSH2 0x1238 JUMPI PUSH2 0x1237 PUSH2 0x1115 JUMP JUMPDEST JUMPDEST DUP2 CALLDATALOAD PUSH2 0x1248 DUP5 DUP3 PUSH1 0x20 DUP7 ADD PUSH2 0x11E3 JUMP JUMPDEST SWAP2 POP POP SWAP3 SWAP2 POP POP JUMP JUMPDEST PUSH0 PUSH1 0x20 DUP3 DUP5 SUB SLT ISZERO PUSH2 0x1266 JUMPI PUSH2 0x1265 PUSH2 0x110D JUMP JUMPDEST JUMPDEST PUSH0 DUP3 ADD CALLDATALOAD PUSH8 0xFFFFFFFFFFFFFFFF DUP2 GT ISZERO PUSH2 0x1283 JUMPI PUSH2 0x1282 PUSH2 0x1111 JUMP JUMPDEST JUMPDEST PUSH2 0x128F DUP5 DUP3 DUP6 ADD PUSH2 0x1224 JUMP JUMPDEST SWAP2 POP POP SWAP3 SWAP2 POP POP JUMP JUMPDEST PUSH2 0x12A1 DUP2 PUSH2 0x10D3 JUMP JUMPDEST DUP2 EQ PUSH2 0x12AB JUMPI PUSH0 DUP1 REVERT JUMPDEST POP JUMP JUMPDEST PUSH0 DUP2 CALLDATALOAD SWAP1 POP PUSH2 0x12BC DUP2 PUSH2 0x1298 JUMP JUMPDEST SWAP3 SWAP2 POP POP JUMP JUMPDEST PUSH0 PUSH1 0x20 DUP3 DUP5 SUB SLT ISZERO PUSH2 0x12D7 JUMPI PUSH2 0x12D6 PUSH2 0x110D JUMP JUMPDEST JUMPDEST PUSH0 PUSH2 0x12E4 DUP5 DUP3 DUP6 ADD PUSH2 0x12AE JUMP JUMPDEST SWAP2 POP POP SWAP3 SWAP2 POP POP JUMP JUMPDEST PUSH0 DUP2 MLOAD SWAP1 POP SWAP2 SWAP1 POP JUMP JUMPDEST PUSH0 DUP3 DUP3 MSTORE PUSH1 0x20 DUP3 ADD SWAP1 POP SWAP3 SWAP2 POP POP JUMP JUMPDEST PUSH0 JUMPDEST DUP4 DUP2 LT ISZERO PUSH2 0x1324 JUMPI DUP1 DUP3 ADD MLOAD DUP2 DUP5 ADD MSTORE PUSH1 0x20 DUP2 ADD SWAP1 POP PUSH2 0x1309 JUMP JUMPDEST PUSH0 DUP5 DUP5 ADD MSTORE POP POP POP POP JUMP JUMPDEST PUSH0 PUSH2 0x1339 DUP3 PUSH2 0x12ED JUMP JUMPDEST PUSH2 0x1343 DUP2 DUP6 PUSH2 0x12F7 JUMP JUMPDEST SWAP4 POP PUSH2 0x1353 DUP2 DUP6 PUSH1 0x20 DUP7 ADD PUSH2 0x1307 JUMP JUMPDEST PUSH2 0x135C DUP2 PUSH2 0x111D JUMP JUMPDEST DUP5 ADD SWAP2 POP POP SWAP3 SWAP2 POP POP JUMP JUMPDEST PUSH0 PUSH1 0x20 DUP3 ADD SWAP1 POP DUP2 DUP2 SUB PUSH0 DUP4 ADD MSTORE PUSH2 0x137F DUP2 DUP5 PUSH2 0x132F JUMP JUMPDEST SWAP1 POP SWAP3 SWAP2 POP POP JUMP JUMPDEST PUSH0 DUP2 MLOAD SWAP1 POP SWAP2 SWAP1 POP JUMP JUMPDEST PUSH0 DUP3 DUP3 MSTORE PUSH1 0x20 DUP3 ADD SWAP1 POP SWAP3 SWAP2 POP POP JUMP JUMPDEST PUSH0 DUP2 SWAP1 POP PUSH1 0x20 DUP3 ADD SWAP1 POP SWAP2 SWAP1 POP JUMP JUMPDEST PUSH0 DUP3 DUP3 MSTORE PUSH1 0x20 DUP3 ADD SWAP1 POP SWAP3 SWAP2 POP POP JUMP JUMPDEST PUSH0 PUSH2 0x13CA DUP3 PUSH2 0x12ED JUMP JUMPDEST PUSH2 0x13D4 DUP2 DUP6 PUSH2 0x13B0 JUMP JUMPDEST SWAP4 POP PUSH2 0x13E4 DUP2 DUP6 PUSH1 0x20 DUP7 ADD PUSH2 0x1307 JUMP JUMPDEST PUSH2 0x13ED DUP2 PUSH2 0x111D JUMP JUMPDEST DUP5 ADD SWAP2 POP POP SWAP3 SWAP2 POP POP JUMP JUMPDEST PUSH2 0x1401 DUP2 PUSH2 0x10D3 JUMP JUMPDEST DUP3 MSTORE POP POP JUMP JUMPDEST PUSH0 DUP2 MLOAD SWAP1 POP SWAP2 SWAP1 POP JUMP JUMPDEST PUSH0 DUP3 DUP3 MSTORE PUSH1 0x20 DUP3 ADD SWAP1 POP SWAP3 SWAP2 POP POP JUMP JUMPDEST PUSH0 DUP2 SWAP1 POP PUSH1 0x20 DUP3 ADD SWAP1 POP SWAP2 SWAP1 POP JUMP JUMPDEST PUSH0 PUSH2 0x143B DUP4 DUP4 PUSH2 0x13C0 JUMP JUMPDEST SWAP1 POP SWAP3 SWAP2 POP POP JUMP JUMPDEST PUSH0 PUSH1 0x20 DUP3 ADD SWAP1 POP SWAP2 SWAP1 POP JUMP JUMPDEST PUSH0 PUSH2 0x1459 DUP3 PUSH2 0x1407 JUMP JUMPDEST PUSH2 0x1463 DUP2 DUP6 PUSH2 0x1411 JUMP JUMPDEST SWAP4 POP DUP4 PUSH1 0x20 DUP3 MUL DUP6 ADD PUSH2 0x1475 DUP6 PUSH2 0x1421 JUMP JUMPDEST DUP1 PUSH0 JUMPDEST DUP6 DUP2 LT ISZERO PUSH2 0x14B0 JUMPI DUP5 DUP5 SUB DUP10 MSTORE DUP2 MLOAD PUSH2 0x1491 DUP6 DUP3 PUSH2 0x1430 JUMP JUMPDEST SWAP5 POP PUSH2 0x149C DUP4 PUSH2 0x1443 JUMP JUMPDEST SWAP3 POP PUSH1 0x20 DUP11 ADD SWAP10 POP POP PUSH1 0x1 DUP2 ADD SWAP1 POP PUSH2 0x1478 JUMP JUMPDEST POP DUP3 SWAP8 POP DUP8 SWAP6 POP POP POP POP POP POP SWAP3 SWAP2 POP POP JUMP JUMPDEST PUSH0 PUSH1 0xA0 DUP4 ADD PUSH0 DUP4 ADD MLOAD DUP5 DUP3 SUB PUSH0 DUP7 ADD MSTORE PUSH2 0x14DC DUP3 DUP3 PUSH2 0x13C0 JUMP JUMPDEST SWAP2 POP POP PUSH1 0x20 DUP4 ADD MLOAD PUSH2 0x14F1 PUSH1 0x20 DUP7 ADD DUP3 PUSH2 0x13F8 JUMP JUMPDEST POP PUSH1 0x40 DUP4 ADD MLOAD PUSH2 0x1504 PUSH1 0x40 DUP7 ADD DUP3 PUSH2 0x13F8 JUMP JUMPDEST POP PUSH1 0x60 DUP4 ADD MLOAD DUP5 DUP3 SUB PUSH1 0x60 DUP7 ADD MSTORE PUSH2 0x151C DUP3 DUP3 PUSH2 0x13C0 JUMP JUMPDEST SWAP2 POP POP PUSH1 0x80 DUP4 ADD MLOAD DUP5 DUP3 SUB PUSH1 0x80 DUP7 ADD MSTORE PUSH2 0x1536 DUP3 DUP3 PUSH2 0x144F JUMP JUMPDEST SWAP2 POP POP DUP1 SWAP2 POP POP SWAP3 SWAP2 POP POP JUMP JUMPDEST PUSH0 PUSH2 0x154E DUP4 DUP4 PUSH2 0x14C2 JUMP JUMPDEST SWAP1 POP SWAP3 SWAP2 POP POP JUMP JUMPDEST PUSH0 PUSH1 0x20 DUP3 ADD SWAP1 POP SWAP2 SWAP1 POP JUMP JUMPDEST PUSH0 PUSH2 0x156C DUP3 PUSH2 0x1387 JUMP JUMPDEST PUSH2 0x1576 DUP2 DUP6 PUSH2 0x1391 JUMP JUMPDEST SWAP4 POP DUP4 PUSH1 0x20 DUP3 MUL DUP6 ADD PUSH2 0x1588 DUP6 PUSH2 0x13A1 JUMP JUMPDEST DUP1 PUSH0 JUMPDEST DUP6 DUP2 LT ISZERO PUSH2 0x15C3 JUMPI DUP5 DUP5 SUB DUP10 MSTORE DUP2 MLOAD PUSH2 0x15A4 DUP6 DUP3 PUSH2 0x1543 JUMP JUMPDEST SWAP5 POP PUSH2 0x15AF DUP4 PUSH2 0x1556 JUMP JUMPDEST SWAP3 POP PUSH1 0x20 DUP11 ADD SWAP10 POP POP PUSH1 0x1 DUP2 ADD SWAP1 POP PUSH2 0x158B JUMP JUMPDEST POP DUP3 SWAP8 POP DUP8 SWAP6 POP POP POP POP POP POP SWAP3 SWAP2 POP POP JUMP JUMPDEST PUSH0 PUSH1 0x40 DUP3 ADD SWAP1 POP PUSH2 0x15E8 PUSH0 DUP4 ADD DUP6 PUSH2 0x10DC JUMP JUMPDEST DUP2 DUP2 SUB PUSH1 0x20 DUP4 ADD MSTORE PUSH2 0x15FA DUP2 DUP5 PUSH2 0x1562 JUMP JUMPDEST SWAP1 POP SWAP4 SWAP3 POP POP POP JUMP JUMPDEST PUSH0 PUSH1 0xA0 DUP4 ADD PUSH0 DUP4 ADD MLOAD DUP5 DUP3 SUB PUSH0 DUP7 ADD MSTORE PUSH2 0x161D DUP3 DUP3 PUSH2 0x13C0 JUMP JUMPDEST SWAP2 POP POP PUSH1 0x20 DUP4 ADD MLOAD PUSH2 0x1632 PUSH1 0x20 DUP7 ADD DUP3 PUSH2 0x13F8 JUMP JUMPDEST POP PUSH1 0x40 DUP4 ADD MLOAD PUSH2 0x1645 PUSH1 0x40 DUP7 ADD DUP3 PUSH2 0x13F8 JUMP JUMPDEST POP PUSH1 0x60 DUP4 ADD MLOAD DUP5 DUP3 SUB PUSH1 0x60 DUP7 ADD MSTORE PUSH2 0x165D DUP3 DUP3 PUSH2 0x13C0 JUMP JUMPDEST SWAP2 POP POP PUSH1 0x80 DUP4 ADD MLOAD DUP5 DUP3 SUB PUSH1 0x80 DUP7 ADD MSTORE PUSH2 0x1677 DUP3 DUP3 PUSH2 0x144F JUMP JUMPDEST SWAP2 POP POP DUP1 SWAP2 POP POP SWAP3 SWAP2 POP POP JUMP JUMPDEST PUSH0 PUSH1 0x20 DUP3 ADD SWAP1 POP DUP2 DUP2 SUB PUSH0 DUP4 ADD MSTORE PUSH2 0x169C DUP2 DUP5 PUSH2 0x1603 JUMP JUMPDEST SWAP1 POP SWAP3 SWAP2 POP POP JUMP JUMPDEST PUSH0 DUP2 ISZERO ISZERO SWAP1 POP SWAP2 SWAP1 POP JUMP JUMPDEST PUSH2 0x16B8 DUP2 PUSH2 0x16A4 JUMP JUMPDEST DUP3 MSTORE POP POP JUMP JUMPDEST PUSH0 PUSH1 0x20 DUP3 ADD SWAP1 POP PUSH2 0x16D1 PUSH0 DUP4 ADD DUP5 PUSH2 0x16AF JUMP JUMPDEST SWAP3 SWAP2 POP POP JUMP JUMPDEST PUSH0 PUSH8 0xFFFFFFFFFFFFFFFF DUP3 GT ISZERO PUSH2 0x16F1 JUMPI PUSH2 0x16F0 PUSH2 0x112D JUMP JUMPDEST JUMPDEST PUSH1 0x20 DUP3 MUL SWAP1 POP PUSH1 0x20 DUP2 ADD SWAP1 POP SWAP2 SWAP1 POP JUMP JUMPDEST PUSH0 DUP1 REVERT JUMPDEST PUSH0 PUSH2 0x1718 PUSH2 0x1713 DUP5 PUSH2 0x16D7 JUMP JUMPDEST PUSH2 0x118B JUMP JUMPDEST SWAP1 POP DUP1 DUP4 DUP3 MSTORE PUSH1 0x20 DUP3 ADD SWAP1 POP PUSH1 0x20 DUP5 MUL DUP4 ADD DUP6 DUP2 GT ISZERO PUSH2 0x173B JUMPI PUSH2 0x173A PUSH2 0x1702 JUMP JUMPDEST JUMPDEST DUP4 JUMPDEST DUP2 DUP2 LT ISZERO PUSH2 0x1782 JUMPI DUP1 CALLDATALOAD PUSH8 0xFFFFFFFFFFFFFFFF DUP2 GT ISZERO PUSH2 0x1760 JUMPI PUSH2 0x175F PUSH2 0x1115 JUMP JUMPDEST JUMPDEST DUP1 DUP7 ADD PUSH2 0x176D DUP10 DUP3 PUSH2 0x1224 JUMP JUMPDEST DUP6 MSTORE PUSH1 0x20 DUP6 ADD SWAP5 POP POP POP PUSH1 0x20 DUP2 ADD SWAP1 POP PUSH2 0x173D JUMP JUMPDEST POP POP POP SWAP4 SWAP3 POP POP POP JUMP JUMPDEST PUSH0 DUP3 PUSH1 0x1F DUP4 ADD SLT PUSH2 0x17A0 JUMPI PUSH2 0x179F PUSH2 0x1115 JUMP JUMPDEST JUMPDEST DUP2 CALLDATALOAD PUSH2 0x17B0 DUP5 DUP3 PUSH1 0x20 DUP7 ADD PUSH2 0x1706 JUMP JUMPDEST SWAP2 POP POP SWAP3 SWAP2 POP POP JUMP JUMPDEST PUSH0 DUP1 PUSH0 PUSH1 0x60 DUP5 DUP7 SUB SLT ISZERO PUSH2 0x17D0 JUMPI PUSH2 0x17CF PUSH2 0x110D JUMP JUMPDEST JUMPDEST PUSH0 DUP5 ADD CALLDATALOAD PUSH8 0xFFFFFFFFFFFFFFFF DUP2 GT ISZERO PUSH2 0x17ED JUMPI PUSH2 0x17EC PUSH2 0x1111 JUMP JUMPDEST JUMPDEST PUSH2 0x17F9 DUP7 DUP3 DUP8 ADD PUSH2 0x1224 JUMP JUMPDEST SWAP4 POP POP PUSH1 0x20 PUSH2 0x180A DUP7 DUP3 DUP8 ADD PUSH2 0x12AE JUMP JUMPDEST SWAP3 POP POP PUSH1 0x40 DUP5 ADD CALLDATALOAD PUSH8 0xFFFFFFFFFFFFFFFF DUP2 GT ISZERO PUSH2 0x182B JUMPI PUSH2 0x182A PUSH2 0x1111 JUMP JUMPDEST JUMPDEST PUSH2 0x1837 DUP7 DUP3 DUP8 ADD PUSH2 0x178C JUMP JUMPDEST SWAP2 POP POP SWAP3 POP SWAP3 POP SWAP3 JUMP JUMPDEST PUSH0 PUSH1 0x20 DUP3 ADD SWAP1 POP DUP2 DUP2 SUB PUSH0 DUP4 ADD MSTORE PUSH2 0x1859 DUP2 DUP5 PUSH2 0x1562 JUMP JUMPDEST SWAP1 POP SWAP3 SWAP2 POP POP JUMP JUMPDEST PUSH0 DUP2 SWAP1 POP SWAP3 SWAP2 POP POP JUMP JUMPDEST PUSH0 PUSH2 0x1875 DUP3 PUSH2 0x12ED JUMP JUMPDEST PUSH2 0x187F DUP2 DUP6 PUSH2 0x1861 JUMP JUMPDEST SWAP4 POP PUSH2 0x188F DUP2 DUP6 PUSH1 0x20 DUP7 ADD PUSH2 0x1307 JUMP JUMPDEST DUP1 DUP5 ADD SWAP2 POP POP SWAP3 SWAP2 POP POP JUMP JUMPDEST PUSH0 PUSH2 0x18A6 DUP3 DUP5 PUSH2 0x186B JUMP JUMPDEST SWAP2 POP DUP2 SWAP1 POP SWAP3 SWAP2 POP POP JUMP JUMPDEST PUSH32 0x4E487B7100000000000000000000000000000000000000000000000000000000 PUSH0 MSTORE PUSH1 0x22 PUSH1 0x4 MSTORE PUSH1 0x24 PUSH0 REVERT JUMPDEST PUSH0 PUSH1 0x2 DUP3 DIV SWAP1 POP PUSH1 0x1 DUP3 AND DUP1 PUSH2 0x18F5 JUMPI PUSH1 0x7F DUP3 AND SWAP2 POP JUMPDEST PUSH1 0x20 DUP3 LT DUP2 SUB PUSH2 0x1908 JUMPI PUSH2 0x1907 PUSH2 0x18B1 JUMP JUMPDEST JUMPDEST POP SWAP2 SWAP1 POP JUMP JUMPDEST PUSH32 0x4E487B7100000000000000000000000000000000000000000000000000000000 PUSH0 MSTORE PUSH1 0x11 PUSH1 0x4 MSTORE PUSH1 0x24 PUSH0 REVERT JUMPDEST PUSH0 PUSH2 0x1945 DUP3 PUSH2 0x10D3 JUMP JUMPDEST SWAP2 POP PUSH2 0x1950 DUP4 PUSH2 0x10D3 JUMP JUMPDEST SWAP3 POP DUP3 DUP3 SUB SWAP1 POP DUP2 DUP2 GT ISZERO PUSH2 0x1968 JUMPI PUSH2 0x1967 PUSH2 0x190E JUMP JUMPDEST JUMPDEST SWAP3 SWAP2 POP POP JUMP JUMPDEST PUSH32 0x4E487B7100000000000000000000000000000000000000000000000000000000 PUSH0 MSTORE PUSH1 0x32 PUSH1 0x4 MSTORE PUSH1 0x24 PUSH0 REVERT JUMPDEST PUSH0 PUSH2 0x19A5 DUP3 PUSH2 0x10D3 JUMP JUMPDEST SWAP2 POP PUSH2 0x19B0 DUP4 PUSH2 0x10D3 JUMP JUMPDEST SWAP3 POP DUP3 DUP3 ADD SWAP1 POP DUP1 DUP3 GT ISZERO PUSH2 0x19C8 JUMPI PUSH2 0x19C7 PUSH2 0x190E JUMP JUMPDEST JUMPDEST SWAP3 SWAP2 POP POP JUMP JUMPDEST PUSH0 DUP2 SWAP1 POP DUP2 PUSH0 MSTORE PUSH1 0x20 PUSH0 KECCAK256 SWAP1 POP SWAP2 SWAP1 POP JUMP JUMPDEST PUSH0 PUSH1 0x20 PUSH1 0x1F DUP4 ADD DIV SWAP1 POP SWAP2 SWAP1 POP JUMP JUMPDEST PUSH0 DUP3 DUP3 SHL SWAP1 POP SWAP3 SWAP2 POP POP JUMP JUMPDEST PUSH0 PUSH1 0x8 DUP4 MUL PUSH2 0x1A2A PUSH32 0xFFFFFFFFFFFFFFFFFFFFFFFFFFFFFFFFFFFFFFFFFFFFFFFFFFFFFFFFFFFFFFFF DUP3 PUSH2 0x19EF JUMP JUMPDEST PUSH2 0x1A34 DUP7 DUP4 PUSH2 0x19EF JUMP JUMPDEST SWAP6 POP DUP1 NOT DUP5 AND SWAP4 POP DUP1 DUP7 AND DUP5 OR SWAP3 POP POP POP SWAP4 SWAP3 POP POP POP JUMP JUMPDEST PUSH0 DUP2 SWAP1 POP SWAP2 SWAP1 POP JUMP JUMPDEST PUSH0 PUSH2 0x1A6F PUSH2 0x1A6A PUSH2 0x1A65 DUP5 PUSH2 0x10D3 JUMP JUMPDEST PUSH2 0x1A4C JUMP JUMPDEST PUSH2 0x10D3 JUMP JUMPDEST SWAP1 POP SWAP2 SWAP1 POP JUMP JUMPDEST PUSH0 DUP2 SWAP1 POP SWAP2 SWAP1 POP JUMP JUMPDEST PUSH2 0x1A88 DUP4 PUSH2 0x1A55 JUMP JUMPDEST PUSH2 0x1A9C PUSH2 0x1A94 DUP3 PUSH2 0x1A76 JUMP JUMPDEST DUP5 DUP5 SLOAD PUSH2 0x19FB JUMP JUMPDEST DUP3 SSTORE POP POP POP POP JUMP JUMPDEST PUSH0 SWAP1 JUMP JUMPDEST PUSH2 0x1AB0 PUSH2 0x1AA4 JUMP JUMPDEST PUSH2 0x1ABB DUP2 DUP5 DUP5 PUSH2 0x1A7F JUMP JUMPDEST POP POP POP JUMP JUMPDEST JUMPDEST DUP2 DUP2 LT ISZERO PUSH2 0x1ADE JUMPI PUSH2 0x1AD3 PUSH0 DUP3 PUSH2 0x1AA8 JUMP JUMPDEST PUSH1 0x1 DUP2 ADD SWAP1 POP PUSH2 0x1AC1 JUMP JUMPDEST POP POP JUMP JUMPDEST PUSH1 0x1F DUP3 GT ISZERO PUSH2 0x1B23 JUMPI PUSH2 0x1AF4 DUP2 PUSH2 0x19CE JUMP JUMPDEST PUSH2 0x1AFD DUP5 PUSH2 0x19E0 JUMP JUMPDEST DUP2 ADD PUSH1 0x20 DUP6 LT ISZERO PUSH2 0x1B0C JUMPI DUP2 SWAP1 POP JUMPDEST PUSH2 0x1B20 PUSH2 0x1B18 DUP6 PUSH2 0x19E0 JUMP JUMPDEST DUP4 ADD DUP3 PUSH2 0x1AC0 JUMP JUMPDEST POP POP JUMPDEST POP POP POP JUMP JUMPDEST PUSH0 DUP3 DUP3 SHR SWAP1 POP SWAP3 SWAP2 POP POP JUMP JUMPDEST PUSH0 PUSH2 0x1B43 PUSH0 NOT DUP5 PUSH1 0x8 MUL PUSH2 0x1B28 JUMP JUMPDEST NOT DUP1 DUP4 AND SWAP2 POP POP SWAP3 SWAP2 POP POP JUMP JUMPDEST PUSH0 PUSH2 0x1B5B DUP4 DUP4 PUSH2 0x1B34 JUMP JUMPDEST SWAP2 POP DUP3 PUSH1 0x2 MUL DUP3 OR SWAP1 POP SWAP3 SWAP2 POP POP JUMP JUMPDEST PUSH2 0x1B74 DUP3 PUSH2 0x12ED JUMP JUMPDEST PUSH8 0xFFFFFFFFFFFFFFFF DUP2 GT ISZERO PUSH2 0x1B8D JUMPI PUSH2 0x1B8C PUSH2 0x112D JUMP JUMPDEST JUMPDEST PUSH2 0x1B97 DUP3 SLOAD PUSH2 0x18DE JUMP JUMPDEST PUSH2 0x1BA2 DUP3 DUP3 DUP6 PUSH2 0x1AE2 JUMP JUMPDEST PUSH0 PUSH1 0x20 SWAP1 POP PUSH1 0x1F DUP4 GT PUSH1 0x1 DUP2 EQ PUSH2 0x1BD3 JUMPI PUSH0 DUP5 ISZERO PUSH2 0x1BC1 JUMPI DUP3 DUP8 ADD MLOAD SWAP1 POP JUMPDEST PUSH2 0x1BCB DUP6 DUP3 PUSH2 0x1B50 JUMP JUMPDEST DUP7 SSTORE POP PUSH2 0x1C32 JUMP JUMPDEST PUSH1 0x1F NOT DUP5 AND PUSH2 0x1BE1 DUP7 PUSH2 0x19CE JUMP JUMPDEST PUSH0 JUMPDEST DUP3 DUP2 LT ISZERO PUSH2 0x1C08 JUMPI DUP5 DUP10 ADD MLOAD DUP3 SSTORE PUSH1 0x1 DUP3 ADD SWAP2 POP PUSH1 0x20 DUP6 ADD SWAP5 POP PUSH1 0x20 DUP2 ADD SWAP1 POP PUSH2 0x1BE3 JUMP JUMPDEST DUP7 DUP4 LT ISZERO PUSH2 0x1C25 JUMPI DUP5 DUP10 ADD MLOAD PUSH2 0x1C21 PUSH1 0x1F DUP10 AND DUP3 PUSH2 0x1B34 JUMP JUMPDEST DUP4 SSTORE POP JUMPDEST PUSH1 0x1 PUSH1 0x2 DUP9 MUL ADD DUP9 SSTORE POP POP POP JUMPDEST POP POP POP POP POP POP JUMP JUMPDEST PUSH32 0x4E487B7100000000000000000000000000000000000000000000000000000000 PUSH0 MSTORE PUSH1 0x12 PUSH1 0x4 MSTORE PUSH1 0x24 PUSH0 REVERT JUMPDEST PUSH0 PUSH2 0x1C71 DUP3 PUSH2 0x10D3 JUMP JUMPDEST SWAP2 POP PUSH2 0x1C7C DUP4 PUSH2 0x10D3 JUMP JUMPDEST SWAP3 POP DUP3 PUSH2 0x1C8C JUMPI PUSH2 0x1C8B PUSH2 0x1C3A JUMP JUMPDEST JUMPDEST DUP3 DUP3 DIV SWAP1 POP SWAP3 SWAP2 POP POP JUMP INVALID LOG2 PUSH5 0x6970667358 0x22 SLT KECCAK256 PUSH17 0x6E3CF46CF09A8A0CB24606DD6421E04D7B LOG2 PUSH0 0x4C SLT 0xDD SWAP1 0xCF 0x2B SHL TIMESTAMP 0xA7 0x4E 0xDE JUMP PUSH5 0x736F6C6343 STOP ADDMOD OR STOP CALLER "
				},
				"gasEstimates": {
					"creation": {
						"codeDepositCost": "1474600",
						"executionCost": "1539",
						"totalCost": "1476139"
					},
					"external": {
						"FClassInfo()": "infinite",
						"addStudent(string,uint256,string[])": "infinite",
						"getAverageScore()": "infinite",
						"getNumberofStudents()": "2441",
						"getScoreByName(string)": "infinite",
						"getStudentByName(string)": "infinite",
						"getStudentByNumber(uint256)": "infinite",
						"getStudents()": "infinite",
						"isTeacherGood()": "infinite",
						"setGrade(uint256)": "infinite"
					}
				},
				"methodIdentifiers": {
					"FClassInfo()": "6a76bf66",
					"addStudent(string,uint256,string[])": "c7e56ae3",
					"getAverageScore()": "df72cdbf",
					"getNumberofStudents()": "140f6b29",
					"getScoreByName(string)": "2c78ec94",
					"getStudentByName(string)": "83b41ad8",
					"getStudentByNumber(uint256)": "a41f985e",
					"getStudents()": "f1d064b3",
					"isTeacherGood()": "9b57ee3d",
					"setGrade(uint256)": "674271cd"
				}
			},
			"storageLayout": {
				"storage": [
					{
						"astId": 18,
						"contract": "test1222.sol:test",
						"label": "studentsByName",
						"offset": 0,
						"slot": "0",
						"type": "t_mapping(t_string_memory_ptr,t_struct(Student)13_storage)"
					},
					{
						"astId": 22,
						"contract": "test1222.sol:test",
						"label": "students",
						"offset": 0,
						"slot": "1",
						"type": "t_array(t_struct(Student)13_storage)dyn_storage"
					},
					{
						"astId": 26,
						"contract": "test1222.sol:test",
						"label": "Fstudents",
						"offset": 0,
						"slot": "2",
						"type": "t_array(t_struct(Student)13_storage)dyn_storage"
					}
				],
				"types": {
					"t_array(t_string_storage)dyn_storage": {
						"base": "t_string_storage",
						"encoding": "dynamic_array",
						"label": "string[]",
						"numberOfBytes": "32"
					},
					"t_array(t_struct(Student)13_storage)dyn_storage": {
						"base": "t_struct(Student)13_storage",
						"encoding": "dynamic_array",
						"label": "struct test.Student[]",
						"numberOfBytes": "32"
					},
					"t_mapping(t_string_memory_ptr,t_struct(Student)13_storage)": {
						"encoding": "mapping",
						"key": "t_string_memory_ptr",
						"label": "mapping(string => struct test.Student)",
						"numberOfBytes": "32",
						"value": "t_struct(Student)13_storage"
					},
					"t_string_memory_ptr": {
						"encoding": "bytes",
						"label": "string",
						"numberOfBytes": "32"
					},
					"t_string_storage": {
						"encoding": "bytes",
						"label": "string",
						"numberOfBytes": "32"
					},
					"t_struct(Student)13_storage": {
						"encoding": "inplace",
						"label": "struct test.Student",
						"members": [
							{
								"astId": 3,
								"contract": "test1222.sol:test",
								"label": "name",
								"offset": 0,
								"slot": "0",
								"type": "t_string_storage"
							},
							{
								"astId": 5,
								"contract": "test1222.sol:test",
								"label": "number",
								"offset": 0,
								"slot": "1",
								"type": "t_uint256"
							},
							{
								"astId": 7,
								"contract": "test1222.sol:test",
								"label": "score",
								"offset": 0,
								"slot": "2",
								"type": "t_uint256"
							},
							{
								"astId": 9,
								"contract": "test1222.sol:test",
								"label": "grade",
								"offset": 0,
								"slot": "3",
								"type": "t_string_storage"
							},
							{
								"astId": 12,
								"contract": "test1222.sol:test",
								"label": "classes",
								"offset": 0,
								"slot": "4",
								"type": "t_array(t_string_storage)dyn_storage"
							}
						],
						"numberOfBytes": "160"
					},
					"t_uint256": {
						"encoding": "inplace",
						"label": "uint256",
						"numberOfBytes": "32"
					}
				}
			},
			"userdoc": {
				"kind": "user",
				"methods": {},
				"version": 1
			}
		}
	}
}