{
	"data": {
		"bytecode": {
			"linkReferences": {},
			"object": "608060405234801561000f575f80fd5b506102e68061001d5f395ff3fe608060405234801561000f575f80fd5b5060043610610060575f3560e01c80632930cf241461006457806386b75bb81461006e5780639a86139b1461008a578063a0811074146100a8578063be9faf13146100b2578063f2f1e132146100bc575b5f80fd5b61006c6100c6565b005b610088600480360381019061008391906101f9565b6100f1565b005b61009261012e565b60405161009f9190610297565b60405180910390f35b6100b0610142565b005b6100ba61016c565b005b6100c4610197565b005b60015f806101000a81548160ff021916908360038111156100ea576100e9610224565b5b0217905550565b80600381111561010457610103610224565b5b5f806101000a81548160ff0219169083600381111561012657610125610224565b5b021790555050565b5f805f9054906101000a900460ff16905090565b5f805f6101000a81548160ff0219169083600381111561016557610164610224565b5b0217905550565b60025f806101000a81548160ff021916908360038111156101905761018f610224565b5b0217905550565b60035f806101000a81548160ff021916908360038111156101bb576101ba610224565b5b0217905550565b5f80fd5b5f819050919050565b6101d8816101c6565b81146101e2575f80fd5b50565b5f813590506101f3816101cf565b92915050565b5f6020828403121561020e5761020d6101c2565b5b5f61021b848285016101e5565b91505092915050565b7f4e487b71000000000000000000000000000000000000000000000000000000005f52602160045260245ffd5b6004811061026257610261610224565b5b50565b5f81905061027282610251565b919050565b5f61028182610265565b9050919050565b61029181610277565b82525050565b5f6020820190506102aa5f830184610288565b9291505056fea2646970667358221220087da41b2ce873f47df3694ff54d5e8fc4a06e737a102a111ac877f7a3555ed364736f6c63430008170033",
			"opcodes": "PUSH1 0x80 PUSH1 0x40 MSTORE CALLVALUE DUP1 ISZERO PUSH2 0xF JUMPI PUSH0 DUP1 REVERT JUMPDEST POP PUSH2 0x2E6 DUP1 PUSH2 0x1D PUSH0 CODECOPY PUSH0 RETURN INVALID PUSH1 0x80 PUSH1 0x40 MSTORE CALLVALUE DUP1 ISZERO PUSH2 0xF JUMPI PUSH0 DUP1 REVERT JUMPDEST POP PUSH1 0x4 CALLDATASIZE LT PUSH2 0x60 JUMPI PUSH0 CALLDATALOAD PUSH1 0xE0 SHR DUP1 PUSH4 0x2930CF24 EQ PUSH2 0x64 JUMPI DUP1 PUSH4 0x86B75BB8 EQ PUSH2 0x6E JUMPI DUP1 PUSH4 0x9A86139B EQ PUSH2 0x8A JUMPI DUP1 PUSH4 0xA0811074 EQ PUSH2 0xA8 JUMPI DUP1 PUSH4 0xBE9FAF13 EQ PUSH2 0xB2 JUMPI DUP1 PUSH4 0xF2F1E132 EQ PUSH2 0xBC JUMPI JUMPDEST PUSH0 DUP1 REVERT JUMPDEST PUSH2 0x6C PUSH2 0xC6 JUMP JUMPDEST STOP JUMPDEST PUSH2 0x88 PUSH1 0x4 DUP1 CALLDATASIZE SUB DUP2 ADD SWAP1 PUSH2 0x83 SWAP2 SWAP1 PUSH2 0x1F9 JUMP JUMPDEST PUSH2 0xF1 JUMP JUMPDEST STOP JUMPDEST PUSH2 0x92 PUSH2 0x12E JUMP JUMPDEST PUSH1 0x40 MLOAD PUSH2 0x9F SWAP2 SWAP1 PUSH2 0x297 JUMP JUMPDEST PUSH1 0x40 MLOAD DUP1 SWAP2 SUB SWAP1 RETURN JUMPDEST PUSH2 0xB0 PUSH2 0x142 JUMP JUMPDEST STOP JUMPDEST PUSH2 0xBA PUSH2 0x16C JUMP JUMPDEST STOP JUMPDEST PUSH2 0xC4 PUSH2 0x197 JUMP JUMPDEST STOP JUMPDEST PUSH1 0x1 PUSH0 DUP1 PUSH2 0x100 EXP DUP2 SLOAD DUP2 PUSH1 0xFF MUL NOT AND SWAP1 DUP4 PUSH1 0x3 DUP2 GT ISZERO PUSH2 0xEA JUMPI PUSH2 0xE9 PUSH2 0x224 JUMP JUMPDEST JUMPDEST MUL OR SWAP1 SSTORE POP JUMP JUMPDEST DUP1 PUSH1 0x3 DUP2 GT ISZERO PUSH2 0x104 JUMPI PUSH2 0x103 PUSH2 0x224 JUMP JUMPDEST JUMPDEST PUSH0 DUP1 PUSH2 0x100 EXP DUP2 SLOAD DUP2 PUSH1 0xFF MUL NOT AND SWAP1 DUP4 PUSH1 0x3 DUP2 GT ISZERO PUSH2 0x126 JUMPI PUSH2 0x125 PUSH2 0x224 JUMP JUMPDEST JUMPDEST MUL OR SWAP1 SSTORE POP POP JUMP JUMPDEST PUSH0 DUP1 PUSH0 SWAP1 SLOAD SWAP1 PUSH2 0x100 EXP SWAP1 DIV PUSH1 0xFF AND SWAP1 POP SWAP1 JUMP JUMPDEST PUSH0 DUP1 PUSH0 PUSH2 0x100 EXP DUP2 SLOAD DUP2 PUSH1 0xFF MUL NOT AND SWAP1 DUP4 PUSH1 0x3 DUP2 GT ISZERO PUSH2 0x165 JUMPI PUSH2 0x164 PUSH2 0x224 JUMP JUMPDEST JUMPDEST MUL OR SWAP1 SSTORE POP JUMP JUMPDEST PUSH1 0x2 PUSH0 DUP1 PUSH2 0x100 EXP DUP2 SLOAD DUP2 PUSH1 0xFF MUL NOT AND SWAP1 DUP4 PUSH1 0x3 DUP2 GT ISZERO PUSH2 0x190 JUMPI PUSH2 0x18F PUSH2 0x224 JUMP JUMPDEST JUMPDEST MUL OR SWAP1 SSTORE POP JUMP JUMPDEST PUSH1 0x3 PUSH0 DUP1 PUSH2 0x100 EXP DUP2 SLOAD DUP2 PUSH1 0xFF MUL NOT AND SWAP1 DUP4 PUSH1 0x3 DUP2 GT ISZERO PUSH2 0x1BB JUMPI PUSH2 0x1BA PUSH2 0x224 JUMP JUMPDEST JUMPDEST MUL OR SWAP1 SSTORE POP JUMP JUMPDEST PUSH0 DUP1 REVERT JUMPDEST PUSH0 DUP2 SWAP1 POP SWAP2 SWAP1 POP JUMP JUMPDEST PUSH2 0x1D8 DUP2 PUSH2 0x1C6 JUMP JUMPDEST DUP2 EQ PUSH2 0x1E2 JUMPI PUSH0 DUP1 REVERT JUMPDEST POP JUMP JUMPDEST PUSH0 DUP2 CALLDATALOAD SWAP1 POP PUSH2 0x1F3 DUP2 PUSH2 0x1CF JUMP JUMPDEST SWAP3 SWAP2 POP POP JUMP JUMPDEST PUSH0 PUSH1 0x20 DUP3 DUP5 SUB SLT ISZERO PUSH2 0x20E JUMPI PUSH2 0x20D PUSH2 0x1C2 JUMP JUMPDEST JUMPDEST PUSH0 PUSH2 0x21B DUP5 DUP3 DUP6 ADD PUSH2 0x1E5 JUMP JUMPDEST SWAP2 POP POP SWAP3 SWAP2 POP POP JUMP JUMPDEST PUSH32 0x4E487B7100000000000000000000000000000000000000000000000000000000 PUSH0 MSTORE PUSH1 0x21 PUSH1 0x4 MSTORE PUSH1 0x24 PUSH0 REVERT JUMPDEST PUSH1 0x4 DUP2 LT PUSH2 0x262 JUMPI PUSH2 0x261 PUSH2 0x224 JUMP JUMPDEST JUMPDEST POP JUMP JUMPDEST PUSH0 DUP2 SWAP1 POP PUSH2 0x272 DUP3 PUSH2 0x251 JUMP JUMPDEST SWAP2 SWAP1 POP JUMP JUMPDEST PUSH0 PUSH2 0x281 DUP3 PUSH2 0x265 JUMP JUMPDEST SWAP1 POP SWAP2 SWAP1 POP JUMP JUMPDEST PUSH2 0x291 DUP2 PUSH2 0x277 JUMP JUMPDEST DUP3 MSTORE POP POP JUMP JUMPDEST PUSH0 PUSH1 0x20 DUP3 ADD SWAP1 POP PUSH2 0x2AA PUSH0 DUP4 ADD DUP5 PUSH2 0x288 JUMP JUMPDEST SWAP3 SWAP2 POP POP JUMP INVALID LOG2 PUSH5 0x6970667358 0x22 SLT KECCAK256 ADDMOD PUSH30 0xA41B2CE873F47DF3694FF54D5E8FC4A06E737A102A111AC877F7A3555ED3 PUSH5 0x736F6C6343 STOP ADDMOD OR STOP CALLER "
		},
		"gasEstimates": {
			"creation": {
				"codeDepositCost": "148400",
				"executionCost": "194",
				"totalCost": "148594"
			},
			"external": {
				"getColor()": "2583",
				"green()": "24517",
				"red()": "24407",
				"setColor(uint256)": "24713",
				"white()": "24472",
				"yellow()": "24495"
			}
		},
		"methodIdentifiers": {
			"getColor()": "9a86139b",
			"green()": "f2f1e132",
			"red()": "2930cf24",
			"setColor(uint256)": "86b75bb8",
			"white()": "a0811074",
			"yellow()": "be9faf13"
		}
	},
	"abi": [
		{
			"inputs": [],
			"name": "getColor",
			"outputs": [
				{
					"internalType": "enum ENUM2.Color",
					"name": "",
					"type": "uint8"
				}
			],
			"stateMutability": "view",
			"type": "function"
		},
		{
			"inputs": [],
			"name": "green",
			"outputs": [],
			"stateMutability": "nonpayable",
			"type": "function"
		},
		{
			"inputs": [],
			"name": "red",
			"outputs": [],
			"stateMutability": "nonpayable",
			"type": "function"
		},
		{
			"inputs": [
				{
					"internalType": "uint256",
					"name": "_n",
					"type": "uint256"
				}
			],
			"name": "setColor",
			"outputs": [],
			"stateMutability": "nonpayable",
			"type": "function"
		},
		{
			"inputs": [],
			"name": "white",
			"outputs": [],
			"stateMutability": "nonpayable",
			"type": "function"
		},
		{
			"inputs": [],
			"name": "yellow",
			"outputs": [],
			"stateMutability": "nonpayable",
			"type": "function"
		}
	]
}